:100000000C942C010C944B010C944B010C944B015F
:100010000C944B010C944B010C944B010C944B0130
:100020000C944B010C944B010C944B010C944B0120
:100030000C944B010C944B010C944B010C944B0110
:100040000C944B010C944B010C944B010C944B0100
:100050000C944B010C944B010C944B010C944B01F0
:100060000C944B010C9467300C944B010C944B0195
:100070000C944B010C940F020C944B010C944B010B
:100080000C944B010C944B010C944B010C944B01C0
:100090000C94B9300C944B010C944B010C94AA7A3B
:1000A0000C944B010C944B010C944B010C944B01A0
:1000B0000C944B010C944B010C944B010C9476491D
:1000C0000C944B010C944B010C944B010C944B0180
:1000D0000C944B010C944B010C944B010C944B0170
:1000E0000C944B010C944B010C944B010C94244048
:1000F0000C9433400C944B010C944B010C94DA3F5C
:100100000C944B010C944B010C944B010C944B013F
:100110000C944B010C944B010C944B010C944B012F
:10012000F59299920B92B59135912C917C901D90FE
:10013000BA90149002904F9305A84CCDB2D44EB90A
:100140003836A9020C50B9918688083CA6AAAA2A7A
:10015000BE000000803F6E616E00696E6600004068
:100160007A10F35A00A0724E18090010A5D4E800C6
:1001700000E87648170000E40B54020000CA9A3BDE
:10018000000000E1F5050000809698000000404264
:100190000F000000A08601000000102700000000F2
:1001A000E803000000006400000000000A000000F6
:1001B00000000100000000002C76D888DC674F08A2
:1001C00023DFC1DFAE59E1B1B796E5E3E453C63AA8
:1001D000E651997696E8E6C28426EB898C9B62ED1F
:1001E000407C6FFCEFBC9C9F40F2BAA56FA5F490D9
:1001F000055A2AF75C936B6CF9676DC11BFCE0E450
:100200000D47FEF520E6B500D0ED902E03009435A5
:1002100077050080841E080000204E0A000000C8F8
:100220000C333333330F986E12831141EF8D211449
:10023000893BE65516CFFEE6DB18D1844B381BF719
:100240007C1D901DA4BBE424203284725E228100B8
:10025000C9F124ECA1E53D2711241FBECFEFD1E465
:10026000DEBFCDBF1DE0A0E0B2E0E2ECFDE801E0C2
:100270000BBF02C007900D92AE3CB107D9F72DE13C
:10028000AEECBDE001C01D92A838B207E1F70E94B4
:10029000D7070C94DFC60C94000008950895E82F4A
:1002A000F0E0E05CFE4F60830895E82FF0E0E05C52
:1002B000FE4F80810895E82FF0E0E05CFE4F8081E2
:1002C0006823862F90E002C0959587954A95E2F7BE
:1002D0000895922FE82FF0E0E05CFE4F262F209546
:1002E00080818223292F01C0220F4A95EAF7262315
:1002F000282B2083089587FD8FE780938001482F66
:1003000050E081E891E00C94C6C5EF92FF921F93F4
:10031000CF93DF937A0110917B01161708F4612FB8
:10032000C62FD0E0AE0160E871E00E94C6C5C0589B
:10033000DE4F8881F7018083812FDF91CF911F915C
:10034000FF90EF900895FF920F931F93CF93DF9349
:100350008C01F62EEA01209751F047E060E886E034
:100360000E945B0191E0813009F090E0988340E0C9
:1003700050E06F2DC801DF91CF911F910F91FF9039
:100380000C948501CF92DF92FF920F931F93CF932E
:10039000DF938C01F62E6A01E901209751F047E0C6
:1003A00060E886E00E945B0191E0813009F090E016
:1003B0009883A6016F2DC801DF91CF911F910F91F6
:1003C000FF90DF90CF900C94850180917B01089580
:1003D000FA01282F30E0A901460F511D4038510580
:1003E0001CF09FE7692F681B462F50E0BF01C90131
:1003F00080589E4F0C94C6C5FA01282F30E0A90101
:10040000460F511D4038510514F06FE7681B462F09
:1004100050E0B90160587E4FCF010C94C6C51F92C1
:100420000F920FB60F9211240BB60F921F932F93BA
:100430003F934F935F936F937F938F939F93AF936C
:10044000BF93CF93DF93EF93FF9380910B028F5F66
:1004500080930B02833008F442C010920B02D091BB
:10046000780010917900C0910A028091E20D8823F2
:10047000E1F18C2FC83060F4EC2FF0E0EE0FFF1F9D
:10048000E253F24F13702D2F30E0312B3183208354
:100490008F5F883038F580930A0280917C00807EDF
:1004A00080937C0090917C0080910A02892B80933C
:1004B0007C00FF91EF91DF91CF91BF91AF919F9120
:1004C0008F917F916F915F914F913F912F911F91EC
:1004D0000F900BBE0F900FBE0F901F9018958111BB
:1004E000E8CFBDCF10920A02D8CF0E942B360E94CF
:1004F0007B35FC0180818230D1F08DEC9CECACEC42
:10050000BFE320EC20937C0010927B002FEE209321
:100510007A008093DE0D9093DF0DA093E00DB093F1
:10052000E10D81E08093E20D80910A02A3CF80E08B
:1005300090E0A0EABFE3E5CF6830710540F4660FB4
:10054000771FFC01E60FF71F80819181089580E0FD
:1005500090E00895CF93DF9368307105D8F4FB01E4
:10056000EC01EE0FFF1FEC0FFD1F6081718180E039
:1005700090E00E9407C1288939894A895B890E94D5
:1005800020C220E030E040E85AE30E9420C2DF9120
:10059000CF91089560E070E0CB01DF91CF91089595
:1005A0008091E20D882319F08EEC9DE008950E9461
:1005B0002B360E947B35FC0180818230D1F08DEC9E
:1005C0009CECACECBFE320EC20937C0010927B0011
:1005D0002FEE20937A008093DE0D9093DF0DA09391
:1005E000E00DB093E10D81E08093E20D8EEC9DE093
:1005F000089580E090E0A0EABFE3E5CFDA01149629
:10060000ED91FC911597309739F0AB01BC0116962E
:100610008D919C911797099408956115710529F0A2
:1006200021E030E0DB012D933C93DA01ED91FC9168
:100630001197309731F0682F12968D919C911397F6
:10064000099580E090E0089508950895089508952B
:100650000895089508950895DC01ED91FC910480BA
:10066000F581E02D09940C9470550C94D0540C94A1
:10067000EA5BCF93DF9300D0CDB7DEB79E012F5F4B
:100680003F4F08960E9420A20F900F90DF91CF91CC
:1006900008950F931F9300E010E020E030E040E069
:1006A00050E008960E94CA9E1F910F910895809174
:1006B000140280FD12C00E94D33240E050E060E09E
:1006C0000E943E32809114029091150201969093FF
:1006D00015028093140281E008950E94D3324FEFF7
:1006E00050E060E00E943E32EDCF2F923F924F9259
:1006F0005F926F927F928F929F92AF92BF92CF92B2
:10070000DF92EF92FF920F931F93CF93DF93CDB7BA
:10071000DEB7C657D6400FB6F894DEBF0FBECDBFCA
:100720006C015A01CE018B5C9C4F0E94C6C5CB5C0C
:10073000DB4FA882C553D440D601CD90DC9081E038
:1007400091E0FE01EB5CFC4FDE01AC5CBD4F019023
:100750000D920197E1F70E94BDA2950133278E010A
:100760000F58194FAE014C5C5D4FBC01CE018D514D
:100770009A4F0E9405A3CF58D94F88819981C157BC
:10078000D640892B09F10E94D3324FEF50E060E050
:100790000E943E32CA58D94F0FB6F894DEBF0FBE42
:1007A000CDBFDF91CF911F910F91FF90EF90DF9020
:1007B000CF90BF90AF909F908F907F906F905F9001
:1007C0004F903F902F9008958CE8FE01ED51FA4F25
:1007D000DE01A95ABA4F01900D928A95E1F7FE0108
:1007E00031964F0182E391E0DF01FC011D923197C8
:1007F000E9F781E0C855DF4F8883C85AD040C95A0D
:10080000DA4F488159816A817B81C755D540C755E8
:10081000DF4F488359836A837B83C95AD0408B83D7
:10082000C55ADA4F28813981CB55D5402130310561
:1008300009F480C02230310509F441C0232B09F4AA
:1008400087C022E030E03D832C838F8F83E090E0EF
:1008500099A388A39E012159394F5901CE018D5C7E
:100860009E4F3C010E94C0A275018E010D5C1D4F80
:1008700020E031E0A301BC01C4010E94C3A2D50164
:100880008D919C91892B09F07ECFCD5CDD4F488105
:10089000C353D24050E0D601ED91FC91309709F45A
:1008A00079CFB301D60112968D919C91139709953A
:1008B000F50180819181892B09F46CCF64CFC35AF3
:1008C000DA4F9881CD55D540992309F4BCCFC25A4F
:1008D000DA4F88819981AA81BB81CE55D540803C71
:1008E000E3E29E07E3E7AE07E0EDBE0709F44AC086
:1008F0008330F4E19F07FCEAAF07FDEDBF0709F481
:100900001DC18D399841A94FBF4B09F463C094E0D4
:1009100080E0FE01E159F94F5F019E012D5C3E4FE1
:10092000390122E030E03D832C8321E02F8F98A312
:1009300089A398CF22E030E03D832C838F8FDE01A6
:10094000A159B94F5D01FE01ED5CFE4F3F018ACF19
:100950008E8383E090E0A0E0B0E08B879C87AD873A
:10096000BE8781E090E0A0E0B0E08F8B988FA98FE8
:10097000BA8F82E090E0A0E0B0E08B8F9C8FAD8FCB
:10098000BE8F68CFCE59DA4F4880C256D540512C21
:100990000E9447BF5E01B1E9AB1AB9EFBB0A3E0145
:1009A000EDEC6E1AEEEF7E0A8501920147E555E007
:1009B0004C0F5D1F445F5F4FBC01C3010E9405A344
:1009C000D5012D913C912115310509F4F7C0922FE5
:1009D000832FA7CFCE59DA4F4880C256D540512C2D
:1009E0000E9444BF5E01F1E9AF1AF9EFBF0A3E0170
:1009F0002DEC621A2EEF720A8501920147E555E04F
:100A00004C0F5D1F445F5F4FBC01C3010E9405A3F3
:100A1000D5012D913C9121153105C9F61E01BAEC85
:100A20002B1ABBEF3B0A83E9F301D10101900D9230
:100A30008A95E1F780911602882309F442C0F101FA
:100A400085858823F1F14685578560897189F6018E
:100A500084819581A681B781481759076A077B076A
:100A600081F14483558366837783CD58D94F48837A
:100A7000C357D640CC58D94F5883C457D640CB58CB
:100A8000D94F6883C557D640CA58D94F7883C657BF
:100A9000D6400E943A49CD58D94F4881C357D640D5
:100AA000CC58D94F5881C457D640CB58D94F6881BC
:100AB000C557D640CA58D94F7881C657D6400E94EC
:100AC0007A48F10181859285A385B48580389105A6
:100AD000A105B10508F4E9C083E090E0FE01E75309
:100AE000FB4F2F01D2018D939C930E944DBF750146
:100AF0008E01095D1F4F20E830E0AE01485D5F4F79
:100B0000BC01C2010E94C3A2F501208131812115DF
:100B1000310509F05CCF83E090E09D838C8381E018
:100B20008AA3C25ADA4F88819981AA81BB81CE55A6
:100B3000D5408BA39CA3ADA3BEA394CECE59DA4FD0
:100B40004880C256D540512C0E9441BF5E0131E918
:100B5000A31A39EFB30A3E01ADEC6A1AAEEF7A0A76
:100B60008501920147E555E04C0F5D1F445F5F4FE3
:100B7000BC01C3010E9405A3F5012081318121152B
:100B8000310509F024CF8CE0E9E3F4E0DE01AA5C52
:100B9000BB4F01900D928A95E1F70E944ABF750103
:100BA0000854164020E830E0AE01485D5F4FBC01BC
:100BB000CE018A5C9B4F0E94C3A2A6CF2E01B7E351
:100BC0004B1ABBEF5B0A8EE8F301D20101900D9244
:100BD0008A95E1F780911602882309F442C0F20158
:100BE00080858823F1F14185528563857485F601FE
:100BF00084819581A681B781481759076A077B07C9
:100C000081F14483558366837783CD58D94F4883D8
:100C1000C357D640CC58D94F5883C457D640CB5829
:100C2000D94F6883C557D640CA58D94F7883C6571D
:100C3000D6400E943A49CD58D94F4881C357D64033
:100C4000CC58D94F5881C457D640CB58D94F68811A
:100C5000C557D640CA58D94F7881C657D6400E944A
:100C60007A48F20184819581A681B7818038910507
:100C7000A105B10508F444C083E090E0FE01EA5C00
:100C8000FB4F1F01D1018D939C930E9450BF7501B2
:100C90008E01095D1F4F20E830E0AE01485D5F4FD7
:100CA000BC01C1010E94C3A22FCF2E01F7E34F1A4E
:100CB000FBEF5F0AD10115968C91F201808783E0EA
:100CC00090E09287818748E050E0B101C2010E9424
:100CD000E6C5D20117961C920E943A49DC01ED91BB
:100CE000FC919101235F3F4FD10119966C9160589F
:100CF0000190F081E02DA201099580E090E0F2CE14
:100D00001E01FAEC2F1AFBEF3F0A88E0E5E4F4E05D
:100D1000D10101900D928A95E1F782E090E0D10136
:100D20001A969C938E931997F201808118968C9352
:100D30000E943A49DC01ED91FC919201285F3F4FFE
:100D4000D20114966C9160580190F081E02DA101C0
:100D5000099580E090E096CF4115510509F408957A
:100D60000C947503E1E6F0E080E8808310827894CB
:100D70000E94D33240E050E86FEF0E943E32089567
:100D8000CF92DF92EF92FF92CF93DF9300D000D00B
:100D900000D0CDB7DEB71E821D820E942B360E9486
:100DA000C135FC01C080D180E280F380F1E0CF1634
:100DB000D104F2E0EF06F10408F06EC0C114D104D2
:100DC000E104F10409F42DC08D819E8140E050E0E2
:100DD000BA016BBFFA0127919227092E0294202DA8
:100DE0002F702927392F3025330F307E2327302DC0
:100DF0003927307F3695092E000C331F969596952E
:100E000096959F7193279827822F4F5F5F4F6F4F63
:100E10007F4F4C155D056E057F0509F0DACF9E8387
:100E20008D830E942B360E94A835FC0120813181E0
:100E30008D819E812817390719F10E94D3324FEF17
:100E400050E060E00E943E320E942B3622E030E00B
:100E5000AE014B5F5F4F66E274E00E94EE35809119
:100E60001602811129C026960FB6F894DEBF0FBE78
:100E7000CDBFDF91CF91FF90EF90DF90CF9008959D
:100E800080911602882381F00E94D3324FEF5FEFEA
:100E90006FEF0E943E32E7CF0E94D3324FEF50E017
:100EA00060E00E943E32DFCF0E94D33240E05FEF2D
:100EB0006FEF0E943E32D7CF87E593E09A83898314
:100EC0001C821B820E948B4B2AEF30E040E050E0F6
:100ED000BE016F5F7F4F0E949B49C5CFCF92DF92CB
:100EE000EF92FF920F931F93CF93DF93CDB7DEB7AF
:100EF000C159D1090FB6F894DEBF0FBECDBF8C012A
:100F00007A01DC018C918823C1F1FE0131966F01D9
:100F100086E8DF011D928A95E9F741385105E8F529
:100F2000CE0107960E94C6C5EE82F80184858983AA
:100F300085859685A785B0898A839B83AC83BD838D
:100F40008BE03196DE01A957BF4F01900D928A9533
:100F5000E1F781E8C157DF4F8883CF58D0400E9426
:100F60003A49DC01ED91FC910190F081E02D960170
:100F7000AE0149575F4F60E00995CF56DF4F0FB67E
:100F8000F894DEBF0FBECDBFDF91CF911F910F91BF
:100F9000FF90EF90DF90CF9008950E94D3324FEFF3
:100FA00050E060E00E943E32E8CF0C946E07CF9391
:100FB000DF93CDB7DEB7CF5CD5410FB6F894DEBF77
:100FC0000FBECDBF0E94B2060E943A490E94D002D5
:100FD0000E94227D0E94FE790E94FB7D0E94C00635
:100FE00020E034E843E050E061E070E0CE018E5A4A
:100FF0009C4E0E940B31CE018E5A9C4E0E94843131
:101000001A8219821C821B821E821D8218861F82F0
:101010001D861C861F861E86CE0109960E94459E4F
:101020008E010F5F1F4FA8016EEF72E0CE0109968F
:101030000E949A9E98014DE053E060E070E0CE017E
:1010400009960E94A39EC45ADA4E19830883CC5590
:10105000D54189E493E0C65ADA4E99838883CA550C
:10106000D54122E533E12C0F3D1F3C832B838CE2DD
:1010700093E09A8389833093F50E2093F40E1093B6
:10108000F30D0093F20DCE018E539A4EDC011496AF
:101090001D921D921D921C92179713961C930E93EE
:1010A000129729E333E02D933C93FE01E253FA4E6D
:1010B00091838083F887EF832CEA36E03E832D838B
:1010C000C759DA4E19821882C956D541C559DA4E28
:1010D00019821882CB56D541C359DA4E198218822B
:1010E000CD56D541C159DA4E19821882CF56D54115
:1010F000CF58DA4E19821882C157D541CD58DA4EF1
:1011000019821882C357D541CB58DA4E19821882FA
:10111000C557D541C958DA4E19821882C757D541EB
:10112000C758DA4E1882C957D541C658DA4E1882C8
:10113000CA57D541C558DA4E1882CB57D541C45548
:10114000DA4E1882CC5AD54104551A4ED8011D9258
:1011500028E0E5E4F4E001900D922A95E1F7F8012A
:10116000118622E030E033872287148629E635E1B4
:101170002C0F3D1F328B218B948B838B3093F10D81
:101180002093F00D9093EF0D8093EE0D1093ED0DE5
:101190000093EC0D0E943A49DC01ED91FC91048032
:1011A000F581E02D22EF38E2C653DA4E39832883E9
:1011B000CA5CD541C453DA4E19830883CC5CD5414F
:1011C000BE0166537A4E0995C559DA4E19830883D4
:1011D000CB56D54185ED97E0C759DA4E9983888380
:1011E000C956D5410E94D8557C010E946D55C15900
:1011F000DA4E19830883CF56D54125EF3EE0C35917
:10120000DA4E39832883CD56D541CD58DA4E9983AD
:101210008883C357D54185E393E0CF58DA4E99834D
:101220008883C157D541C958DA4EF982E882C75739
:10123000D54183E393E0CB58DA4E99838883C55731
:10124000D541C653DA4E39832883CA5CD541C4538D
:10125000DA4E19830883CC5CD5410E948E54AE01CE
:1012600046535A4E60E070E00E94E253CF58DA4E87
:1012700088819981C157D541C653DA4E99838883B5
:10128000CA5CD541CD58DA4E88819981C357D54182
:10129000C453DA4E99838883CC5CD5410E948E5426
:1012A000AE0146535A4E61E070E00E94E253CB58C3
:1012B000DA4E88819981C557D541C653DA4E998354
:1012C0008883CA5CD541C958DA4E88819981C7574D
:1012D000D541C453DA4E99838883CC5CD5410E94B2
:1012E0008E54AE0146535A4E62E070E00E94E253C3
:1012F00080911602811125C00E94DC6027E333E053
:10130000C653DA4E39832883CA5CD541C453DA4EBA
:1013100099838883CC5CD5410E948B4B2AE030E0D6
:1013200040E050E0BE0166537A4E0E949B4909C0DE
:101330000E948B4B0E94AF4A80911602882309F4C9
:101340006EC004E110E0CA5ADC4E28813981C655CE
:10135000D341C85ADC4E88819981C855D34128179A
:10136000390709F443C02FB7F894CA5ADC4E4881B4
:101370005981C655D341C85ADC4E88819981C855D8
:10138000D3414817590709F44FC0CA5ADC4EE881C7
:10139000F981C655D341F17082E593E18C0F9D1F11
:1013A000E80FF91F34966481CA5ADC4E888199810E
:1013B000C655D34101969370CA5ADC4E99838883EF
:1013C000C655D3412FBFC65ADA4EE881F981CA55B6
:1013D000D541309739F0C45ADA4E88819981CC557D
:1013E000D54109950150110909F0ADCF0E943A4944
:1013F000DC01ED91FC910680F781E02D099580914B
:101400001602811195CF0E9457520E94E24D0E9410
:101410008B4B0E94AF4A80911602811192CF0E949D
:101420008E540E9412548DCF6FEFCCCF6F927F926B
:101430008F929F92AF92BF92CF92DF92EF92FF92E4
:101440000F931F93CF93DF93CDB7DEB7C554D24030
:101450000FB6F894DEBF0FBECDBF3C01CA5CDD4FB6
:101460008882C653D240C95CDD4F9882C753D240B0
:10147000C85CDD4FA882C853D240C75CDD4FB8823C
:10148000C953D240C65CDD4FC882CA53D240C55C46
:10149000DD4FD882CB53D240C45CDD4FE882CC53C1
:1014A000D240C35CDD4FF882CD53D240C25CDD4FE9
:1014B0000883CE53D240C15CDD4F1883CF53D24056
:1014C000C05CDD4F2883C054D240CF5BDD4F3883F2
:1014D000C154D240CE5BDD4F4883C254D240CD5B75
:1014E000DD4F5883C354D240CC5BDD4F6883C45476
:1014F000D240CB5BDD4F7883C554D2408E010F5F65
:101500001F4F680182E391E0D801FC011D923197E1
:10151000E9F781E090E09A838983C355DF4F8883A0
:10152000CD5AD040E9E6F4E020E030E0A901A5E69C
:10153000B0E00E9473BF21917B018C01E20EF11C8F
:10154000011D111DA801970104E0EB37F00779F7A1
:10155000C255DF4F288339834A835B83CE5AD040FC
:10156000CC5CDD4F19821882C453D2400E9438BF30
:101570009E012C5C3D4F79018E010E541F4F20E8D7
:1015800030E0AE014D545F4FBC01CE018A5C9D4FEF
:101590000E94C3A2CC5CDD4F88819981C453D240A4
:1015A0000097B1F0CB5BDD4F0FB6F894DEBF0FBEF6
:1015B000CDBFDF91CF911F910F91FF90EF90DF9002
:1015C000CF90BF90AF909F908F907F906F90089535
:1015D0000E94C0A20F571E4F20E031E0AE014D5CCB
:1015E0005E4FBC01C6010E94C3A2CC5CDD4F888166
:1015F0009981C453D2400097A9F6CD5CDD4F488154
:10160000C353D24050E0D301ED91FC911197309734
:1016100049F2BE016D5C7E4F12968D919C9113979D
:101620000995CC5CDD4F88819981C453D240BACFF3
:101630002F923F924F925F926F927F928F929F92E2
:10164000AF92BF92CF92DF92EF92FF920F931F93D0
:10165000CF93DF93CDB7DEB7A4970FB6F894DEBF74
:101660000FBECDBF1C010E94FB7D0E94537D6D8F7C
:101670007E8F8F8F98A3698B7A8B8B8B9C8B0E942C
:10168000FB7D0E948B7D2B013C016D8B7E8B8F8BB4
:10169000988F0E94FB7D0E94C37D69A37AA38BA3D0
:1016A0009CA3F101FD96C080D180E280F380D1013E
:1016B000D1962D913D914D915C91D49769897A890C
:1016C0008B899C890E94EDBF4B015C0120E030E0DA
:1016D000A9010E945AC087FD5FC0A5019401C701FE
:1016E000B6010E945AC087FD66C0F10125A936A93E
:1016F00047A950AD6D897E898F89988D0E94EDBF75
:101700004B015C0120E030E0A9010E945AC087FD36
:1017100048C0A5019401C701B6010E945AC087FDC7
:101720004AC0D101D9962D913D914D915C91DC97A4
:1017300069A17AA18BA19CA10E94EDBF4B015C0124
:1017400020E030E0A9010E945AC087FD2FC0A70108
:101750009601C501B4010E941BC2181664F1F10183
:10176000ED5BFF4F8081A4960FB6F894DEBF0FBEED
:10177000CDBFDF91CF911F910F91FF90EF90DF9040
:10178000CF90BF90AF909F908F907F906F905F9021
:101790004F903F902F900895B7FAB094B7F8B09457
:1017A0009CCFB7FAB094B7F8B094B3CFB7FAB0946F
:1017B000B7F8B094CCCF0E948B4B809125029091CA
:1017C0002602A0912702B091280289839A83AB83D5
:1017D000BC838D8D9E8DAF8DB8A18D839E83AF838D
:1017E000B88749865A866B867C8689A19AA1ABA167
:1017F000BCA18D879E87AF87B88B1F921F9289806F
:101800009A80AB80BC80CD80DE80EF80F884098533
:101810001A852B853C854D855E856F857889C1014C
:101820000E94160A8D8D9E8DAF8DB8A1F10181ABFE
:1018300092ABA3ABB4AB45AA56AA67AA70AE89A176
:101840009AA1ABA1BCA181AF92AFA3AFB4AF0F90EF
:101850000F9085CFAF92BF92CF92DF92EF92FF921F
:101860000F931F93CF93DF93CDB7DEB7CD53D24005
:101870000FB6F894DEBF0FBECDBF5C01CA5CDD4F72
:101880000883C653D240C95CDD4F1883C753D2408A
:10189000C85CDD4F2883C853D240C75CDD4F388316
:1018A000C953D240C65CDD4F4883CA53D240C55CA1
:1018B000DD4F5883CB53D240C45CDD4F6883CC539B
:1018C000D240C35CDD4F7883CD53D2409E012F5F61
:1018D0003F4F690182E391E0D901FC011D923197EC
:1018E000E9F781E090E09A838983C355DF4F8883CD
:1018F000CD5AD0408AE299E3ADE9BEE3C255DF4F4D
:1019000088839983AA83BB83CE5AD040CC5CDD4FB9
:1019100019821882C453D2400E9432BFBC019E017A
:101920002C5C3D4F79018E010E541F4F20E830E0B2
:10193000AE014D545F4FCE018A5C9D4F0E94C3A201
:10194000CC5CDD4F88819981C453D240009791F0DF
:10195000C35CDD4F0FB6F894DEBF0FBECDBFDF9185
:10196000CF911F910F91FF90EF90DF90CF90BF909C
:10197000AF9008950E94C0A20F571E4F20E031E0A3
:10198000AE014D5C5E4FBC01C6010E94C3A2CC5C9F
:10199000DD4F88819981C453D2400097C9F6CD5C50
:1019A000DD4F4881C353D24050E0D501ED91FC9109
:1019B0001197309769F2BE016D5C7E4F12968D9142
:1019C0009C9113970995CC5CDD4F88819981C45314
:1019D000D240BECFCF92DF92EF92FF920F931F9330
:1019E000CF93DF93CDB7DEB729970FB6F894DEBF5C
:1019F0000FBECDBF6C0169870E948B4B8091250281
:101A000090912602A0912702B0912802082F898385
:101A10009A83AB83BC8392E0492F6985262F30E0FF
:101A200038872F83E12CF12C1A812B813C8150E0E7
:101A30007885C6010E942A0C29960FB6F894DEBF5D
:101A40000FBECDBFDF91CF911F910F91FF90EF900F
:101A5000DF90CF900895CF92DF92EF92FF920F9395
:101A60001F93CF93DF93CDB7DEB729970FB6F894C6
:101A7000DEBF0FBECDBF6C0169870E948B4B80918A
:101A8000250290912602A0912702B0912802082FEA
:101A900089839A83AB83BC8391E0492F6985262F84
:101AA00030E038872F83E12CF12C1A812B813C8187
:101AB00050E07885C6010E942A0C29960FB6F8944A
:101AC000DEBF0FBECDBFDF91CF911F910F91FF9071
:101AD000EF90DF90CF900895AF92BF92CF92DF92B8
:101AE000EF92FF920F931F93CF93DF93CDB7DEB7A3
:101AF000C953D2400FB6F894DEBF0FBECDBF5C0114
:101B0000CA5CDD4F488359836A837B83C653D240C6
:101B10008E010F5F1F4F680182E391E0D801FC0145
:101B20001D923197E9F781E090E09A838983C3554C
:101B3000DF4F8883CD5AD040ECE7F4E020E030E07E
:101B4000A901A5E6B0E00E9473BF21917B018C0141
:101B5000E20EF11C011D111DA801970104E0E039FE
:101B6000F00779F7C255DF4F288339834A835B83B7
:101B7000CE5AD040CC5CDD4F19821882C453D2407B
:101B80000E943EBF9E012C5C3D4F79018E010E5498
:101B90001F4F20E830E0AE014D545F4FBC01CE0135
:101BA0008A5C9D4F0E94C3A2CC5CDD4F88819981E5
:101BB000C453D240009791F0C75CDD4F0FB6F89444
:101BC000DEBF0FBECDBFDF91CF911F910F91FF9070
:101BD000EF90DF90CF90BF90AF9008950E94C0A289
:101BE0000F571E4F20E031E0AE014D5C5E4FBC014F
:101BF000C6010E94C3A2CC5CDD4F88819981C45389
:101C0000D2400097C9F6CD5CDD4F4881C353D24026
:101C100050E0D501ED91FC911197309769F2BE012A
:101C20006D5C7E4F12968D919C9113970995CC5CBB
:101C3000DD4F88819981C453D240BECFCF93DF93CB
:101C4000FC012081211104C080E0DF91CF91089533
:101C5000EC010E948B4B409125025091260260912D
:101C600027027091280220E030E089899A890E9439
:101C70006C0D1882809116028111E6CF0E94D3323A
:101C8000FC018081882301F30E94D33240E05FEFA2
:101C90006FEF0E943E32D8CFCF92DF92EF92FF9249
:101CA0000F931F93CF93DF93CDB7DEB728970FB66F
:101CB000F894DEBF0FBECDBF6C01662309F441C0AE
:101CC0000E948B4B8091250290912602A0912702C1
:101CD000B091280240910C0250910D0260910E02C9
:101CE00070910F02841B950BA60BB70B843F91409C
:101CF000A105B10508F453C00E948B4B80912502C9
:101D000090912602A0912702B091280280930C02A4
:101D100090930D02A0930E02B0930F020E948B4B82
:101D20008091250290912602A0912702B09128026D
:101D300089839A83AB83BC831E821D8291E080E0FD
:101D400012C00E948B4B8091250290912602A09197
:101D50002702B091280289839A83AB83BC831E82B9
:101D60001D8290E080E0692FE12CF12C09811A811D
:101D70002B813C814D815E81782FC6010E942A0C07
:101D800028960FB6F894DEBF0FBECDBFDF91CF917E
:101D90001F910F91FF90EF90DF90CF9008950E94D8
:101DA0008B4B409125025091260260912702709141
:101DB000280220E030E0C6010E946C0DE091EC0D9D
:101DC000F091ED0D1082809116028111D9CF0E9401
:101DD000D332FC018081882399F20E94D33240E003
:101DE0005FEF6FEF0E943E32CBCF0F931F93CF93E5
:101DF000DF9300D000D0CDB7DEB78C01662309F4A5
:101E000053C00E94FE970E94947F0E948B4B80914A
:101E1000250290912602A0912702B09128024091BC
:101E20001002509111026091120270911302841BF2
:101E3000950BA60BB70B843F9140A105B10520F48B
:101E4000F8018081811148C00E948B4B809125024E
:101E500090912602A0912702B0912802809310024F
:101E600090931102A0931202B09313028EE19EE0B0
:101E70009A8389831C830B830E948B4B28E037E075
:101E800040E050E0BE016F5F7F4F0E949B499093FE
:101E9000EB0D8093EA0D0F900F900F900F90DF9154
:101EA000CF911F910F9108950E94FE970E94749701
:101EB0000091EA0D1091EB0D0E948B4BB8010E942E
:101EC000464A0E94FE7924E630E040E050E06CE5AE
:101ED00073E40E94CF78DFCF0E948B4B40912502A4
:101EE00050912602609127027091280220E030E094
:101EF000F801818992890E946C0DF801108280910D
:101F000016028111A1CF0E94D332FC018081882367
:101F100009F49ACF0E94D33240E05FEF6FEF0E9446
:101F20003E3292CFAF92BF92CF92DF92EF92FF926A
:101F30000F931F93CF93DF93CDB7DEB7C154D24039
:101F40000FB6F894DEBF0FBECDBF5C01CA5CDD4F9B
:101F5000C882C653D240C95CDD4FD882C753D24035
:101F6000C85CDD4FE882C853D240C75CDD4FF882C1
:101F7000C953D240C65CDD4F0883CA53D240C55C0A
:101F8000DD4F1883CB53D240C45CDD4F2883CC5344
:101F9000D240C35CDD4F3883CD53D240C25CDD4FAD
:101FA0004883CE53D240C15CDD4F5883CF53D240DB
:101FB000C05CDD4F6883C054D240CF5BDD4F788377
:101FC000C154D2409E012F5F3F4F690182E391E0EF
:101FD000D901FC011D923197E9F781E090E09A83E5
:101FE0008983C355DF4F8883CD5AD04082E19DE974
:101FF000AAE3B9EFC255DF4F88839983AA83BB83D5
:10200000CE5AD040CC5CDD4F19821882C453D240E6
:102010000E9435BF9E012C5C3D4F79018E010E540C
:102020001F4F20E830E0AE014D545F4FBC01CE01A0
:102030008A5C9D4F0E94C3A2CC5CDD4F8881998150
:10204000C453D240009791F0CF5BDD4F0FB6F894A8
:10205000DEBF0FBECDBFDF91CF911F910F91FF90DB
:10206000EF90DF90CF90BF90AF9008950E94C0A2F4
:102070000F571E4F20E031E0AE014D5C5E4FBC01BA
:10208000C6010E94C3A2CC5CDD4F88819981C453F4
:10209000D2400097C9F6CD5CDD4F4881C353D24092
:1020A00050E0D501ED91FC911197309769F2BE0196
:1020B0006D5C7E4F12968D919C9113970995CC5C27
:1020C000DD4F88819981C453D240BECF4F925F9239
:1020D0006F927F928F929F92AF92BF92CF92DF9238
:1020E000EF92FF920F931F93CF93DF93CDB7DEB79D
:1020F0002C970FB6F894DEBF0FBECDBF4C010E94E7
:10210000575262E070E00E94774D762E472E582E8F
:10211000692EF40125A536A547A550A90E94EDBF5B
:102120006B017C0120E030E0A9010E945AC087FDCC
:1021300059C0A7019601F40161A172A183A194A1E4
:102140000E945AC087FF35C00E948B4B80912502A8
:1021500090912602A0912702B0912802C82E89836F
:102160009A83AB83BC8382E0082F8D831E821F82FB
:102170001886472D872D942DA52DB62D89879A87F2
:10218000AB87BC87A12CB12CDA80EB80FC8010E0FF
:1021900020E030E05A856B857C85C4010E94920F57
:1021A000872D942DA52DB62DF40185A796A7A7A759
:1021B000B0ABF40182892C960FB6F894DEBF0FBE47
:1021C000CDBFDF91CF911F910F91FF90EF90DF90E6
:1021D000CF90BF90AF909F908F907F906F905F90C7
:1021E0004F900895F7FAF094F7F8F094A2CF4F9239
:1021F0005F926F927F928F929F92AF92BF92CF9297
:10220000DF92EF92FF920F931F93CF93DF93CDB79F
:10221000DEB72C970FB6F894DEBF0FBECDBF4C01D2
:102220000E94575261E070E00E94774D762E472E53
:10223000582E692EF40121A532A543A554A50E946C
:10224000EDBF6B017C0120E030E0A9010E945AC083
:1022500087FD59C0A7019601F401658D768D878DA4
:1022600090A10E945AC087FF35C00E948B4B80917D
:10227000250290912602A0912702B0912802C82E33
:1022800089839A83AB83BC8381E0082F8D831E8270
:102290001F821886472D872D942DA52DB62D898751
:1022A0009A87AB87BC87A12CB12CDA80EB80FC80AD
:1022B00010E020E030E05A856B857C85C4010E94E7
:1022C000920F872D942DA52DB62DF40181A792A7ED
:1022D000A3A7B4A7F40181892C960FB6F894DEBFAA
:1022E0000FBECDBFDF91CF911F910F91FF90EF9067
:1022F000DF90CF90BF90AF909F908F907F906F9026
:102300005F904F900895F7FAF094F7F8F094A2CF09
:102310004F925F926F927F928F929F92AF92BF92F5
:10232000CF92DF92EF92FF920F931F93CF93DF93A1
:10233000CDB7DEB72C970FB6F894DEBF0FBECDBF7A
:102340004C010E94575260E070E00E94774D762E5B
:10235000472E582E692EF40125A136A147A150A57C
:102360000E94EDBF6B017C0120E030E0A9010E94DA
:102370005AC087FD58C0A7019601F401618D728D86
:10238000838D948D0E945AC087FF34C00E948B4B6E
:102390008091250290912602A0912702B0912802F7
:1023A000C82E89839A83AB83BC831D821E821F82C1
:1023B0001886472D872D942DA52DB62D89879A87B0
:1023C000AB87BC87A12CB12CDA80EB80FC8000E0CD
:1023D0001E812F8138855A856B857C85C4010E94BA
:1023E000920F872D942DA52DB62DF40185A396A3CC
:1023F000A7A3B0A7F40180892C960FB6F894DEBF8E
:102400000FBECDBFDF91CF911F910F91FF90EF9045
:10241000DF90CF90BF90AF909F908F907F906F9004
:102420005F904F900895F7FAF094F7F8F094A3CFE7
:10243000AF92BF92CF92DF92EF92FF920F931F93D2
:10244000CF93DF93CDB7DEB7CF53D2400FB6F8941A
:10245000DEBF0FBECDBF5C01CA5CDD4FE882C65354
:10246000D240C95CDD4FF882C753D240C85CDD4F13
:102470000883C853D240C75CDD4F1883C953D2408C
:10248000C65CDD4F2883CA53D240C55CDD4F38831C
:10249000CB53D240C45CDD4F4883CC53D240C35CA5
:1024A000DD4F5883CD53D240C25CDD4F6883CE539D
:1024B000D240C15CDD4F7883CF53D2409E012F5F65
:1024C0003F4F690182E391E0D901FC011D923197F0
:1024D000E9F781E090E09A838983C355DF4F8883D1
:1024E000CD5AD04082EE9EE7ADE7B3EEC255DF4F46
:1024F00088839983AA83BB83CE5AD040CC5CDD4FBE
:1025000019821882C453D2400E943BBFBC019E0175
:102510002C5C3D4F79018E010E541F4F20E830E0B6
:10252000AE014D545F4FCE018A5C9D4F0E94C3A205
:10253000CC5CDD4F88819981C453D240009791F0E3
:10254000C15CDD4F0FB6F894DEBF0FBECDBFDF918B
:10255000CF911F910F91FF90EF90DF90CF90BF90A0
:10256000AF9008950E94C0A20F571E4F20E031E0A7
:10257000AE014D5C5E4FBC01C6010E94C3A2CC5CA3
:10258000DD4F88819981C453D2400097C9F6CD5C54
:10259000DD4F4881C353D24050E0D501ED91FC910D
:1025A0001197309769F2BE016D5C7E4F12968D9146
:1025B0009C9113970995CC5CDD4F88819981C45318
:1025C000D240BECFAF92BF92CF92DF92EF92FF92F6
:1025D0000F931F93CF93DF93CDB7DEB72C970FB632
:1025E000F894DEBF0FBECDBF5C018B014B875C87CB
:1025F0000E948B4B8091250290912602A091270288
:10260000B0912802E82E89839A83AB83BC83012E84
:10261000000C220B330B802F0D831E832F833887F2
:102620004B85642F5C855A87C12CD12CFA800B8195
:102630001C81282F3E814F8158857A85C5010E94D3
:1026400018122C960FB6F894DEBF0FBECDBFDF91E7
:10265000CF911F910F91FF90EF90DF90CF90BF909F
:10266000AF9008952F923F924F925F926F927F9218
:102670008F929F92AF92BF92CF92DF92EF92FF9292
:102680000F931F93CF93DF93CDB7DEB7CE5ED540C8
:102690000FB6F894DEBF0FBECDBF5C014B01270122
:1026A0001601243860EA360762EC460763E65607EF
:1026B00011F40C94D91D08F476C0253EA5EA3A071A
:1026C000A9EE4A07ABEB5A0709F4E8C408F0D5C0F5
:1026D0002B3FE3E43E07E9E84E07E5E85E0711F427
:1026E0000C94161E08F0D2C12B3868EC360764E152
:1026F00046076CE6560711F40C94512010F40C9424
:10270000D41C243A9AE1390791EB49079CE6590712
:1027100009F465C3263F3548434E5C4611F00C94DE
:10272000451DD801CD907D01D12C0E9460BE810154
:102730009601A701BC01C5010E9405A3F10180819A
:102740009181892B09F0EEC20E946E7760E070E003
:102750000E943877092E000CAA0BBB0B8A839B833F
:10276000AC83BD830E946E7761E070E00E94387791
:10277000092E000CAA0BBB0B8E839F83A887B987F9
:102780000E946E7762E070E00E943877092E000C9C
:10279000AA0BBB0B8A879B87AC87BD8783E08983A5
:1027A0000E94D8BE66C1243D8DE6380788E84807F8
:1027B0008AE3580711F40C947E1E08F0C3C0293830
:1027C000AAE03A07A1E44A07ABE15A0711F40C94D6
:1027D000C81E08F006C22631E9E23E07E2E24E07D3
:1027E000E7E05E0711F40C94812008F4CBC5253195
:1027F0007DED370776ED47077BE0570709F4D5C233
:10280000293D3C40424B5F4011F00C94451DD801DE
:10281000CD907D01D12C0E946FBE81019601A70150
:10282000BC01C5010E9405A3F10180819181892B22
:1028300009F078C20E946E7760E070E00E94CA766C
:102840006A837B838C839D830E946E7761E070E056
:102850000E94CA766E837F83888799870E946E77ED
:1028600062E070E00E94CA766A877B878C879D87CA
:1028700083E089830E94E7BEFCC0203880E13807EE
:1028800087E948078EED580711F40C944F1E08F4A1
:10289000B5C0243B71E2370777EE4707570711F4BD
:1028A0000C94A21D08F01CC2243995EC39079DEF49
:1028B00049079FED590709F418C325393348474C98
:1028C000524E11F00C94451DF801C1907F01D12C9E
:1028D0000E9487BE81019601A701BC01C5010E942B
:1028E00005A3D1018D919C91892B09F01BC2620136
:1028F000BFEFCB1ADB0A85E8F501DE01A75EBD4F0D
:1029000001900D928A95E1F7F501108110FF02C048
:102910000C94C626E12CF12C11FF02C00C948F26DA
:1029200012FF02C00C94582619820E94FFBE71014A
:10293000820120E830E0A601BC01CE0101960E9490
:10294000C3A2F0C1283E60EF360768EC460761E598
:10295000560711F40C94541F08F0E9C0263C88E295
:10296000380780EF480781E4580711F40C94BB1F27
:1029700008F461C42F34B3EE3B07B1EE4B07B2E469
:102980005B0709F4F8C2273D3F474A43574411F01B
:102990000C94451DF801C1907F01D12C0E948DBE81
:1029A00081019601A701BC01C5010E9405A3D101C7
:1029B0008D919C91892B09F0B5C16201BFEFCB1AB3
:1029C000DB0A85E8F501DE01A15FBE4F01900D92A3
:1029D0008A95E1F7F501108110FF02C00C942927B8
:1029E000E12CF12C11FF02C00C94F22612FF02C060
:1029F0000C94552719820E9405BF99CF2835A5ED63
:102A00003A07A3E84A07ADEB5A0711F40C94851F67
:102A100010F40C94091D2135F4E03F07FBE84F0743
:102A2000F6EC5F0709F433C2233034414C4A5D4D64
:102A300011F00C94451DD801CD907D01D12C0E9440
:102A40009FBE81019601A701BC01C5010E9405A39B
:102A5000F10180819181892B09F064C18CE0EDE462
:102A6000F4E0DE01119601900D928A95E1F70E9443
:102A700017BFA2014F5F5F4F7101820120E830E074
:102A8000BC01CE0101960E94C3A24CC12F3DB7EA02
:102A90003B07BAE04B07B6E95B0711F40C94222020
:102AA00008F48DC3213369E7360768E4460768EA0E
:102AB000560709F4C5C22F36354B4849504B09F02B
:102AC000E4C7D801CD907D01D12C0E9472BE810156
:102AD0009601A701BC01C5010E9405A3F1018081F7
:102AE0009181892B09F01EC10E946E7760E070E031
:102AF0000E94F0766A837B838C839D830E946E772D
:102B000061E070E00E94F0766E837F83888799870A
:102B10000E946E7762E070E00E94F0766A877B87A1
:102B20008C879D8783E089830E94EABEA2CF2F31E4
:102B3000FEE83F07FFEB4F07FAE55F0709F4ABC775
:102B400008F4BFC3283180E9380789E9480783E6DC
:102B5000580709F4D9C22138304A424C534609F08B
:102B600094C7F801C1907F01D12C0E9481BE8101E0
:102B70009601A701BC01C5010E9405A3D1018D9159
:102B80009C91892B09F0CEC06201BFEFCB1ADB0A02
:102B9000FE01ED5DFC4FC454DA4FF983E883CC5B52
:102BA000D54085E8F501C454DA4FA881B981CC5BE2
:102BB000D54001900D928A95E1F7D5011C9110FF47
:102BC00002C00C948422E12CF12C11FF02C00C9461
:102BD0004D2212FF02C00C94142219820E94F9BEE9
:102BE000A6CE211591EC390794EF490791E25907D8
:102BF00011F40C94F31F08F4A8C2213BECE33E0748
:102C0000E1EF4E07E1E35E0709F4EDC1253D3B41ED
:102C10004744524309F039C7D801CD907D01D12CEA
:102C20000E9457BE81019601A701BC01C5010E9407
:102C300005A3F10180819181892B09F073C06201A4
:102C4000FFEFCF1ADF0AD5018C9181110C94B521C9
:102C5000D40114968D919C9115979A838983169629
:102C60008D919C9117979C838B830E948E54FE01BB
:102C700031965F01AF0160E070E00E94E253D40141
:102C800018968D919C9119979A8389831A968D91A4
:102C90009C911B979C838B830E948E54A50161E0BD
:102CA00070E00E94E253F401848595859A838983BC
:102CB000868597859C838B830E948E54A50162E054
:102CC00070E00E94E25319820E94CFBE710182011E
:102CD00020E830E0A601BC01C5010E94C3A222C0C9
:102CE000283FBFE23B07BAEE4B07B8EE5B07A1F106
:102CF000283A3747464B5D4F09F0C7C6F801C190E7
:102D00007F01D12C0E9493BE81019601A701BC01D5
:102D1000C5010E9405A3D1018D919C91892B11F4CD
:102D20000C94AB20C251DA4F0FB6F894DEBF0FBE41
:102D3000CDBFDF91CF911F910F91FF90EF90DF906A
:102D4000CF90BF90AF909F908F907F906F905F904B
:102D50004F903F902F900895D801CD907D01D12CB8
:102D60000E94AEBE81019601A701BC01C5010E946F
:102D700005A3F10180819181892BA1F6D5011496DB
:102D8000DC90149715960C911597ED90FC900E948D
:102D90002B36302F2D2DAE014E5F5F4FB7010E94B5
:102DA000D635D9820E9426BF64CED801CD907D0150
:102DB000D12C0E949CBE81019601A701BC01C501D6
:102DC0000E9405A3F10180819181892B09F0AACF8E
:102DD00019821A821B821C820E9414BF4ACED8011B
:102DE000CD907D01D12C0E9499BE81019601A70151
:102DF000BC01C5010E9405A3F10180819181892B4D
:102E000009F090CF6201FFEFCF1ADF0A0E948B4BCF
:102E10008091250290912602A0912702B09128026C
:102E200089839A83AB83BC839E012F5F3F4F5901F7
:102E3000390100E010E088248394912C62E0E62EB2
:102E4000F12C0E94DC60B8010E944C5A813091053F
:102E500011F40C94EA2014F40C94D92082309105DA
:102E600011F40C94F120039729F424E030E0F301ED
:102E7000368325830F5F1F4F32E0630E711C0330D2
:102E80001105F9F683E08D830E9411BF1FCFF80171
:102E9000C1907F01D12C0E9490BE81019601A701B3
:102EA000BC01C5010E9405A3D1018D919C91892B84
:102EB00009F038CF0E9485580E94D00260E070E08F
:102EC0000E94AA0226E636E646E850E40E9420C2A6
:102ED00020E030E040EC5FE30E945FC069837A83CA
:102EE0008B839C830E9408BFC4CDF801C1907F01F1
:102EF000D12C0E944BBE81019601A701BC01C501E6
:102F00000E9405A3D1018D919C91892B09F00ACFD4
:102F1000F501C080D180E280F380A7016627772782
:102F20008D2C9E2CAF2CBB24C851DA4F4883C85E31
:102F3000D540C751DA4F5883C95ED540C551DA4FE5
:102F40006883CB5ED540C951DA4F7883C75ED540E0
:102F50000E94D332C851DA4F4881C85ED540582DFF
:102F60006C2D0E943E320E94D332DC011C921982E9
:102F70000E94C3BE7ECDD801CD907D01D12C0E9490
:102F8000A5BE81019601A701BC01C5010E9405A350
:102F9000F10180819181892B09F0C4CE6201FFEF9C
:102FA000CF1ADF0A0E9457527C0100E010E00E9415
:102FB000DC60B8010E94255A0E94DC6040E050E0CD
:102FC000B8010E94C4590F5F1F4F0330110579F7F4
:102FD000F701BD9686E0DF011D928A95E9F7198217
:102FE0000E941DBFA4CCD801CD907D01D12C0E94A0
:102FF0005DBE81019601A701BC01C5010E9405A328
:10300000F10180819181892B09F08CCE6201FFEF63
:10301000CF1ADF0AD5018C9181110C9404221A82F7
:1030200019821C821B820E94DC609E012F5F3F4F31
:103030005901B9010E943F5A19820E94D5BE46CE5D
:10304000D801CD907D01D12C0E9442BE8101960114
:10305000A701BC01C5010E9405A3F10180819181F6
:10306000892B09F05FCE0E94FB7D0E94537D69830E
:103070007A838B839C830E94FB7D0E948B7D6D8372
:103080007E838F8398870E94FB7D0E94C37D698722
:103090007A878B879C870E94BABEEBCCD801CD90F3
:1030A0007D01D12C0E9469BE81019601A701BC015E
:1030B000C5010E9405A3F10180819181892B09F04E
:1030C00031CE0E946E7760E070E00E94A4766A8341
:1030D0007B838C839D830E946E7761E070E00E9409
:1030E000A4766E837F83888799870E946E7762E0DB
:1030F00070E00E94A4766A877B878C879D8783E037
:1031000089830E94E1BEB5CCF801C1907F01D12C2A
:103110000E944EBE81019601A701BC01C5010E941B
:1031200005A3D1018D919C91892B09F0FBCD0E94C3
:10313000FE79FC0181819281A381B48189839A8384
:10314000AB83BC830E94C6BE94CC2A3E3A4E454314
:10315000504209F09AC4D801CD907D01D12C0E9433
:1031600045BE81019601A701BC01C5010E9405A3CE
:10317000F10180819181892B09F0D4CD6201FFEFAB
:10318000CF1ADF0A7E0122E0E20EF11C00E010E01F
:103190000E94D002B8010E949C02A0E0B0E0F701BA
:1031A00081939193A193B1937F010F5F1F4F0830DB
:1031B000110571F788E089830E94BDBEB8CB2B3B17
:1031C0003C464E4B5B4809F060C4D801CD907D0170
:1031D000D12C0E9475BE81019601A701BC01C501D9
:1031E0000E9405A3F10180819181892B09F09ACD7C
:1031F0000E946E7760E070E00E9416776A837B839E
:103200008C839D830E946E7761E070E00E94167748
:103210006E837F83888799870E946E7762E070E073
:103220000E9416776A877B878C879D8783E08983D6
:103230000E94EDBE1ECC2233394B4041514409F06F
:1032400024C4F801C1907F01D12C0E9484BE810169
:103250009601A701BC01C5010E9405A3D1018D9172
:103260009C91892B09F05ECD6201BFEFCB1ADB0A7E
:10327000FE01E256FD4FCC53DA4FF983E883C45C7C
:10328000D54085E8F501CC53DA4FA881B981C45CFB
:10329000D54001900D928A95E1F7D5011C9110FF60
:1032A00002C00C946E25E12CF12C11FF02C00C948D
:1032B000372512FF02C00C94A82319820E94FCBE7D
:1032C00036CB2F37344D4642534509F0DEC3D80183
:1032D000CD907D01D12C0E94B7BE81019601A7013E
:1032E000BC01C5010E9405A3F10180819181892B58
:1032F00009F018CD4201FFEF8F1A9F0A89E8F50106
:10330000DE01119601900D928A95E1F79E012657F4
:103310003F4F690159013FEFA31AB30AED80298598
:103320006981C651DA4F2883CA5ED540C551DA4F4C
:103330006883CB5ED5400E94227D8501C651DA4F5D
:103340002881CA5ED540AE01465F5F4FC551DA4F56
:103350006881CB5ED5400E94DF7C892BF9F60E9404
:10336000227D0E940E7D8D81D6018C930E942FBFFD
:103370007101820120E830E0A401BC01C6010E9475
:10338000C3A2D0CC233E3041434C564009F07DC30C
:10339000D801CD907D01D12C0E94A2BE8101960161
:1033A000A701BC01C5010E9405A3F10180819181A3
:1033B000892B09F0B7CC92012F5F3F4FCA52DA4FE9
:1033C00039832883C65DD540D50111960D90BC91F7
:1033D000A02DC451DA4FB983A883CC5ED540D50166
:1033E00013966D907D908D909C901697C054DA4FF7
:1033F000688279828A829B82C05CD5401796BC9194
:10340000C853DA4FB883C85CD540F5010084F18514
:10341000E02DC454DA4FF983E883CC5BD540D50165
:103420001A96BC91CA53DA4FB883C65CD540F501F1
:103430004385548565857685F785C053DA4FF883D3
:10344000C05DD540D50150960D90BC91A02DC852BD
:10345000DA4FB983A883C85DD540F501F289C2521D
:10346000DA4FF883CE5DD540D50153960D90BC91CF
:10347000A02DCB51DA4FB983A883C55ED540F501A5
:10348000C588D688E788F08CF18DC253DA4FF8836F
:10349000CE5CD540D5015A960D90BC91A02DC4525A
:1034A000DA4FB983A883CC5DD540F501F48DC552C0
:1034B000DA4FF883CB5DD540F501858D968DA78DCC
:1034C000B0A1F1A1CC51DA4FF883C45ED540F5012B
:1034D00002A0F3A1E02DCE52DA4FF983E883C25D5A
:1034E000D540F501F4A1C251DA4FF883CE5ED54044
:1034F000F50105A0F6A1E02DC653DA4FF983E88364
:10350000CA5CD540F50107A110A521A532A5F3A5F8
:10351000CC53DA4FF883C45CD540F50104A4F5A57B
:10352000E02DC453DA4FF983E883CC5CD540F50134
:10353000F6A5CD51DA4FF883C35ED540F50167A4F7
:1035400070A881A892A8C152DA4F688279828A82D3
:103550009B82CF5DD540F3A9C652DA4FF883CA5D8E
:10356000D540F50164A875A8B080C35DDB4FB88273
:10357000CD52D440C252DA4FF881CE5DD540C25D03
:10358000DB4FF883CE52D440C251DA4F8880CE5EF2
:10359000D540C15DDB4F8882CF52D440C451DA4F51
:1035A000A880B980CC5ED540C75EDD4FB982A882C5
:1035B000C951D240CB51DA4FE881F981C55ED5407F
:1035C000C55EDD4FF983E883CB51D240C653DA4F55
:1035D00088809980CA5CD540C35EDD4F998288821D
:1035E000CD51D240C054DA4F88809980AA80BB80E8
:1035F000C05CD540C657DF4F88829982AA82BB82C1
:10360000CA58D040C257DF4FC882D982EA82FB82B3
:10361000CE58D040CE56DF4F088319832A833B8390
:10362000C259D0409E0128553C4FC054DA4F3983CF
:103630002883C05CD540C853DA4F8880C85CD54029
:10364000F9018082C253DA4F9880CE5CD5409182D6
:10365000CC53DA4FA880C45CD540A282C454DA4F60
:1036600028813981CC5BD540CC56DE4F3983288305
:10367000C459D140C452DA4FE881F981CC5DD540BC
:10368000CA56DE4FF983E883C659D140C453DA4F96
:1036900088809980CC5CD540C856DE4F998288825C
:1036A000C859D1409E012D5D3C4FC454DA4F398337
:1036B0002883CC5BD540CA53DA4F8880C65CD5409E
:1036C000F9018082C552DA4F9880CB5DD540918256
:1036D000CD51DA4FA880C35ED540A28249835A8378
:1036E0006B837C838D839E83AF83B887C152DA4F0F
:1036F000288139814A815B81CF5DD54029873A870E
:103700004B875C87AE0142565D4FCC53DA4F5983ED
:103710004883C45CD540C053DA4FE881C05DD540D2
:10372000DA01EC93CC51DA4FF881C45ED5401196A2
:10373000FC931197C652DA4F8880CA5DD540129625
:103740008C921297C852DA4FA880B980C85DD540D4
:10375000C15FDE4FB982A882CF50D140CE52DA4F3E
:1037600028813981C25DD540CF5EDE4F3983288301
:10377000C151D140CD5EDE4F79826882C351D140C4
:1037800041575E4FCA53DA4F59834883C65CD540D0
:10379000BE01615F7E4FC853DA4F79836883C85C8E
:1037A000D540CE0101965C018E01075E1D4FA451EC
:1037B000B2406D01FE01EC56FE4F4F01612C712CA1
:1037C000C453DA4F59824882CC5CD5402801C25399
:1037D000DA4F39822882CE5CD5401B01C053DA4FC4
:1037E00099838883C05DD540CA53DA4FA881B981D7
:1037F000C65CD5408D91CA53DA4FB983A883C65CA5
:10380000D540882309F495C0C054DA4FE881F98186
:10381000C05CD540E60DF71D8081882309F4D4C42F
:10382000F40180819181C454DA4FE881F981CC5B45
:10383000D540E60DF71DB081C853DA4FB883C85C98
:10384000D540B11105C0F501108211821282138298
:10385000CC53DA4FE881F981C45CD540E60DF71D01
:103860002081C653DA4F2883CA5CD540211105C098
:1038700021E030E0D1012D933C938230910509F491
:10388000C5C60CF4EAC48330910511F40C949C2550
:10389000049709F047C0D5012D913D914D915C9160
:1038A000CE52DA4F288339834A835B83C25DD54089
:1038B000F6012081318142815381C651DA4F28833C
:1038C000CA5ED540C951DA4F3883C75ED540C8516A
:1038D000DA4F4883C85ED540C751DA4F5883C95E76
:1038E000D5400E94DC60CE52DA4FE880F9800A8130
:1038F0001B81C25DD540C651DA4F2881CA5ED540D2
:10390000C951DA4F3881C75ED540C851DA4F488176
:10391000C85ED540C751DA4F5881C95ED540B30162
:103920000E946760C853DA4FF881C85CD540F11136
:10393000D8C4BFEF6B1A7B0AE2E02E0E311CF4E014
:10394000AF0EB11C22E0420E511C34E0C30ED11C5C
:1039500042E0840E911C53E06516710409F044CFD7
:10396000C453DA4F48805980CC5CD540C253DA4FFB
:1039700028803980CE5CD540C053DA4FA880B9800A
:10398000C05DD54019820E941ABF7101820120E8F2
:1039900030E0CA52DA4F48815981C65DD540BC013A
:1039A000C5010E94C3A2BEC922303041474D5446D2
:1039B00009F06BC0D801CD907D01D12C0E9478BE5A
:1039C00081019601A701BC01C5010E9405A3F10177
:1039D00080819181892B09F0A5C96201FFEFCF1A7F
:1039E000DF0A85E8F501DE01AE54BB4F01900D9270
:1039F0008A95E1F7D5011C9110FD46C7E12CF12C09
:103A000011FD0FC712FDDDC619820E94F0BE0C9495
:103A10009714283E354A494E5B4BB9F5D801CD90F5
:103A20007D01D12C0E9466BE81019601A701BC01D7
:103A3000C5010E9405A3F10180819181892B09F0C4
:103A400071C90E946E7760E070E00E947E766A83A2
:103A50007B838C839D830E946E7761E070E00E947F
:103A60007E766E837F83888799870E946E7762E077
:103A700070E00E947E766A877B878C879D8783E0D3
:103A800089830E94DEBE0C94391584E090E0F10138
:103A90009183808347C9F801C1907F01D12C0E9496
:103AA000B1BE81019601A701BC01C5010E9405A319
:103AB000D1018D919C91892B09F034C94201BFEF4E
:103AC0008B1A9B0A6E01EAE8CE0ED11C85E8F5013F
:103AD000D60101900D928A95E1F786010B5F1F4F89
:103AE000D60114962C9114976C91C651DA4F288305
:103AF000CA5ED540C551DA4F6883CB5ED5400E947F
:103B0000227DC651DA4F2881CA5ED540A801C55131
:103B1000DA4F6881CB5ED5400E94A27C892B01F7E9
:103B20000E94227D0E940E7D19820E9429BF710190
:103B3000820120E830E0A401BC01CE0101960E9480
:103B4000C3A2F0C8D801CD907D01D12C0E9463BEE4
:103B500081019601A701BC01C5010E9405A3F101E5
:103B600080819181892B09F0DDC80E946E7760E029
:103B700070E00E9459776A837B838C839D830E94C7
:103B80006E7761E070E00E9459776E837F8388874B
:103B900099870E946E7762E070E00E9459776A8789
:103BA0007B878C879D8783E089830E94DBBE0C9492
:103BB0003915F801C1907F01D12C0E947EBE810190
:103BC0009601A701BC01C5010E9405A3D1018D91F9
:103BD0009C91892B09F0A6C86201BFEFCB1ADB0AC2
:103BE000FE01E855FC4FC054DA4FF983E883C05C0E
:103BF000D54085E8F501C054DA4FA881B981C05C91
:103C0000D54001900D928A95E1F7D5011C9110FFE6
:103C100002C00C942A26E12CF12C11FDC1C412FD26
:103C20005BC619820E94F6BE0C949714D801CD9001
:103C30007D01D12C0E94ABBE81019601A701BC0180
:103C4000C5010E9405A3F10180819181892B09F0B2
:103C500069C885E8F501DE01A95CBA4F01900D92B3
:103C60008A95E1F7C55CDA4F0881CB53D54010E067
:103C7000C95CDA4FE880F980C753D5400E942B36E3
:103C800047E355E04C0F5D1F4B5F5F4F9801B70155
:103C90000E94EE3519820E9423BF0C943915F80159
:103CA000C1907F01D12C0E947BBE81019601A701AA
:103CB000BC01C5010E9405A3D1018D919C91892B66
:103CC00009F030C86201BFEFCB1ADB0A85E8F501C5
:103CD000DE01A35DBB4F01900D928A95E1F7F501DE
:103CE000108110FD99C6E12CF12C11FD5FC612FD6B
:103CF00029C619820E94F3BE0C949714D801CD9066
:103D00007D01D12C0E9451BE81019601A701BC0109
:103D1000C5010E9405A3F10180819181892B11F0D9
:103D20000C949216D5014D915D916D917C91C85185
:103D3000DA4F4883C85ED540C751DA4F5883C95E11
:103D4000D540C551DA4F6883CB5ED540C951DA4FB3
:103D50007883C75ED5400E94FE79C851DA4F48810A
:103D6000C85ED540C751DA4F5881C95ED540C551AC
:103D7000DA4F6881CB5ED540C951DA4F7881C75E92
:103D8000D5400E94717819820E94C9BE0C943915E1
:103D9000D801CD907D01D12C0E945ABE810196019F
:103DA000A701BC01C5010E9405A3F1018081918199
:103DB000892B11F00C9492166201FFEFCF1ADF0AE3
:103DC000D50111963C91119712968D919D910D9070
:103DD000BC91A02DF5010681E78040855185628563
:103DE0007385C054DA4F488359836A837B83C05CF0
:103DF000D5401485F5844685578560897189C454FA
:103E0000DA4F488359836A837B83CC5BD54020811A
:103E10002111FDC19E012F5F3F4F5901002371F118
:103E2000D401EE2011F40C948C2799961D921D92CA
:103E30001D921C929C97C054DA4F288139814A8187
:103E40005B81C05CD5405D962D933D934D935C9313
:103E5000909781E051968C9387EF90E19A838983C4
:103E60009C828B820E948B4B24E630E040E050E045
:103E7000B5010E949B49F401968B858B112379F043
:103E8000D401F1100C94A82757960D911C915897C6
:103E90000E948B4BB8010E94464AF401128A198293
:103EA0000E94D2BE0C946616D801CD907D01D12C13
:103EB0000E9448BE81019601A701BC01C5010E9474
:103EC00005A3F10180819181892B11F00C94921648
:103ED0000E94D332DC0111964C91119712962C91CD
:103EE000129713963C91822F90E0A0E0B0E0BA2F99
:103EF000A92F982F8827A42B832B89839A83AB83A0
:103F0000BC830E94C0BE0C943915F801C1907F019A
:103F1000D12C0E9454BE81019601A701BC01C501AC
:103F20000E9405A3D1018D919C91892B11F00C94D5
:103F300092166201BFEFCB1ADB0AF5014181528173
:103F4000638174818081F40181113EC2EF5BFF4F78
:103F5000008111810E948B4BB8010E94464AF401F6
:103F6000ED5BFF4F1082CE0101965C0119820E9429
:103F7000CCBE0C946616D801CD907D01D12C0E9448
:103F80006CBE81019601A701BC01C5010E9405A379
:103F9000F10180819181892B11F00C9492160E947D
:103FA0006E7760E070E00E945A766A837B838C8330
:103FB0009D830E946E7761E070E00E945A766E8366
:103FC0007F83888799870E946E7762E070E00E9405
:103FD0005A766A877B878C879D8783E089830E94D6
:103FE000E4BE0C943915F801C1907F01D12C0E94D8
:103FF000B4BE81019601A701BC01C5010E9405A3C1
:10400000D1018D919C91892B11F00C949216620133
:10401000BFEFCB1ADB0AF501148100810E94227DDB
:10402000212FAE014E5F5F4F602F0E94BF7C892B16
:10403000A9F70E94227D0E940E7D19830E942CBF49
:104040000C949714F801C1907F01D12C0E9496BE68
:1040500081019601A701BC01C5010E9405A3D10100
:104060008D919C91892B11F00C9492166201BFEFF7
:10407000CB1ADB0A0E948558FC0181859285039743
:104080008330910508F09DC1880F991FFC01EB5505
:10409000FB4F808191819A8389830E940EBF0C948B
:1040A0009714F801C1907F01D12C0E948ABE810132
:1040B0009601A701BC01C5010E9405A3D1018D9104
:1040C0009C91892B11F00C9492166201BFEFCB1AD0
:1040D000DB0A85E8F501DE01AC56BE4F01900D927A
:1040E0008A95E1F7F501108110FD07C3E12CF12C51
:1040F00011FDCDC212FD7AC519820E9402BF0C9437
:104100009714F801C1907F01D12C0E94A8BE8101B3
:104110009601A701BC01C5010E9405A3D1018D91A3
:104120009C91892B11F00C9492166201BFEFCB1A6F
:10413000DB0AF50191818081882309F457C0092F9A
:1041400090FD56C001FD1DC202FD0CC219820E94E5
:1041500020BF0C9497146201BFEFCB1ADB0A0E94B8
:104160008B4B8091250290912602A0912702B0915D
:10417000280289839A83AB83BC837E01E6E0EE0E3E
:10418000F11C00E010E00E945752B8010E94774DE8
:10419000D7016D937D938D939D937D010F5F1F4F8D
:1041A0000330110581F783E08D830E940BBF0C94CF
:1041B0009714892B11F00C943A17D3011696FC92A0
:1041C000EE9215970C943A1782E090E0D4018D930B
:1041D0009C9329CBD30116961C921E9215970C9492
:1041E0003A17F301968285820C943A1707E010E0A3
:1041F0000E94DC6060E070E00E94255A0E94DC6052
:1042000040E050E060E070E00E94C4599BCFF401B0
:10421000332309F48EC615A216A217A210A6818F09
:10422000928FA38FB48F81E0808B88E891E19A838D
:1042300089839C828B820E948B4B24E630E040E095
:1042400050E0BE016F5F7F4F5B010E949B49D4012C
:1042500054969C938E935397E1CD019709F062CBCE
:10426000F201808191818230910509F43DC783304C
:10427000910509F406C7019709F054CBD6012D9199
:104280003D914D915C91C651DA4F2883CA5ED5406D
:10429000C951DA4F3883C75ED540C851DA4F4883D9
:1042A000C85ED540C751DA4F5883C95ED5400E94D9
:1042B000DC60C651DA4F2881CA5ED540C951DA4F59
:1042C0003881C75ED540C851DA4F4881C85ED540B5
:1042D000C751DA4F5881C95ED540B3010E942A5BAD
:1042E00021CB0E94DC609301220F331F820F931FAA
:1042F000DC010D911C910115110509F41ACBF8018F
:10430000E080F18020E030E04AE754E4D5016D918F
:104310007D918D919C910E9420C20E94D8C0AB01DA
:10432000BC01D7019296ED91FC919397C801099534
:10433000C653DA4FB881CA5CD540BB2309F4F9CA29
:10434000F10180819181D801ED91FC9104A0F5A14A
:10435000E02D8130910509F401C7029709F4F8C6F0
:1043600061E070E0C8010995E4CA8CE49EE09A839C
:1043700089839C828B820E948E54FE0131965F015C
:10438000AF0160E070E00E94E2538BE29DE09A830F
:1043900089839C828B820E948E54A50161E070E02B
:1043A0000E94E2538AEE9CE09A8389839C828B82EE
:1043B0000E948E54A50162E070E00E94E2530C94CA
:1043C000631680E090E067CEFD9640835183628360
:1043D0007383369681E0808388E19BE09A838983AA
:1043E0009C828B820E948B4B24E630E040E050E0C0
:1043F000BE016F5F7F4F5B010E949B49F401EF5B41
:10440000FF4F91838083B2CD82EE92E19A838983BC
:104410009C828B820E94DC60FE0131965F01BF01AD
:104420000E943F5A0C941C18EE0CFF1CEE0CFF1C53
:10443000C454DA4FE881F981CC5BD540EE0DFF1D05
:1044400085809680A780B0840E946E77A501940134
:1044500062E070E00E9493760E94DC60FC0184813F
:104460009581892B11F40C94ED150E94DC60DC0120
:1044700014968D919C911597DC01ED91FC9100882B
:10448000F189E02DB3E0E632FB0711F40C94ED1551
:10449000B501A40109950C94ED15F701EE0FFF1F6E
:1044A000EE0FFF1FC454DA4F68807980CC5BD54093
:1044B000E60DF71D85809680A780B0840E946E77F8
:1044C000A501940161E070E00E9493760E94DC6097
:1044D000DC0112968D919C911397892B81F00E949B
:1044E000DC60FC0182819381DC01ED91FC9100880C
:1044F000F189E02DB3E0E632FB0709F03DC6BFEFDE
:10450000EB1AFB0A0C94E915C454DA4FE881F981DF
:10451000CC5BD54085809680A780B0840E946E7762
:10452000A501940160E070E00E9493760E94DC6037
:10453000DC018D919C91892B81F00E94DC60FC0153
:1045400080819181DC01ED91FC910088F189E02D61
:10455000B3E0E632FB0709F013C6EE24E394F12C36
:104560000C94E5150E94DC6062E070E00E94255A20
:104570000E94DC6040E050E062E070E00E94C459BC
:10458000E5CD0E94DC6061E070E00E94255A0E9447
:10459000DC6040E050E061E070E00E94C459D4CD9E
:1045A000F701EE0FFF1FEE0FFF1FC054DA4F6880B8
:1045B0007980C05CD540E60DF71D85809680A78088
:1045C000B0840E946E77A501940161E070E00E94C2
:1045D0006D760E94DC60DC0112968D919C911397A0
:1045E000892B81F00E94DC60FC0182819381DC01D7
:1045F000ED91FC910684F785E02DB3E0E532FB07F1
:1046000009F0B2C5BFEFEB1AFB0A09CBF2018081BA
:1046100091818230910509F400C58330910509F438
:10462000C8C4019709F07EC9D6012D913D914D91E5
:104630005C91C651DA4F2883CA5ED540C951DA4F22
:104640003883C75ED540C851DA4F4883C85ED5402D
:10465000C751DA4F5883C95ED5400E94DC60C6510D
:10466000DA4F2881CA5ED540C951DA4F3881C75E1A
:10467000D540C851DA4F4881C85ED540C751DA4F9E
:104680005881C95ED540B3010E94E25E4BC9F70173
:10469000EE0FFF1FEE0FFF1F24E9622E77247394A5
:1046A0006C0E7D1EE60DF71D85809680A780B08478
:1046B0000E946E77A501940161E070E00E94DF76B0
:1046C0000E94DC60DC0112968D919C911397892BDE
:1046D00081F00E94DC60FC0182819381DC01ED911C
:1046E000FC910488F589E02DB3E0E832FB0709F07E
:1046F0004BC5BFEFEB1AFB0AFDCCC756DE4F8880D7
:104700009980AA80BB80C959D1400E946E77A501CB
:10471000940160E070E00E94DF760E94DC60DC01C2
:104720008D919C91892B81F00E94DC60FC0180813D
:104730009181DC01ED91FC910488F589E02DB3E0D5
:10474000E832FB0709F04AC5EE24E394F12CD0CC03
:10475000EE0CFF1CEE0CFF1CCC53DA4FE881F98104
:10476000C45CD540EE0DFF1D85809680A780B08487
:104770000E946E77A501940162E070E00E944B7682
:104780000E94DC60FC0184819581892B11F40C94DA
:104790005D190E94DC60DC0114968D919C91159747
:1047A000DC01ED91FC910484F585E02DB3E0E43269
:1047B000FB0711F40C945D19B501A40109950C9443
:1047C0005D19EE0CFF1CEE0CFF1CE2EBF4E0EC0FAD
:1047D000FD1FEE0DFF1D058116810E946E77A80159
:1047E00062E070E00E942B770E94DC60FC01848113
:1047F0009581892B09F408C90E94DC60DC011496BC
:104800008D919C911597DC01ED91FC91008CF18DBF
:10481000E02DB3E0EA32FB0709F4F6C8B8010995C8
:10482000F3C8F701EE0FFF1FEE0FFF1FB2EB6B2E69
:10483000B4E07B2E6C0E7D1EE60DF71DA580B680C4
:104840000E946E77A50161E070E00E942B770E94C4
:10485000DC60DC0112968D919C911397892B81F07D
:104860000E94DC60FC0182819381DC01ED91FC916E
:10487000008CF18DE02DB3E0EA32FB0709F0ABC408
:10488000BFEFEB1AFB0ABEC8C954DB4FE880F980C2
:10489000C75BD4400E946E77A70160E070E00E9481
:1048A0002B770E94DC60FC0180819181892B81F053
:1048B0000E94DC60DC018D919C91DC01ED91FC910A
:1048C000008CF18DE02DB3E0EA32FB0709F080C4E3
:1048D000EE24E394F12C94C8EE0CFF1CEE0CFF1CAC
:1048E000C054DA4FE881F981C05CD540EE0DFF1D60
:1048F00085809680A780B0840E946E77A501940180
:1049000062E070E00E946D760E94DC60FC018481B0
:104910009581892B09F485C90E94DC60DC0114961D
:104920008D919C911597DC01ED91FC910684F785A2
:10493000E02DB3E0E532FB0709F473C9B501A4012A
:1049400009956FC9EE0CFF1CEE0CFF1CEDE2F4E0C4
:10495000EC0FFD1FEE0DFF1D85809680A780B084B3
:104960000E946E77A501940162E070E00E94487792
:104970000E94DC60FC0184819581892B09F4B9C90E
:104980000E94DC60DC0114968D919C911597DC01EE
:10499000ED91FC91028CF38DE02DB3E0EB32FB073F
:1049A00009F4A7C9B501A4010995A3C9F701EE0F40
:1049B000FF1FEE0FFF1F6DE2662E64E0762E6C0E79
:1049C0007D1EE60DF71D85809680A780B0840E942D
:1049D0006E77A501940161E070E00E9448770E9423
:1049E000DC60DC0112968D919C911397892B81F0EC
:1049F0000E94DC60FC0182819381DC01ED91FC91DD
:104A0000028CF38DE02DB3E0EB32FB0709F0DCC341
:104A1000BFEFEB1AFB0A6BC9CE5CDB4F8880998035
:104A2000AA80BB80C253D4400E946E77A501940136
:104A300060E070E00E9448770E94DC60DC018D91AC
:104A40009C91892B81F00E94DC60FC018081918126
:104A5000DC01ED91FC91028CF38DE02DB3E0EB32A3
:104A6000FB0709F0ADC3EE24E394F12C3EC9F70136
:104A7000EE0FFF1FEE0FFF1FCC53DA4F68807980D7
:104A8000C45CD540E60DF71D85809680A780B08474
:104A90000E946E77A501940161E070E00E944B7660
:104AA0000E94DC60DC0112968D919C911397892BFA
:104AB00081F00E94DC60FC0182819381DC01ED9138
:104AC000FC910484F585E02DB3E0E432FB0709F0A6
:104AD00073C3BFEFEB1AFB0A0C945919CC53DA4F8E
:104AE000E881F981C45CD54085809680A780B08438
:104AF0000E946E77A501940160E070E00E944B7601
:104B00000E94DC60DC018D919C91892B81F00E94D8
:104B1000DC60FC0180819181DC01ED91FC910484D9
:104B2000F585E02DB3E0E432FB0709F041C3EE2444
:104B3000E394F12C0C945519F2018081918181301C
:104B4000910509F430C2029711F00C94921CD60121
:104B50002D913D914D915C91CE52DA4F288339834E
:104B60004A835B83C25DD5400E945752B3010E94C5
:104B7000774D9B01AC01CE52DA4F688179818A81F1
:104B80009B81C25DD5400E94EEBF9B01AC01C65126
:104B9000DA4F2883CA5ED540C951DA4F3883C75EE1
:104BA000D540C851DA4F4883C85ED540C751DA4F67
:104BB0005883C95ED5400E94DC60C651DA4F288117
:104BC000CA5ED540C951DA4F3881C75ED540C85159
:104BD000DA4F4881C85ED540C751DA4F5881C95E67
:104BE000D540B3010E94FD5F0C94921CEE0CFF1C9B
:104BF000EE0CFF1CE4E9F1E0EC0FFD1FEE0DFF1DD4
:104C000085809680A780B0840E946E77A50194016C
:104C100062E070E00E94DF760E94DC60FC0184812B
:104C20009581892B09F468CA0E94DC60DC01149626
:104C30008D919C911597DC01ED91FC910488F5898B
:104C4000E02DB3E0E832FB0709F456CAB501A40130
:104C5000099552CAC054DA4FE881F981C05CD54049
:104C600085809680A780B0840E946E77A50194010C
:104C700060E070E00E946D760E94DC60DC018D9146
:104C80009C91892B81F00E94DC60FC0180819181E4
:104C9000DC01ED91FC910684F785E02DB3E0E5326F
:104CA000FB0709F065C2EE24E394F12C0C940D1E71
:104CB000EE0CFF1CEE0CFF1CE9E1F2E0EC0FFD1F17
:104CC000EE0DFF1D85809680A780B0840E946E77D0
:104CD000A501940162E070E00E94B9760E94DC6058
:104CE000FC0184819581892B11F40C9494140E9409
:104CF000DC60DC0114968D919C911597DC01ED919F
:104D0000FC910288F389E02DB3E0E732FB0711F450
:104D10000C949414B501A40109950C949414F70112
:104D2000EE0FFF1FEE0FFF1F69E1662E62E0762E89
:104D30006C0E7D1EE60DF71D85809680A780B084E1
:104D40000E946E77A501940161E070E00E94B9763F
:104D50000E94DC60DC0112968D919C911397892B47
:104D600081F00E94DC60FC0182819381DC01ED9185
:104D7000FC910288F389E02DB3E0E732FB0709F0EC
:104D800013C2BFEFEB1AFB0A0C949014C25EDD4F06
:104D900088809980AA80BB80CE51D2400E946E77D5
:104DA000A501940160E070E00E94B9760E94DC6089
:104DB000DC018D919C91892B81F00E94DC60FC01CB
:104DC00080819181DC01ED91FC910288F389E02DD5
:104DD000B3E0E732FB0709F0E3C1EE24E394F12CE2
:104DE0000C948C14F701EE0FFF1FEE0FFF1FBFE0B6
:104DF0006B2E772473946C0E7D1EE60DF71D858057
:104E00009680A780B0840E946E77A501940161E02E
:104E100070E00E9405770E94DC60DC0112968D91A3
:104E20009C911397892B81F00E94DC60FC018281A8
:104E30009381DC01ED91FC910688F789E02DB3E0C8
:104E4000E932FB0709F0A8C1BFEFEB1AFB0A0C948B
:104E5000F614CC5EDE4F88809980AA80BB80C45156
:104E6000D1400E946E77A501940160E070E00E943D
:104E700005770E94DC60DC018D919C91892B81F08B
:104E80000E94DC60FC0180819181DC01ED91FC914C
:104E90000688F789E02DB3E0E932FB0709F078C115
:104EA000EE24E394F12C0C94F214EE0CFF1CEE0CA7
:104EB000FF1CEFE0F1E0EC0FFD1FEE0DFF1D858004
:104EC0009680A780B0840E946E77A501940162E06D
:104ED00070E00E9405770E94DC60FC01848195816E
:104EE000892B11F40C94FA140E94DC60DC011496F6
:104EF0008D919C911597DC01ED91FC910688F789C5
:104F0000E02DB3E0E932FB0711F40C94FA14B5017B
:104F1000A40109950C94FA1455966D907C905697BF
:104F20000E948B4BB3010E94464AF401118A0C94F3
:104F30003E1FA388B4880E948B4BB5010E94464A4D
:104F4000D40150961C92FE0131965F010C940E1F05
:104F50009D961D921D921D921C92D097C454DA4FBB
:104F6000288139814A815B81CC5BD54091962D9314
:104F70003D934D935C93949781E052968C9386E693
:104F800090E19A8389839C828B820E948B4B24E6DA
:104F900030E040E050E0B5010E949B49F401908F61
:104FA000878B0C944F1FD6012D913D914D915C91B3
:104FB000EECDD6012D913D914D915C91C651DA4FC8
:104FC0002883CA5ED540C951DA4F3883C75ED540C1
:104FD000C851DA4F4883C85ED540C751DA4F58836D
:104FE000C95ED5400E94DC60C651DA4F2881CA5E96
:104FF000D540C951DA4F3881C75ED540C851DA4F24
:105000004881C85ED540C751DA4F5881C95ED54046
:10501000B3010E94935F0C94921CF60120813181B0
:1050200042815381C651DA4F2883CA5ED540C951A7
:10503000DA4F3883C75ED540C851DA4F4883C85E1F
:10504000D540C751DA4F5883C95ED5400E94DC6015
:10505000C651DA4F2881CA5ED540C951DA4F38812E
:10506000C75ED540C851DA4F4881C85ED540C751A8
:10507000DA4F5881C95ED540B3010E941F5E0C947F
:10508000921C0E94DC60B3010E94255AD6016D91EA
:105090007D918D919C910E94D1C0AB01BC01C85102
:1050A000DA4F4883C85ED540C751DA4F5883C95E8E
:1050B000D540C551DA4F6883CB5ED540C951DA4F30
:1050C0007883C75ED5400E94DC60C851DA4F4881C2
:1050D000C85ED540C751DA4F5881C95ED540B3018B
:1050E0000E94C4590C94921CF601208131814281A6
:1050F0005381C651DA4F2883CA5ED540C951DA4F71
:105100003883C75ED540C851DA4F4883C85ED54062
:10511000C751DA4F5883C95ED5400E94DC60C65142
:10512000DA4F2881CA5ED540C951DA4F3881C75E4F
:10513000D540C851DA4F4881C85ED540C751DA4FD3
:105140005881C95ED540B3010E94755A0C94921CD7
:1051500060E070E0C80109950C94991C62E070E071
:10516000C80109950C94991CB501A40109954ACA76
:10517000B501A401099597CDB501A4010995BFC951
:10518000B501A4010995E9C9B501A4010995B1CA00
:10519000B501A401099584CEB501A401099554CEA9
:1051A000B501A401099519CEB501A4010995E9CD70
:1051B000B501A4010995BBCCB501A401099589CC21
:1051C000B501A40109954FCCB501A401099520CCE6
:1051D000B70109957DCBB501099552CBB501A40165
:1051E0000995B2CA2F923F924F925F926F927F922F
:1051F0008F929F92AF92BF92CF92DF92EF92FF92E7
:105200000F931F93CF93DF93CDB7DEB7C25AD4402D
:105210000FB6F894DEBF0FBECDBF4C018B01DB0192
:105220001A962C911A9727FD8DC1243009F4A6C235
:10523000FB01858987FD1AC0CE55DB4F0FB6F89468
:10524000DEBF0FBECDBFDF91CF911F910F91FF90B9
:10525000EF90DF90CF90BF90AF909F908F907F9016
:105260006F905F904F903F902F9008957E01FAE1EC
:10527000EF1AFCEFFF0A86E8D7011D928A95E9F73D
:10528000FB0160817181218D822F90E0959587953A
:10529000959587958370922F929596959695937094
:1052A000823009F43BC1833009F41FC423E030E0AD
:1052B000923009F438C1933009F41EC440E050E044
:1052C00068507109621B730B641B750BA801435E68
:1052D0005F4F823009F41EC4833009F014C4ACE07F
:1052E000F0E022E130E0EAE080E0923009F407C427
:1052F000933011F02E2F382FCA01820F931F029680
:105300000E94A6A6C657DB4F2883CA58D440C5576B
:10531000DB4F3883CB58D440C457DB4F4883CC583D
:10532000D440C357DB4F5883CD58D440C257DB4FCE
:105330006883CE58D440C157DB4F7883CF58D440D0
:10534000C057DB4F8883C059D440CF56DB4F98837A
:10535000C159D440A70161E673E0CE0186579B4F47
:105360000E94B6AF882309F4B8C3D70111964D91B6
:105370005D916D917C9114978BE0F8013D96DE0173
:10538000A958BB4F01900D928A95E1F73E01BCEC04
:105390006B1ABDEF7B0A8BE0FE01E958FB4FD3018E
:1053A00001900D928A95E1F7DD24D394F301D38621
:1053B0004487558766877787F8018285882309F4B3
:1053C000CFC3823009F038CFF4018081811175C5D7
:1053D0008E010F5F1F4F89E2D8011D928A95E9F770
:1053E000F701658170E0C70106960E94A6A6CE5718
:1053F000DB4F2883C258D440CD57DB4F3883C35886
:10540000D440CC57DB4F4883C458D440CB57DB4FF4
:105410005883C558D440CA57DB4F6883C658D44018
:10542000C957DB4F7883C758D440C857DB4F8883B0
:10543000C858D440C757DB4F9883C958D440A801F7
:1054400061E973E0CE018E579B4F0E94B6AF88236F
:1054500009F443C38981882309F488C58E010E5F4E
:105460001F4FE12CF12C0BC0FFEFEF1AFF0A0B5F6F
:105470001F4F298130E0E216F3060CF0DDCE0E94CA
:105480003A49BC016354764FC8010E94D6C5892BA6
:1054900059F78BE0F301DE01A459BB4F01900D9247
:1054A0008A95E1F70E943A49C459DB4FC880CC562F
:1054B000D440C359DB4FD880CD56D440C259DB4FBE
:1054C000E880CE56D440C159DB4FF880CF56D44047
:1054D000C059DB4F0881C057D440CF58DB4F1881EB
:1054E000C157D440CE58DB4F2881C257D440CD5845
:1054F000DB4F3881C357D440CC58DB4F4881C45769
:10550000D440CB58DB4F5881C557D440CA58DB4FE5
:105510006881C657D4400E94BB438ECE923009F0BA
:1055200000C325E030E06A507109621B730BA801CB
:10553000435E5F4F823009F40AC3833009F0E2C250
:1055400092E0CDCE5596DC9048E050E0635F7F4F0F
:10555000CE018A519C4FCF55DB4F2883C15AD4408E
:105560000E94E6C57E01B9E3EB1ABDEFFB0A83E9B1
:10557000F70111928A95E9F785E0FE01EA51FC4FA7
:10558000D70101900D928A95E1F7CF55DB4F288125
:10559000C15AD44080E8820F90E0A0E0B0E0F7016B
:1055A00085839683A783B0878D2D90E0A0E0B0E03F
:1055B00081879287A387B487D8016D917C911197D9
:1055C00059962C91822F90E0959587959595879582
:1055D0008370922F9295969596959370823009F4E8
:1055E00077C3833009F4A8C223E030E0923009F495
:1055F0005BC3933009F4A8C240E050E068507109E1
:10560000621B730B641B750B035E1F4F823009F422
:1056100058C3833009F03CC3ECE050E022E130E0B5
:105620004AE080E0923009F43AC3933011F0242F1D
:10563000382FC801820F931F02960E94A6A6C65A51
:10564000DC4F2883CA55D340C55ADC4F3883CB552D
:10565000D340C45ADC4F4883CC55D340C35ADC4FA7
:105660005883CD55D340C25ADC4F6883CE55D340C2
:10567000C15ADC4F7883CF55D340C05ADC4F888362
:10568000C056D340CF59DC4F9883C156D340A701B1
:10569000435F5F4F61E673E0CE01865A9C4F0E94E4
:1056A000B6AF882309F419C2F401C388D4883E0137
:1056B000FCEC6F1AFDEF7F0A83E9F701D30101903B
:1056C0000D928A95E1F78E010F5F1F4F580182E31B
:1056D00091E0D801FC011D923197E9F781E090E05B
:1056E0009A838983C355DF4F8883CD5AD040E1E93F
:1056F000F4E020E030E0A901A5E6B0E00E9473BF2D
:1057000021917B018C01E20EF11C011D111DA801EC
:10571000970104E0E43AF00779F7C255DF4F288398
:1057200039834A835B83CE5AD040C459DB4F1982F8
:105730001882CC56D4400E9453BF9E0124593B4F3F
:1057400079018E010E541F4F20E830E0AE014D5418
:105750005F4FBC01C3010E94C3A2C459DB4F8881C3
:105760009981CC56D440892B09F4BEC20E94D33211
:105770004FEF50E06FEF0E943E325ECD0E94FE97E9
:10578000DC01ED91FC910190F081E02DB8010995CB
:1057900053CDD4011196BC91CB56DB4FB883C5597C
:1057A000D440F401F381CA56DB4FF883C659D44084
:1057B000D4011496BC91C956DB4FB883C759D44065
:1057C000F401A281B0E0F3013080F281C856DB4FD2
:1057D000F883C859D440F301F381C756DB4FF883EF
:1057E000C959D440F3018181E82FF0E0C956DB4F5D
:1057F0002881C759D44030E040E050E060E070E0DC
:1058000080E090E008E10E947EBFB32E6A01E62EA0
:10581000CB56DB4FF880C559D440F22ACC56DB4F2B
:10582000F882C459D4407264F72E8265482E192F2D
:105830001264CA56DB4F2881C659D44030E040E09C
:1058400050E060E070E080E090E000E10E947EBF08
:105850002B2C232AC42AC656DB4FC882CA59D440EF
:10586000D52AC556DB4FD882CB59D440E62AC45638
:10587000DB4FE882CC59D440F72AC356DB4FF8827D
:10588000CD59D440482A512E592A9A2F88275C0195
:10589000CC56DB4F3881C459D440322BCC56DB4F29
:1058A0003883C459D4402B28C756DB4F2881C959A7
:1058B000D44030E040E050E060E070E080E090E014
:1058C00008E10E947EBFB32E6A01162F2329C2561B
:1058D000DB4F2883CE59D4407264F72E8265C156BF
:1058E000DB4F8883CF59D4409264C056DB4F9883F6
:1058F000C05AD440C856DB4F2881C859D44030E044
:1059000040E050E060E070E080E090E000E10E9464
:105910007EBFA22EB32ACE55DB4FB882C25AD440E6
:10592000C42AD52AE12EE62AF72AC156DB4F088180
:10593000CF59D440082BC056DB4F1881C05AD440F1
:10594000192B5E2F44279A01C256DB4FB880CE59DF
:10595000D440AB28CE55DB4FB880C25AD440B32ACE
:10596000CC56DB4F2881C459D440322DC656DB4F6C
:105970004881CA59D440C556DB4F5881CB59D440D1
:10598000C456DB4F6881CC59D440C356DB4F788175
:10599000CD59D440C2010E94B5BFA1F0CB56DB4F18
:1059A000E880C559D440BE29F329AE17BF0709F4D2
:1059B0002AC3B4016F5F7F4FC3010E94D6C5892BF4
:1059C00009F034C2C25ADC4F88819981CE55D34048
:1059D000019709F489C2D40151962D903C905297B9
:1059E0008CE8FE01E65AFC4FDE01A953BD4F019041
:1059F0000D928A95E1F7FE0131965F0182E391E015
:105A0000DF01FC011D923197E9F7F1E0C855DF4F46
:105A1000F883C85AD040C953DD4F88819981AA8143
:105A2000BB81C75CD240C755DF4F88839983AA8367
:105A3000BB83C95AD040FB83C553DD4F8880998012
:105A4000CB5CD24001E08016910409F427C212E039
:105A50008116910409F416C2892809F4F5C182E07F
:105A600090E09D838C83FF24F394FF8E83E090E08D
:105A700099A388A38E0104591B4F28019E012D5C18
:105A80003E4F39010E94C0A272018E010D5C1D4F74
:105A900020E031E0A301BC01C5010E94C3A2D201F4
:105AA0008D919C91892BC9F4CD5CDD4F4881C35306
:105AB000D24050E0D101ED91FC91309709F4BCCB7C
:105AC000B301D10112968D919C9113970995F20122
:105AD00080819181892B09F4AFCB0E94D3324FEFA3
