:100000000C942D010C944C010C944C010C944C015B
:100010000C944C010C944C010C944C010C944C012C
:100020000C944C010C944C010C944C010C944C011C
:100030000C944C010C944C010C944C010C944C010C
:100040000C944C010C944C010C944C010C944C01FC
:100050000C944C010C944C010C944C010C944C01EC
:100060000C944C010C94F5330C944C010C944C0101
:100070000C944C010C9435020C944C010C944C01E2
:100080000C944C010C944C010C944C010C944C01BC
:100090000C9447340C944C010C944C010C94E67471
:1000A0000C944C010C944C010C944C010C944C019C
:1000B0000C944C010C944C010C944C010C94214A6E
:1000C0000C944C010C944C010C944C010C944C017C
:1000D0000C944C010C944C010C944C010C944C016C
:1000E0000C944C010C944C010C944C010C94CC409D
:1000F0000C9402480C944C010C944C010C94A742B3
:100100000C944C010C944C010C944C010C944C013B
:100110000C944C010C944C010C944C010C944C012B
:10012000188DBC8C628C0C8C8C8B838B7D8B2F8B75
:10013000D98AD08AB98AB38A728D05A84CCDB2D437
:100140004EB93836A9020C50B9918688083CA6AA47
:10015000AA2ABE000000803F6E616E00696E6600D4
:1001600000407A10F35A00A0724E18090010A5D46E
:10017000E80000E87648170000E40B54020000CACB
:100180009A3B000000E1F505000080969800000011
:1001900040420F000000A086010000001027000070
:1001A0000000E803000000006400000000000A00F6
:1001B000000000000100000000002C76D888DC67F9
:1001C0004F0823DFC1DFAE59E1B1B796E5E3E45351
:1001D000C63AE651997696E8E6C28426EB898C9B6E
:1001E00062ED407C6FFCEFBC9C9F40F2BAA56FA50E
:1001F000F490055A2AF75C936B6CF9676DC11BFC90
:10020000E0E40D47FEF520E6B500D0ED902E0300AA
:10021000943577050080841E080000204E0A0000F7
:1002200000C80C333333330F986E12831141EF8DB6
:100230002114893BE65516CFFEE6DB18D1844B38F6
:100240001BF77C1D901DA4BBE424203284725E2227
:100250008100C9F124ECA1E53D2711241FBECFEF99
:10026000D1E4DEBFCDBF10E1A0E0B2E0ECE8F8E7FA
:1002700001E00BBF02C007900D92A230B107D9F781
:100280002FE1A2E0B0E101C01D92AA32B207E1F76E
:100290000E9492090C9444BC0C94000008950895A7
:1002A000E82FF0E0E05CFE4F60830895E82FF0E077
:1002B000E05CFE4F80810895E82FF0E0E05CFE4FA7
:1002C00080816823862F90E002C0959587954A9596
:1002D000E2F70895922FE82FF0E0E05CFE4F262F22
:1002E000209580818223292F01C0220F4A95EAF7A9
:1002F0002623282B2083089587FD8FE78093800194
:10030000482F50E081E891E00C942BBBEF92FF92D4
:100310001F93CF93DF937A0110917B01161708F496
:10032000612FC62FD0E0AE0160E871E00E942BBBC8
:10033000C058DE4F8881F7018083812FDF91CF91F4
:100340001F91FF90EF900895FF920F931F93CF930B
:10035000DF938C01F62EEA01209751F047E060E828
:1003600086E00E945C0191E0813009F090E0988382
:1003700040E050E06F2DC801DF91CF911F910F91A8
:10038000FF900C948601CF92DF92FF920F931F9300
:10039000CF93DF938C01F62E6A01E901209751F08B
:1003A00047E060E886E00E945C0191E0813009F05E
:1003B00090E09883A6016F2DC801DF91CF911F9126
:1003C0000F91FF90DF90CF900C94860180917B017C
:1003D0000895FA01282F30E0A901460F511D403839
:1003E00051051CF09FE7692F681B462F50E0BF01A5
:1003F000C90180589E4F0C942BBBFA01282F30E086
:10040000A901460F511D4038510514F06FE7681BD4
:10041000462F50E0B90160587E4FCF010C942BBBA2
:100420000E94AD370E94F636FC0180818230C1F017
:100430008DEC9CECACECBFE320EC20937C001092A4
:100440007B002FEE20937A0080931210909313106C
:10045000A0931410B093151081E0809316100895A6
:1004600080E090E0A0EABFE3E7CF1F920F920FB6C3
:100470000F9211240BB60F921F932F933F934F931C
:100480005F936F937F938F939F93AF93BF93CF931C
:10049000DF93EF93FF9380910B028F5F80930B02AA
:1004A000833008F442C010920B02D0917800109172
:1004B0007900C0910A02809116108823E1F18C2FF7
:1004C000C83060F4EC2FF0E0EE0FFF1FEE5FFF4E40
:1004D00013702D2F30E0312B318320838F5F8830D4
:1004E00038F580930A0280917C00807E80937C00A6
:1004F00090917C0080910A02892B80937C00FF916F
:10050000EF91DF91CF91BF91AF919F918F917F91AB
:100510006F915F914F913F912F911F910F900BBE63
:100520000F900FBE0F901F9018958111E8CFBDCF8F
:1005300010920A02D8CF0E94100280910A02C0CF06
:100540006830710540F4660F771FFC01E60FF71F56
:1005500080819181089580E090E00895CF93DF93AA
:1005600068307105D8F4FB01EC01EE0FFF1FEC0FB2
:10057000FD1F6081718180E090E00E946CB6288947
:1005800039894A895B890E9485B720E030E040E8DC
:100590005AE30E9485B7DF91CF91089560E070E043
:1005A000CB01DF91CF91089580911610811102C087
:1005B0000E94100282E090E10895DA011496ED9114
:1005C000FC911597309739F0AB01BC0116968D91CF
:1005D0009C911797099408956115710529F021E000
:1005E00030E0DB012D933C93DA01ED91FC91119702
:1005F000309731F0682F12968D919C911397099541
:1006000080E090E00895089508950895089508956C
:10061000089508950895DC01ED91FC910480F58121
:10062000E02D09940C943F550C949A540C94605C02
:100630000C949358CF93DF9300D0CDB7DEB79E01D3
:100640002F5F3F4F08960E94419A0F900F90DF91C5
:10065000CF9108950F931F9300E010E020E030E069
:1006600040E050E008960E94B7961F910F910895C0
:100670002F923F924F925F926F927F928F929F92B2
:10068000AF92BF92CF92DF92EF92FF920F931F93A0
:10069000CF93DF93CDB7DEB7C657D6400FB6F894E9
:1006A000DEBF0FBECDBF6C015A01CE018B5C9C4FEB
:1006B0000E942BBBCB5CDB4FA882C553D440D60134
:1006C000CD90DC9081E091E0FE01EB5CFC4FDE011F
:1006D000AC5CBD4F01900D920197E1F70E94E69A44
:1006E000950133278E010F58194FAE014C5C5D4FB9
:1006F000BC01CE018D519A4F0E942E9BCF58D94FED
:1007000088819981C157D640892B09F10E946136B1
:100710004FEF50E060E00E94CC35CA58D94F0FB679
:10072000F894DEBF0FBECDBFDF91CF911F910F9127
:10073000FF90EF90DF90CF90BF90AF909F908F9001
:100740007F906F905F904F903F902F9008958CE82E
:10075000FE01ED51FA4FDE01A95ABA4F01900D92F8
:100760008A95E1F7FE0131964F0182E391E0DF01C6
:10077000FC011D923197E9F781E0C855DF4F88836E
:10078000C85AD040C95ADA4F488159816A817B8161
:10079000C755D540C755DF4F488359836A837B834C
:1007A000C95AD0408B83C55ADA4F28813981CB553D
:1007B000D5402130310509F48BC02230310509F4D0
:1007C00041C0232B09F492C022E030E03D832C830A
:1007D0008F8F83E090E099A388A3FE01E159F94F40
:1007E0005F019E012D5C3E4F39010E94E99A75011F
:1007F0008E010D5C1D4F20E031E0A301BC01C4015E
:100800000E94EC9AD5018D919C91892B09F07ECFA5
:10081000CD5CDD4F4881C353D24050E0D601ED910D
:10082000FC91309709F479CFB301D60112968D91DE
:100830009C9113970995F50180819181892B09F489
:100840006CCF64CFC35ADA4F9881CD55D5409923E8
:1008500009F4BCCFC25ADA4F88819981AA81BB8141
:10086000CE55D5408D3938E1930739EFA3073FEBDB
:10087000B30709F49DC008F05BC0803750EE9507C0
:1008800054E8A50754E6B50709F4A4C18F3DE0EE8E
:100890009E07EDEEAE07EFE6BE0709F444C18037D0
:1008A000934EA844B64209F4D5C194E080E0FE011D
:1008B000E159F94F5F019E012D5C3E4F390122E065
:1008C00030E03D832C8321E02F8F98A389A38DCF27
:1008D00022E030E03D832C838F8FCE018159994FE8
:1008E0005C01DE01AD5CBE4F3D017FCF8E8383E0B6
:1008F00090E0A0E0B0E08B879C87AD87BE8781E069
:1009000090E0A0E0B0E08F8B988FA98FBA8F82E043
:1009100090E0A0E0B0E08B8F9C8FAD8FBE8F9E01EA
:100920002159394F5901AE014D5C5E4F3A015DCFFF
:10093000833024E192072CEAA2072DEDB20709F4D7
:1009400019C286393EE4930732EEA3073FEFB3079F
:1009500009F4DEC1803C9342A347B04D09F0A5CF16
:10096000CE59DA4F4880C256D540512C0E94FBB078
:100970005E01F1E9AF1AF9EFBF0A3E012DEC621AF0
:100980002EEF720A8501920147E555E04C0F5D1F7D
:10099000445F5F4FBC01C3010E942E9BD5012D9186
:1009A0003C912115310509F41AC2922F832F87CF6C
:1009B000CE59DA4F4880C256D540512C0E94F8B02B
:1009C0005E01F1E9AF1AF9EFBF0A3E012DEC621AA0
:1009D0002EEF720A8501920147E555E04C0F5D1F2D
:1009E000445F5F4FBC01C3010E942E9BD5012D9136
:1009F0003C9121153105C9F61E01BAEC2B1ABBEF4B
:100A00003B0A83E9F301D10101900D928A95E1F748
:100A100080911C02882309F442C0F1018585882356
:100A2000F1F14685578560897189F6018481958148
:100A3000A681B781481759076A077B0781F144836C
:100A4000558366837783CD58D94F4883C357D640A3
:100A5000CC58D94F5883C457D640CB58D94F688308
:100A6000C557D640CA58D94F7883C657D6400E943A
:100A7000F349CD58D94F4881C357D640CC58D94FA8
:100A80005881C457D640CB58D94F6881C557D640F6
:100A9000CA58D94F7881C657D6400E94EE46F10118
:100AA00081859285A385B48580389105A105B1051E
:100AB00008F413C280E090E0DC0123E030E0FE01A6
:100AC000E753FB4F2F01F20131832083828393830D
:100AD000A483B5830E940DB175018E01095D1F4F7E
:100AE00020E830E0AE01485D5F4FBC01C2010E94CA
:100AF000EC9AD5012D913C912115310509F055CF86
:100B000083E090E09D838C8381E08AA3C25ADA4F10
:100B100088819981AA81BB81CE55D5408BA39CA3A6
:100B2000ADA3BEA362CECE59DA4F4880C256D5409F
:100B3000512C0E94EFB05E01B1E9AB1AB9EFBB0ACC
:100B40003E01EDEC6E1AEEEF7E0A8501920147E55B
:100B500055E04C0F5D1F445F5F4FBC01C3010E9415
:100B60002E9BD5012D913C912115310509F01DCF0A
:100B70000E94FC5528E133E0CA5CDB4F39832883AF
:100B8000C653D440C85CDB4F99838883C853D44094
:100B90000E94AF4A28EE33E040E050E0BE016A5CBC
:100BA0007B4F0E94474BCA5CDB4F1882C653D44030
:100BB0000E9404B175018E01095D1F4F20E830E0ED
:100BC000AE01485D5F4FBC01CE018A5C9B4F0E9425
:100BD000EC9A8FCFCE59DA4F4880C256D540512C6F
:100BE0000E94F2B05E01B1E9AB1AB9EFBB0A3E0157
:100BF000EDEC6E1AEEEF7E0A8501920147E555E0B5
:100C00004C0F5D1F445F5F4FBC01C3010E942E9BD0
:100C1000D5012D913C912115310509F0C6CEF30186
:100C2000808191818130910509F4BDC182309105A7
:100C300009F4B2C1892B31F40E94F34960E070E0FD
:100C40000E94A347CA5CDB4F1882C653D4400E945F
:100C500007B1B0CFCE59DA4F4880C256D540512C9B
:100C60000E94F5B05E01F1E9AF1AF9EFBF0A3E014B
:100C70002DEC621A2EEF720A8501920147E555E0CC
:100C80004C0F5D1F445F5F4FBC01C3010E942E9B50
:100C9000D5012D913C912115310509F086CEF30146
:100CA0004081518162817381CD58D94F4883C357A8
:100CB000D640CC58D94F5883C457D640CB58D94F7B
:100CC0006883C557D640CA58D94F7883C657D6408F
:100CD0000E94F349CD58D94F4881C357D640CC58CC
:100CE000D94F5881C457D640CB58D94F6881C55782
:100CF000D640CA58D94F7881C657D6400E94EE4692
:100D0000CA5CDB4F1882C653D4400E940AB152CF4E
:100D1000CE59DA4F4880C256D540512C0E94ECB0D3
:100D20005E01F1E9AF1AF9EFBF0A3E012DEC621A3C
:100D30002EEF720A8501920147E555E04C0F5D1FC9
:100D4000445F5F4FBC01C3010E942E9BD5012D91D2
:100D50003C912115310509F028CE80E8EAEBF3E05B
:100D6000DE01AA5CBB4F01900D928A95E1F70E94CB
:100D700001B120CFCE59DA4F4880C256D540512C10
:100D80000E94E9B05E0151E9A51A59EFB50A3E018A
:100D9000ADEC6A1AAEEF7A0A8501920147E555E09B
:100DA0004C0F5D1F445F5F4FBC01C3010E942E9B2F
:100DB000F501208131812115310509F0F6CD8CE056
:100DC000EAE3F4E0DE01AA5CBB4F01900D928A9544
:100DD000E1F70E94FEB0750108541640EFCE2E01D7
:100DE000B7E34B1ABBEF5B0A8EE8F301D201019027
:100DF0000D928A95E1F780911C02882309F442C084
:100E0000F20180858823F1F14185528563857485DF
:100E1000F60184819581A681B781481759076A0731
:100E20007B0781F14483558366837783CD58D94FFF
:100E30004883C357D640CC58D94F5883C457D6405F
:100E4000CB58D94F6883C557D640CA58D94F7883F5
:100E5000C657D6400E94F349CD58D94F4881C35751
:100E6000D640CC58D94F5881C457D640CB58D94FCB
:100E70006881C557D640CA58D94F7881C657D640E1
:100E80000E94EE46F20184819581A681B781803867
:100E90009105A105B10508F44FC080E090E0DC01A8
:100EA00023E030E0FE01EA5CFB4F1F01F1013183DA
:100EB000208382839383A483B5830E9410B175013C
:100EC0008E01095D1F4F20E830E0AE01485D5F4FA5
:100ED000BC01C1010E94EC9A0CCE2E01F7E34F1A1F
:100EE000FBEF5F0AD10115968C91F201808783E0B8
:100EF00090E09287818748E050E0B101C2010E94F2
:100F00004BBBD20117961C920E94F349DC01ED9174
:100F1000FC919101235F3F4FD10119966C9160586C
:100F20000190F081E02DA2010995092E000CAA0B79
:100F3000BB0B20E030E0C7CD1E01FAEC2F1AFBEF0F
:100F40003F0A88E0E6E4F4E0D10101900D928A9531
:100F5000E1F782E090E0D1011A969C938E93199765
:100F6000F201808118968C930E94F349DC01ED9187
:100F7000FC919201285F3F4FD20114966C9160580A
:100F80000190F081E02DA1010995092E000CAA0B1A
:100F9000BB0B20E030E08ACF0E94F34962E070E0B2
:100FA0000E94A3474FCE0E94F34961E070E00E9487
:100FB000A34748CE4115510509F408950C94380310
:100FC0008091160280FD12C00E94613640E050E020
:100FD00060E00E94CC358091160290911702019634
:100FE000909317028093160281E008950E94613663
:100FF0004FEF50E060E00E94CC35EDCF0C94E0075D
:10100000E1E6F0E080E88083108278940E94613607
:1010100040E050E86FEF0E94CC350895CF92DF9208
:10102000EF92FF92CF93DF9300D000D000D0CDB7E6
:10103000DEB71E821D820E94AD370E942237FC015E
:10104000C080D180E280F380F1E0CF16D104F2E0DD
:10105000EF06F10408F06EC0C114D104E104F104FC
:1010600009F42DC08D819E8140E050E0BA016BBF34
:10107000FA0127919227092E0294202D2F702927FB
:10108000392F3025330F307E2327302D3927307FFD
:101090003695092E000C331F9695969596959F715F
:1010A00093279827822F4F5F5F4F6F4F7F4F4C15CD
:1010B0005D056E057F0509F0DACF9E838D830E9462
:1010C000AD370E941737FC01208131818D819E81CF
:1010D0002817390719F10E9461364FEF50E060E0A0
:1010E0000E94CC350E94AD3722E030E0AE014B5F6C
:1010F0005F4F66E274E00E944F3780911C028111BD
:1011000029C026960FB6F894DEBF0FBECDBFDF9183
:10111000CF91FF90EF90DF90CF90089580911C02C7
:10112000882381F00E9461364FEF5FEF6FEF0E94DE
:10113000CC35E7CF0E9461364FEF50E060E00E946F
:10114000CC35DFCF0E94613640E05FEF6FEF0E9449
:10115000CC35D7CF8EEF97E09A8389831C821B8290
:101160000E94AF4A2AEF30E040E050E0BE016F5FDE
:101170007F4F0E94474BC5CFCF93DF93FC01108276
:1011800080911C02882309F455C08091180280FDCB
:1011900040C081FD2DC082FD1AC083FD0EC084FDBC
:1011A00003C0DF91CF9108950E94237240E050E088
:1011B000BA01DF91CF910C942B710E94613640E00F
:1011C0005FEF6FEF0E94CC3580911802E8CF0E944C
:1011D000DC5DEC0162E070E00E94385A40E050E0D3
:1011E00062E070E0CE010E94D75980911802D5CFFD
:1011F0000E94DC5DEC0161E070E00E94385A40E042
:1012000050E061E070E0CE010E94D7598091180251
:10121000C2CF0E94DC5DEC0160E070E00E94385AB1
:1012200040E050E060E070E0CE010E94D75980912C
:101230001802AFCF0E946136FC018081882309F437
:10124000A4CF0E94613640E05FEF6FEF0E94CC3583
:101250009CCFCF92DF92EF92FF920F931F93CF9389
:10126000DF93CDB7DEB7C159D1090FB6F894DEBF11
:101270000FBECDBF8C017A01DC018C918823C1F1B6
:10128000FE0131966F0186E8DF011D928A95E9F72C
:1012900041385105E8F5CE0107960E942BBBEE823E
:1012A000F8018485898385859685A785B0898A8399
:1012B0009B83AC83BD838BE03196DE01A957BF4F82
:1012C00001900D928A95E1F781E8C157DF4F88833D
:1012D000CF58D0400E94F349DC01ED91FC91019080
:1012E000F081E02D9601AE0149575F4F60E009950E
:1012F000CF56DF4F0FB6F894DEBF0FBECDBFDF91E4
:10130000CF911F910F91FF90EF90DF90CF900895B4
:101310000E9461364FEF50E060E00E94CC35E8CF8C
:101320000C942909CF93DF93CDB7DEB7CF5BDD40B7
:101330000FB6F894DEBF0FBECDBF0E9400080E941A
:10134000F3490E94D4020E9496750E9423720E9463
:101350008A760E940E0820E034E843E050E061E025
:1013600070E0CE018E5B944F0E949934CE018E5B6B
:10137000944F0E9412351A8219821C821B821E828F
:101380001D8218861F821D861C861F861E86CE0122
:1013900009960E9472968E010F5F1F4FA8016DED96
:1013A00072E0CE0109960E94309698014CEE52E010
:1013B00060E070E0CE0109960E943996C45BD24F7E
:1013C00019830883CC54DD408AE293E0C65BD24F98
:1013D00099838883CA54DD4022E43BE02C0F3D1FF3
:1013E0003C832B838BE093E09A838983309329118C
:1013F000209328111093271000932610CE018E54AD
:10140000924FDC0114961D921D921D921C9217970B
:1014100013961C930E9312972AE133E02D933C937D
:10142000FE01E254F24F91838083F887EF832AED27
:1014300037E03E832D83C75AD24F19821882C9558F
:10144000DD40C55AD24F19821882CB55DD40C35AB0
:10145000D24F19821882CD55DD40C15AD24F198220
:101460001882CF55DD40CF59D24F19821882C1560C
:10147000DD40CD59D24F19821882C356DD40CB5979
:10148000D24F19821882C556DD40C959D24F1982F0
:101490001882C756DD40C759D24F1882C956DD4061
:1014A000C659D24F1882CA56DD40C559D24F18824C
:1014B000CB56DD40C456D24F1882CC59DD4004567D
:1014C000124FD8011D9228E0E6E4F4E001900D925D
:1014D0002A95E1F7F801118622E030E03387228770
:1014E000148629E53DE02C0F3D1F328B218B948B18
:1014F000838B309325102093241090932310809396
:10150000221010932110009320100E94F349DC0157
:10151000ED91FC910480F581E02D23ED3BE2C65472
:10152000D24F39832883CA5BDD40C454D24F19831C
:101530000883CC5BDD40BE016654724F0995C55AE5
:10154000D24F19830883CB55DD4080E999E0C75A13
:10155000D24F99838883C955DD400E946D557C0127
:101560000E943C55C15AD24F19830883CF55DD40A4
:1015700024E431E1C35AD24F39832883CD55DD406D
:10158000CD59D24F99838883C356DD4084E193E0DF
:10159000CF59D24F99838883C156DD40C959D24F64
:1015A000F982E882C756DD4082E193E0CB59D24F01
:1015B00099838883C556DD40C654D24F398328832A
:1015C000CA5BDD40C454D24F19830883CC5BDD4035
:1015D0000E949154AE014654524F60E070E00E9468
:1015E000F353CF59D24F88819981C156DD40C654FB
:1015F000D24F99838883CA5BDD40CD59D24F888111
:101600009981C356DD40C454D24F99838883CC5B03
:10161000DD400E949154AE014654524F61E070E0AB
:101620000E94F353CB59D24F88819981C556DD4032
:10163000C654D24F99838883CA5BDD40C959D24FC3
:1016400088819981C756DD40C454D24F99838883DD
:10165000CC5BDD400E949154AE014654524F62E093
:1016600070E00E94F35380911C0281111BC00E9404
:10167000DC5D26E133E0C654D24F39832883CA5B50
:10168000DD40C454D24F99838883CC5BDD400E94F7
:10169000AF4A2AE030E040E050E0BE016654724FAD
:1016A0000E94474BCA5BD44F28813981C654DB4026
:1016B000C85BD44F88819981C854DB40281739070B
:1016C00009F442C02FB7F894CA5BD44F48815981BE
:1016D000C654DB40C85BD44F88819981C854DB4035
:1016E0004817590779F1CA5BD44FE881F981C6548C
:1016F000DB40F17082E49BE08C0F9D1FE80FF91F27
:1017000034966481CA5BD44F88819981C654DB408A
:1017100001969370CA5BD44F99838883C654DB408B
:101720002FBFC65BD24FE881F981CA54DD403097A4
:1017300009F4B8CFC45BD24F88819981CC54DD4085
:101740000995B0CF6FEFECCF0E94F349DC01ED912A
:10175000FC910680F781E02D099580911C02882379
:1017600069F00E94AF4A0E94934B80911C02811144
:1017700099CF0E9491540E94235494CF0E94AB525F
:101780000E94374EEECF6F927F928F929F92AF92D0
:10179000BF92CF92DF92EF92FF920F931F93CF935E
:1017A000DF93CDB7DEB7C554D2400FB6F894DEBF95
:1017B0000FBECDBF3C01CA5CDD4F8882C653D2400C
:1017C000C95CDD4F9882C753D240C85CDD4FA88208
:1017D000C853D240C75CDD4FB882C953D240C65C03
:1017E000DD4FC882CA53D240C55CDD4FD882CB538F
:1017F000D240C45CDD4FE882CC53D240C35CDD4FA5
:10180000F882CD53D240C25CDD4F0883CE53D24024
:10181000C15CDD4F1883CF53D240C05CDD4F2883BD
:10182000C054D240CF5BDD4F3883C154D240CE5B31
:10183000DD4F4883C254D240CD5BDD4F5883C35443
:10184000D240CC5BDD4F6883C454D240CB5BDD4FCC
:101850007883C554D2409E012F5F3F4F690182E3D8
:1018600091E0D901FC011D923197E9F781E090E008
:101870009A838983C355DF4F8883CD5AD040EBEEDE
:10188000F4E011E620E030E0A90101C01191A5E6E5
:10189000B0E00E94D8B49B01AC01210F311D411D65
:1018A000511D84E0EC3FF80789F7C255DF4F2883CC
:1018B00039834A835B83CE5AD040CC5CDD4F19829A
:1018C0001882C453D2400E94E0B0DE01AC5CBD4F30
:1018D0007D018E010E541F4F20E830E0AE014D54C3
:1018E0005F4FBC01CE018A5C9D4F0E94EC9ACC5C9C
:1018F000DD4F88819981C453D2400097B1F0CB5B12
:10190000DD4F0FB6F894DEBF0FBECDBFDF91CF9194
:101910001F910F91FF90EF90DF90CF90BF90AF900D
:101920009F908F907F906F9008950E94E99A0F5733
:101930001E4F20E031E0AE014D5C5E4FBC01C601A0
:101940000E94EC9ACC5CDD4F88819981C453D240CF
:101950000097A9F6CD5CDD4F4881C353D24050E0DB
:10196000D301ED91FC911197309749F2BE016D5C66
:101970007E4F12968D919C9113970995CC5CDD4F0B
:1019800088819981C453D240BACF2F923F924F920F
:101990005F926F927F928F929F92AF92BF92CF92FF
:1019A000DF92EF92FF920F931F93CF93DF93CDB708
:1019B000DEB7A8970FB6F894DEBF0FBECDBF1C01EF
:1019C0000E948A760E94E27569A37AA38BA39CA3E6
:1019D000CB01ABA1BCA1898B9A8BAB8BBC8B0E943A
:1019E0008A760E941A762B013C016D8B7E8B8F8B41
:1019F000988F0E948A760E9452766DA37EA38FA351
:101A000098A7698F7A8F8B8F9C8FC101CD969E8FFF
:101A10008D8FDC01CD90DD90ED90FC9081010F5C0D
:101A20001F4FFE017596F8A3EF8F89A19AA1ABA174
:101A3000BCA1BC01CD01D8012D913D914D915D918D
:101A40008D010E9452B54B015C0120E030E0A901FC
:101A50000E94BFB587FD82C0A7019601C501B401F0
:101A60000E9480B718167CF0ED8DFE8D0E171F07B3
:101A700009F457C0AF8DB8A16D917D918D919D9165
:101A8000B8A3AF8FD8CF0E94AF4A80913202909115
:101A90003302A0913402B091350289839A83AB83DB
:101AA000BC8389A19AA1ABA1BCA18D839E83AF8386
:101AB000B88749865A866B867C868DA19EA1AFA188
:101AC000B8A58D879E87AF87B88B1F921F9289809C
:101AD0009A80AB80BC80CD80DE80EF80F884098561
:101AE0001A852B853C854D855E856F857889C1017A
:101AF0000E94C30B89A19AA1ABA1BCA1F10181AB4A
:101B000092ABA3ABB4AB45AA56AA67AA70AE8DA19F
:101B10009EA1AFA1B8A581AF92AFA3AFB4AF0F9014
:101B20000F90F101ED5BFF4F8081A8960FB6F894FE
:101B3000DEBF0FBECDBFDF91CF911F910F91FF9000
:101B4000EF90DF90CF90BF90AF909F908F907F905D
:101B50006F905F904F903F902F900895B7FAB09498
:101B6000B7F8B09479CFAF92BF92CF92DF92EF9255
:101B7000FF920F931F93CF93DF93CDB7DEB7CD5373
:101B8000D2400FB6F894DEBF0FBECDBF5C01CA5C79
:101B9000DD4F0883C653D240C95CDD4F1883C7535D
:101BA000D240C85CDD4F2883C853D240C75CDD4FAC
:101BB0003883C953D240C65CDD4F4883CA53D240F4
:101BC000C55CDD4F5883CB53D240C45CDD4F688386
:101BD000CC53D240C35CDD4F7883CD53D2409E01BD
:101BE0002F5F3F4F690182E391E0D901FC011D9213
:101BF0003197E9F781E090E09A838983C355DF4FFD
:101C00008883CD5AD040EEEFF4E012E620E030E0D9
:101C1000A90101C01191A5E6B0E00E94D8B49B01D2
:101C2000AC01210F311D411D511D85E0E830F80741
:101C300089F7C255DF4F288339834A835B83CE5AA5
:101C4000D040CC5CDD4F19821882C453D2400E9430
:101C5000DAB0DE01AC5CBD4F7D018E010E541F4F2A
:101C600020E830E0AE014D545F4FBC01CE018A5CEC
:101C70009D4F0E94EC9ACC5CDD4F88819981C453C2
:101C8000D240009791F0C35CDD4F0FB6F894DEBFF1
:101C90000FBECDBFDF91CF911F910F91FF90EF90BD
:101CA000DF90CF90BF90AF9008950E94E99A0F57B0
:101CB0001E4F20E031E0AE014D5C5E4FBC01C6011D
:101CC0000E94EC9ACC5CDD4F88819981C453D2404C
:101CD0000097C9F6CD5CDD4F4881C353D24050E038
:101CE000D501ED91FC911197309769F2BE016D5CC1
:101CF0007E4F12968D919C9113970995CC5CDD4F88
:101D000088819981C453D240BECFCF92DF92EF92A7
:101D1000FF920F931F93CF93DF93CDB7DEB7299731
:101D20000FB6F894DEBF0FBECDBF6C0169870E946D
:101D3000AF4A8091320290913302A0913402B09167
:101D40003502082F89839A83AB83BC8392E0492FA5
:101D50006985262F30E038872F83E12CF12C1A81FA
:101D60002B813C8150E07885C6010E94B30D2996F5
:101D70000FB6F894DEBF0FBECDBFDF91CF911F919C
:101D80000F91FF90EF90DF90CF900895CF92DF9268
:101D9000EF92FF920F931F93CF93DF93CDB7DEB7F0
:101DA00029970FB6F894DEBF0FBECDBF6C016987CF
:101DB0000E94AF4A8091320290913302A091340286
:101DC000B0913502082F89839A83AB83BC8391E05D
:101DD000492F6985262F30E038872F83E12CF12C9D
:101DE0001A812B813C8150E07885C6010E94B30D99
:101DF00029960FB6F894DEBF0FBECDBFDF91CF910D
:101E00001F910F91FF90EF90DF90CF900895AF92C8
:101E1000BF92CF92DF92EF92FF920F931F93CF93D7
:101E2000DF93CDB7DEB7C953D2400FB6F894DEBF0B
:101E30000FBECDBF5C01CA5CDD4F488359836A8306
:101E40007B83C653D2409E012F5F3F4F690182E3DF
:101E500091E0D901FC011D923197E9F781E090E012
:101E60009A838983C355DF4F8883CD5AD040EAE0F7
:101E7000F5E013E620E030E0A90101C01191A5E6EC
:101E8000B0E00E94D8B49B01AC01210F311D411D6F
:101E9000511D85E0ED31F80789F7C255DF4F2883E2
:101EA00039834A835B83CE5AD040CC5CDD4F1982A4
:101EB0001882C453D2400E94E6B0DE01AC5CBD4F34
:101EC0007D018E010E541F4F20E830E0AE014D54CD
:101ED0005F4FBC01CE018A5C9D4F0E94EC9ACC5CA6
:101EE000DD4F88819981C453D240009791F0C75C3F
:101EF000DD4F0FB6F894DEBF0FBECDBFDF91CF919F
:101F00001F910F91FF90EF90DF90CF90BF90AF9017
:101F100008950E94E99A0F571E4F20E031E0AE016C
:101F20004D5C5E4FBC01C6010E94EC9ACC5CDD4F5B
:101F300088819981C453D2400097C9F6CD5CDD4FAA
:101F40004881C353D24050E0D501ED91FC911197E7
:101F5000309769F2BE016D5C7E4F12968D919C9117
:101F600013970995CC5CDD4F88819981C453D24089
:101F7000BECFCF93DF93FC012081211104C080E00C
:101F8000DF91CF910895EC010E94AF4A4091320257
:101F900050913302609134027091350220E030E0BC
:101FA00089899A890E94070F188280911C028823D0
:101FB00009F454C08091180280FD3FC081FD2CC0FF
:101FC00082FD19C083FD0DC084FFD9CF0E9423720A
:101FD00040E050E0BA010E942B7180E0DF91CF9188
:101FE00008950E94613640E05FEF6FEF0E94CC35AC
:101FF00080911802E9CF0E94DC5DEC0162E070E0A4
:102000000E94385A40E050E062E070E0CE010E9449
:10201000D75980911802D6CF0E94DC5DEC0161E0B7
:1020200070E00E94385A40E050E061E070E0CE017C
:102030000E94D75980911802C3CF0E94DC5DEC0149
:1020400060E070E00E94385A40E050E060E070E0EC
:10205000CE010E94D75980911802B0CF0E946136FC
:10206000FC018081882309F4A5CF0E94613640E0FD
:102070005FEF6FEF0E94CC359DCFCF92DF92EF9252
:10208000FF920F931F93CF93DF93CDB7DEB72897BF
:102090000FB6F894DEBF0FBECDBF6C01662309F406
:1020A00041C00E94AF4A8091320290913302A091C8
:1020B0003402B091350240910C0250910D026091B2
:1020C0000E0270910F02841B950BA60BB70B843F79
:1020D0009140A105B10508F453C00E94AF4A809118
:1020E000320290913302A0913402B0913502809374
:1020F0000C0290930D02A0930E02B0930F020E9467
:10210000AF4A8091320290913302A0913402B09193
:10211000350289839A83AB83BC831E821D8291E042
:1021200080E012C00E94AF4A809132029091330247
:10213000A0913402B091350289839A83AB83BC832A
:102140001E821D8290E080E0692FE12CF12C098134
:102150001A812B813C814D815E81782FC6010E94BE
:10216000B30D28960FB6F894DEBF0FBECDBFDF913A
:10217000CF911F910F91FF90EF90DF90CF90089536
:102180000E94AF4A40913202509133026091340272
:102190007091350220E030E0C6010E94070FE09107
:1021A0002010F0912110108280911C02882309F1E7
:1021B0008091180280FD57C081FD44C082FD31C06E
:1021C00083FD25C084FFCDCF0E94237240E050E004
:1021D000BA0128960FB6F894DEBF0FBECDBFDF91CF
:1021E000CF911F910F91FF90EF90DF90CF900C94C3
:1021F0002B710E946136FC0180818823C9F20E9404
:10220000613640E05FEF6FEF0E94CC35D1CF0E9486
:10221000613640E05FEF6FEF0E94CC35809118028D
:10222000D1CF0E94DC5D6C0162E070E00E94385A00
:1022300040E050E062E070E0C6010E94D759809112
:102240001802BECF0E94DC5D6C0161E070E00E946C
:10225000385A40E050E061E070E0C6010E94D75972
:1022600080911802ABCF0E94DC5D6C0160E070E0F1
:102270000E94385A40E050E060E070E0C6010E94E1
:10228000D7598091180298CFCF92DF92EF92FF92A8
:102290000F931F93CF93DF9300D000D0CDB7DEB75D
:1022A0007C01662309F454C00E94B3910E94147902
:1022B0000E94AF4A40913202509133026091340241
:1022C000709135028091120290911302A091140234
:1022D000B0911502481B590B6A0B7B0B443F5140D0
:1022E0006105710508F44CC00E94AF4A809132022A
:1022F00090913302A0913402B09135028093120282
:1023000090931302A0931402B093150289EB9FE0FF
:102310009A838983FC82EB820E94AF4A28E037E0EF
:1023200040E050E0BE016F5F7F4F0E94474B9093AB
:102330001F1080931E100F900F900F900F90DF9141
:10234000CF911F910F91FF90EF90DF90CF90089564
:102350000E94B3910E94619100911E1010911F1074
:102360000E94AF4AB8010E94464A0E94237224E6A6
:1023700030E040E050E06CE573E40E94DB71DBCFBD
:102380000E94613621E0FC012083F70180818111E8
:1023900015C00E94DC5D6C0100E010E0B801C601D0
:1023A0000E94385A40E050E0B801C6010E94D75957
:1023B0000F5F1F4F0330110589F796CF0E94AF4A78
:1023C0004091320250913302609134027091350293
:1023D00020E030E0F701818992890E94070FF70120
:1023E000108280911C02882309F451C08091180248
:1023F00080FD3CC081FD29C082FD16C083FD0AC05E
:1024000084FFC7CF0E94237240E050E0BA010E94CF
:102410002B71BFCF0E94613640E05FEF6FEF0E94EB
:10242000CC3580911802ECCF0E94DC5D8C0162E01B
:1024300070E00E94385A40E050E062E070E0C8016D
:102440000E94D75980911802D9CF0E94DC5D8C017F
:1024500061E070E00E94385A40E050E061E070E0D6
:10246000C8010E94D75980911802C6CF0E94DC5D36
:102470008C0160E070E00E94385A40E050E060E07B
:1024800070E0C8010E94D75980911802B3CF0E9412
:102490006136FC018081882309F4A8CF0E9461364F
:1024A00040E05FEF6FEF0E94CC35A0CFAF92BF92BC
:1024B000CF92DF92EF92FF920F931F93CF93DF9310
:1024C000CDB7DEB7C154D2400FB6F894DEBF0FBE11
:1024D000CDBF5C01CA5CDD4FC882C653D240C95C27
:1024E000DD4FD882C753D240C85CDD4FE882C85365
:1024F000D240C75CDD4FF882C953D240C65CDD4F85
:102500000883CA53D240C55CDD4F1883CB53D240F9
:10251000C45CDD4F2883CC53D240C35CDD4F38838D
:10252000CD53D240C25CDD4F4883CE53D240C15C14
:10253000DD4F5883CF53D240C05CDD4F6883C05419
:10254000D240CF5BDD4F7883C154D2409E012F5FD4
:102550003F4F690182E391E0D901FC011D9231975F
:10256000E9F781E090E09A838983C355DF4F888340
:10257000CD5AD040EFE1F5E015E620E030E0A901CA
:1025800001C01191A5E6B0E00E94D8B49B01AC0156
:10259000210F311D411D511D85E0EA32F80789F7F1
:1025A000C255DF4F288339834A835B83CE5AD0409C
:1025B000CC5CDD4F19821882C453D2400E94DDB03A
:1025C000DE01AC5CBD4F7D018E010E541F4F20E833
:1025D00030E0AE014D545F4FBC01CE018A5C9D4F8F
:1025E0000E94EC9ACC5CDD4F88819981C453D24023
:1025F000009791F0CF5BDD4F0FB6F894DEBF0FBEB2
:10260000CDBFDF91CF911F910F91FF90EF90DF90A1
:10261000CF90BF90AF9008950E94E99A0F571E4F38
:1026200020E031E0AE014D5C5E4FBC01C6010E946E
:10263000EC9ACC5CDD4F88819981C453D2400097DD
:10264000C9F6CD5CDD4F4881C353D24050E0D5017F
:10265000ED91FC911197309769F2BE016D5C7E4F50
:1026600012968D919C9113970995CC5CDD4F8881D2
:102670009981C453D240BECF4F925F926F927F92A6
:102680008F929F92AF92BF92CF92DF92EF92FF9282
:102690000F931F93CF93DF93CDB7DEB72C970FB671
:1026A000F894DEBF0FBECDBF4C010E94AB5262E07A
:1026B00070E00E94FF4B762E472E582E692EF401B3
:1026C00025A536A547A550A90E9452B56B017C01EE
:1026D00020E030E0A9010E94BFB587FD63C0A701DB
:1026E0009601F40161A172A183A194A10E94BFB5DA
:1026F00087FF3FC081E090E09093310280933002E9
:102700000E94AF4A8091320290913302A09134022C
:10271000B0913502C82E89839A83AB83BC8382E053
:10272000082F8D831E821F821886472D872D942D9A
:10273000A52DB62D89879A87AB87BC87A12CB12C94
:10274000DA80EB80FC8010E020E030E05A856B8579
:102750007C85C4010E945612109231021092300200
:10276000872D942DA52DB62DF40185A796A7A7A793
:10277000B0ABF40182892C960FB6F894DEBF0FBE81
:10278000CDBFDF91CF911F910F91FF90EF90DF9020
:10279000CF90BF90AF909F908F907F906F905F9001
:1027A0004F900895F7FAF094F7F8F09498CF4F927D
:1027B0005F926F927F928F929F92AF92BF92CF92D1
:1027C000DF92EF92FF920F931F93CF93DF93CDB7DA
:1027D000DEB72C970FB6F894DEBF0FBECDBF4C010D
:1027E0000E94AB5261E070E00E94FF4B762E472EB4
:1027F000582E692EF40121A532A543A554A50E94A7
:1028000052B56B017C0120E030E0A9010E94BFB508
:1028100087FD63C0A7019601F401658D768D878DD4
:1028200090A10E94BFB587FF3FC081E090E09093E8
:102830003102809330020E94AF4A8091320290911F
:102840003302A0913402B0913502C82E89839A8355
:10285000AB83BC8381E0082F8D831E821F82188684
:10286000472D872D942DA52DB62D89879A87AB8767
:10287000BC87A12CB12CDA80EB80FC8010E020E03A
:1028800030E05A856B857C85C4010E9456121092F7
:10289000310210923002872D942DA52DB62DF40112
:1028A00081A792A7A3A7B4A7F40181892C960FB69C
:1028B000F894DEBF0FBECDBFDF91CF911F910F9176
:1028C000FF90EF90DF90CF90BF90AF909F908F9050
:1028D0007F906F905F904F900895F7FAF094F7F81B
:1028E000F09498CF4F925F926F927F928F929F92C7
:1028F000AF92BF92CF92DF92EF92FF920F931F930E
:10290000CF93DF93CDB7DEB72C970FB6F894DEBF29
:102910000FBECDBF4C010E94AB5260E070E00E9440
:10292000FF4B762E472E582E692EF40125A136A195
:1029300047A150A50E9452B56B017C0120E030E018
:10294000A9010E94BFB587FD62C0A7019601F401ED
:10295000618D728D838D948D0E94BFB587FF3EC0BF
:1029600081E090E090933102809330020E94AF4A60
:102970008091320290913302A0913402B0913502DD
:10298000C82E89839A83AB83BC831D821E821F82DB
:102990001886472D872D942DA52DB62D89879A87CA
:1029A000AB87BC87A12CB12CDA80EB80FC8000E0E7
:1029B0001E812F8138855A856B857C85C4010E94D4
:1029C00056121092310210923002872D942DA52DAF
:1029D000B62DF40185A396A3A7A3B0A7F40180891F
:1029E0002C960FB6F894DEBF0FBECDBFDF91CF910E
:1029F0001F910F91FF90EF90DF90CF90BF90AF901D
:102A00009F908F907F906F905F904F900895F7FA0E
:102A1000F094F7F8F09499CF6F927F928F929F92F3
:102A2000AF92BF92CF92DF92EF92FF920F931F93DC
:102A3000CF93DF93CDB7DEB7C454D2400FB6F8942E
:102A4000DEBF0FBECDBF3C01CA5CDD4F8882C653DE
:102A5000D240C95CDD4F9882C753D240C85CDD4F7D
:102A6000A882C853D240C75CDD4FB882C953D24058
:102A7000C65CDD4FC882CA53D240C55CDD4FD882E8
:102A8000CB53D240C45CDD4FE882CC53D240C35C10
:102A9000DD4FF882CD53D240C25CDD4F0883CE5368
:102AA000D240C15CDD4F1883CF53D240C05CDD4FB4
:102AB0002883C054D240CF5BDD4F3883C154D2400D
:102AC000CE5BDD4F4883C254D240CD5BDD4F58838F
:102AD000C354D240CC5BDD4F6883C454D2409E01C6
:102AE0002F5F3F4F690182E391E0D901FC011D9204
:102AF0003197E9F781E090E09A838983C355DF4FEE
:102B00008883CD5AD040ECE2F5E01AE620E030E0D0
:102B1000A90101C01191A5E6B0E00E94D8B49B01C3
:102B2000AC01210F311D411D511D85E0E533F80732
:102B300089F7C255DF4F288339834A835B83CE5A96
:102B4000D040CC5CDD4F19821882C453D2400E9421
:102B5000E3B0DE01AC5CBD4F7D018E010E541F4F12
:102B600020E830E0AE014D545F4FBC01CE018A5CDD
:102B70009D4F0E94EC9ACC5CDD4F88819981C453B3
:102B8000D2400097B1F0CC5BDD4F0FB6F894DEBFBA
:102B90000FBECDBFDF91CF911F910F91FF90EF90AE
:102BA000DF90CF90BF90AF909F908F907F906F906D
:102BB00008950E94E99A0F571E4F20E031E0AE01C0
:102BC0004D5C5E4FBC01C6010E94EC9ACC5CDD4FAF
:102BD00088819981C453D2400097A9F6CD5CDD4F1E
:102BE0004881C353D24050E0D301ED91FC9111973D
:102BF000309749F2BE016D5C7E4F12968D919C918B
:102C000013970995CC5CDD4F88819981C453D240DC
:102C1000BACF6F927F928F929F92AF92BF92CF92D4
:102C2000DF92EF92FF920F931F93CF93DF93CDB775
:102C3000DEB72F970FB6F894DEBF0FBECDBF3C01B5
:102C40008B017A0183E090E090933102809330020F
:102C5000FE0131968FE0DF011D928A95E9F70E940F
:102C6000AF4A8091320290913302A0913402B09128
:102C7000350289839A83AB83BC83C801012E000C83
:102C8000AA0BBB0B8D839E83AF83B887FA86E98638
:102C90000E94AB52B8010E94FF4B11E020E030E0EF
:102CA000A9010E94BFB5811101C010E01B871F92CE
:102CB0001F9289809A80AB80BC80CD80DE80EF80BF
:102CC000F88409851A852B853C854D855E856F8541
:102CD000C3010E940C1510923102109230020F9025
:102CE0000F902F960FB6F894DEBF0FBECDBFDF91C9
:102CF000CF911F910F91FF90EF90DF90CF90BF90F9
:102D0000AF909F908F907F906F9008952F923F92F9
:102D10004F925F926F927F928F929F92AF92BF92EB
:102D2000CF92DF92EF92FF920F931F93CF93DF9397
:102D3000CDB7DEB7CC5ED5400FB6F894DEBF0FBE80
:102D4000CDBF5C014B01270116012B3868EC36071B
:102D500064E146076CE6560711F40C948D2508F0E3
:102D600062C0223389EB380780E1480781E45807C5
:102D700011F40C949A2408F0C2C02938AAE03A074A
:102D8000A1E44A07ABE15A0711F40C94042508F4B6
:102D900089C1213B9CE3390791EF490791E359072A
:102DA00011F40C94A62208F07CC32A3EBAEE3B072D
:102DB000B5E34B07B0E25B0711F40C94EB1F211550
:102DC000314C444F514211F00C945920F801C190FC
:102DD0007F01D12C0E9450B081019601A701BC0156
:102DE000C5010E942E9BD1018D919C91892B09F0E8
:102DF00084C26201BFEFCB1ADB0AF50114810081A6
:102E00000E949675212FAE014E5F5F4F602F0E948A
:102E10003375892BA9F70E9496750E9482751983D4
:102E20000E94D1B061C0283EE5EA3E07E9EE4E07B8
:102E3000EBEB5E0711F40C94832308F0ECC02B3FFE
:102E400063E4360769E8460765E8560711F40C9411
:102E5000BB2308F478C12133F9E73F07F8E44F07B3
:102E6000F8EA5F0709F457C708F061C22B3B7CE61C
:102E700037077EEB47077BE8570711F40C940422D1
:102E80002F3D374A4A40564911F00C945920F80119
:102E9000C1907F01D12C0E942FB081019601A70122
:102EA000BC01C5010E942E9BD1018D919C91892B63
:102EB00009F023C26201BFEFCB1ADB0A0E94FC5566
:102EC000FC018185928503978330910510F00C9465
:102ED0000D2A880F991FFC01E65BFA4F80819181D2
:102EE0009A8389830E94B0B07101820120E830E0AA
:102EF000A601BC01CE0101960E94EC9AFEC12F37BB
:102F000074ED370776E2470773E5570711F40C9421
:102F10003D2408F46FC1213860EA360762EC4607A9
:102F200063E6560709F44FC708F48BC22438A0EAB9
:102F30003A07A2EC4A07A3E65A0711F40C943C2284
:102F400022303041474D544611F00C945920D8019D
:102F5000CD907D01D12C0E940EB081019601A70178
:102F6000BC01C5010E942E9BF10180819181892BBA
:102F700009F0C3C13201FFEF6F1A7F0A85E8F5013E
:102F8000DE01AE54BB4F01900D928A95E1F7D50159
:102F90008D909D90AD90BC90C12CD12C00E010E0A4
:102FA000EE24E394F12CC454DA4F88829982AA82E9
:102FB000BB82CC5BD540C701002E02C0880F991F91
:102FC0000A94E2F7092E000CAA0BBB0BC454DA4F8B
:102FD00088809980AA80BB80CC5BD54088219921CC
:102FE000AA21BB21892B8A2B8B2B11F00C945D28F5
:102FF0000F5F1F4F03301105F1F619820E948FB049
:103000007101820120E830E0A301BC01CE010196EC
:103010000E94EC9A72C12439B5EC3B07BDEF4B0717
:10302000BFED5B0711F40C94F52308F438C1283F79
:10303000AFE23A07AAEE4A07A8EE5A0709F446C7D4
:1030400008F4BAC1283A67E7360766EB46076DEF22
:10305000560711F40C94A62026393E44424E5F4F89
:1030600011F00C945920D801CD907D01D12C0E94F3
:103070003BB081019601A701BC01C5010E942E9BB6
:10308000F10180819181892B09F037C180E8EEE45C
:10309000F4E0DE01119601900D928A95E1F70E940D
:1030A000BCB0F0C02631E9E23E07E2E24E07E7E0BD
:1030B0005E0711F40C94172308F486C225317DEDC8
:1030C000370776ED47077BE0570709F4E5C6293D4A
:1030D0003C40424B5F4009F0ECC7D801CD907D01E8
:1030E000D12C0E9405B081019601A701BC01C50148
:1030F0000E942E9BF10180819181892B09F0FDC0F6
:103100000E94607060E070E00E94BC6F6A837B8305
:103110008C839D830E94607061E070E00E94BC6FB0
:103120006E837F83888799870E94607062E070E079
:103130000E94BC6F6A877B878C879D8783E0898329
:103140000E9486B09FC0263F85E8380783EE480777
:103150008CE6580711F40C94D32208F43AC52F3D9D
:10316000B0EE3B07BDEE4B07BFE65B0709F401C6B7
:1031700022383B43464E5E4709F09BC7D801CD90AD
:103180007D01D12C0E9426B081019601A701BC01CE
:10319000C5010E942E9BF10180819181892B09F04C
:1031A000ACC0F50180819181A281B3818095909519
:1031B000A095B095409118025091190260911A02A1
:1031C00070911B0284239523A623B7234481558144
:1031D00066817781842B952BA62BB72B80931802C1
:1031E00090931902A0931A02B0931B0219820E94B5
:1031F000A7B048C02F3493EE390791EE490792E407
:10320000590709F41DC708F4A3C1273DEFE73E079E
:10321000EAE34E07E7E45E0709F4D9C7283E304FDA
:10322000484C514509F045C7D801CD907D01D12CBE
:103230000E94DEAF81019601A701BC01C5010E9479
:103240002E9BF10180819181892B09F056C00E944B
:103250006136DC0111964C91119712962C911297C0
:1032600013963C91822F90E0A0E0B0E0BA2FA92FF6
:10327000982F8827A42B832B89839A83AB83BC83C5
:103280000E945FB0A2014F5F5F4F7101820120E891
:1032900030E0BC01CE0101960E94EC9A2EC021358F
:1032A000F4E03F07FBE84F07F6EC5F0709F426C799
:1032B00008F4EDC4233084E138078CEA48078DED2B
:1032C000580709F4FCC62038304147495E4D09F0E3
:1032D000F0C6D801CD907D01D12C0E9411B08101A2
:1032E0009601A701BC01C5010E942E9BF1018081BE
:1032F0009181892B11F40C941526C451DA4F0FB625
:10330000F894DEBF0FBECDBFDF91CF911F910F911B
:10331000FF90EF90DF90CF90BF90AF909F908F90F5
:103320007F906F905F904F903F902F9008952F3631
:1033300095EB390798E9490790EB590711F40C947C
:103340004B23253E354A494E5B4B09F0B2C6D801A6
:10335000CD907D01D12C0E94FFAF81019601A70184
:10336000BC01C5010E942E9BF10180819181892BB6
:1033700021F60E94607060E070E00E94966F6A83A0
:103380007B838C839D830E94607061E070E00E946B
:10339000966F6E837F83888799870E94607062E052
:1033A00070E00E94966F6A877B878C879D8783E099
:1033B00089830E9480B066CF2539E3E83E07E7ECB9
:1033C0004E07E2EE5E0709F4BCC7243B3142474E8C
:1033D000574E09F06EC6D801CD907D01D12C0E94C8
:1033E000F9AF81019601A701BC01C5010E942E9B86
:1033F000F10180819181892B09F07FCF0E9460705B
:1034000060E070E00E944B706A837B838C839D83B5
:103410000E94607061E070E00E944B706E837F8359
:10342000888799870E94607062E070E00E944B700C
:103430006A877B878C879D8783E089830E947AB027
:1034400021CF2F318EE838078FEB48078AE55807E0
:1034500009F41FC7283130494949534609F029C6A4
:10346000F801C1907F01D12C0E94E4AF8101960147
:10347000A701BC01C5010E942E9BD1018D919C9199
:10348000892B09F03ACF0E942372FC01818192813D
:10349000A381B48189839A83AB83BC830E9465B086
:1034A000F1CE253DFBE13F07F7E44F07F2E35F076D
:1034B00009F436C5243D3D4648485A4309F0F9C54C
:1034C000D801CD907D01D12C0E94E7AF81019601FA
:1034D000A701BC01C5010E942E9BF1018081918151
:1034E000892B09F00ACFD5014D915D916D917C91A9
:1034F000CB51DA4F4883C55ED540CA51DA4F588365
:10350000C65ED540C951DA4F6883C75ED540CC51FD
:10351000DA4F7883C45ED5400E942372CB51DA4FD4
:103520004881C55ED540CA51DA4F5881C65ED54044
:10353000C951DA4F6881C75ED540CC51DA4F7881E6
:10354000C45ED5400E942B7119820E9468B09ACE49
:10355000263C3842404F514409F0ABC5D801CD90CC
:103560007D01D12C0E9402B081019601A701BC010E
:10357000C5010E942E9BF10180819181892B09F068
:10358000BCCE0E94607060E070E00E944C6F6A8365
:103590007B838C839D830E94607061E070E00E9459
:1035A0004C6F6E837F83888799870E94607062E08A
:1035B00070E00E944C6F6A877B878C879D8783E0D1
:1035C00089830E9483B05ECE233E3041434C5640F7
:1035D00009F06FC5D801CD907D01D12C0E943EB07D
:1035E00081019601A701BC01C5010E942E9BF1013A
:1035F00080819181892B09F080CE92012F5F3F4F0E
:10360000CB52DA4F39832883C55DD540D501119659
:103610000D90BC91A02DC751DA4FB983A883C95E24
:10362000D540D50113966D907D908D909C90169706
:10363000C454DA4F688279828A829B82CC5BD540FF
:103640001796BC91CC53DA4FB883C45CD540F501D2
:103650000084F185E02DC054DA4FF983E883C05C23
:10366000D540D5011A96BC91C653DA4FB883CA5CCF
:10367000D540F5014385548565857685F785CA5320
:10368000DA4FF883C65CD540D50150960D90BC91B9
:10369000A02DC652DA4FB983A883CA5DD540F50183
:1036A000F289C451DA4FF883CC5ED540D5015396E8
:1036B0000D90BC91A02DC452DA4FB983A883CC5D84
:1036C000D540F501C588D688E788F08CF18DCD51BD
:1036D000DA4FF883C35ED540D5015A960D90BC9160
:1036E000A02DC553DA4FB983A883CB5CD540F50133
:1036F000F48DC952DA4FF883C75DD540F501858D49
:10370000968DA78DB0A1F1A1C252DA4FF883CE5D9C
:10371000D540F50102A0F3A1E02DCF51DA4FF98396
:10372000E883C15ED540F501F4A1C052DA4FF883B9
:10373000C05ED540F50105A0F6A1E02DC852DA4FD4
:10374000F983E883C85DD540F50107A110A521A53F
:1037500032A5F3A5C153DA4FF883CF5CD540F5010C
:1037600004A4F5A5E02DC353DA4FF983E883CD5CBB
:10377000D540F501F6A5C853DA4FF883C85CD540AB
:10378000F50167A470A881A892A8CF52DA4F688289
:1037900079828A829B82C15DD540F3A9C152DA4FFA
:1037A000F883CF5DD540F50164A875A8F081C551B7
:1037B000DA4FF883CB5ED540C35DDB4FF883CD5243
:1037C000D440C451DA4F8880CC5ED540C25DDB4F17
:1037D0008882CE52D440C052DA4F9880C05ED54025
:1037E000C15DDB4F9882CF52D440C751DA4FA880D9
:1037F000B980C95ED540C75EDD4FB982A882C95184
:10380000D240C452DA4FE881F981CC5DD540C55E23
:10381000DD4FF983E883CB51D240C852DA4F88801C
:103820009980C85DD540C35EDD4F99828882CD51B5
:10383000D240C454DA4F88809980AA80BB80CC5B88
:10384000D540C657DF4F88829982AA82BB82CA5868
:10385000D040C257DF4FC882D982EA82FB82CE585D
:10386000D040CE56DF4F088319832A833B83C25949
:10387000D0409E0128553C4FC454DA4F39832883E9
:10388000CC5BD540CC53DA4F8880C45CD540F9017D
:103890008082CD51DA4F9880C35ED5409182C1536A
:1038A000DA4FA880CF5CD540A282C054DA4F28817D
:1038B0003981C05CD540CC56DE4F39832883C4594A
:1038C000D140C553DA4FE881F981CB5CD540CA5667
:1038D000DE4FF983E883C659D140C353DA4F88805D
:1038E0009980CD5CD540C856DE4F99828882C859F0
:1038F000D1409E012D5D3C4FCC53DA4F3983288354
:10390000C45CD540C653DA4F8880CA5CD540F90103
:103910008082C952DA4F9880C75DD5409182C853E2
:10392000DA4FA880C85CD540A28249835A836B8352
:103930007C838D839E83AF83B887CF52DA4F2881F3
:1039400039814A815B81C15DD54029873A874B87A0
:103950005C87AE0142565D4FC054DA4F59834883AD
:10396000C05CD540CA53DA4FE881C65CD540DA0165
:10397000EC93C252DA4FF881CE5DD5401196FC939C
:103980001197C152DA4F8880CF5DD54012968C9244
:103990001297C652DA4FA880B980CA5DD540C15F80
:1039A000DE4FB982A882CF50D140CF51DA4F288163
:1039B0003981C15ED540CF5EDE4F39832883C15146
:1039C000D140CD5EDE4F79826882C351D1404DE255
:1039D00054E04C0F5D1F4F5F5F4FC853DA4F598360
:1039E0004883C85CD540BE01615F7E4FCA53DA4F41
:1039F00079836883C65CD540CE0101965C018E0157
:103A0000075E1D4FA451B2406D01FE01EC56FE4F02
:103A10004F01612C712CC551DA4FE881CB5ED54046
:103A2000C553DA4F59824882CB5CD5402801C35335
:103A3000DA4F39822882CD5CD5401B01C153DA4F61
:103A400099838883CF5CD540EE2309F49AC0C4548F
:103A5000DA4FE881F981CC5BD540E60DF71D808116
:103A6000882311F40C94E628D4018D919C91CC53B9
:103A7000DA4FE881F981C45CD540E60DF71D20815D
:103A8000CA53DA4F2883C65CD540211106C0D50140
:103A90001D921D921D921C921397C054DA4FE8811B
:103AA000F981C05CD540E60DF71DB081C653DA4FF1
:103AB000B883CA5CD540B11105C021E030E0F10106
:103AC000318320838230910511F40C94112A14F46F
:103AD0000C9423298330910511F40C94542A0497F3
:103AE00009F047C0D5012D913D914D915C91CF5288
:103AF000DA4F288339834A835B83C15DD540F60161
:103B00002081318142815381C851DA4F2883C85EB8
:103B1000D540CC51DA4F3883C45ED540CB51DA4F13
:103B20004883C55ED540CA51DA4F5883C65ED5403A
:103B30000E94DC5DCF52DA4FE880F9800A811B8158
:103B4000C15DD540C851DA4F2881C85ED540CC51FF
:103B5000DA4F3881C45ED540CB51DA4F4881C55E1B
:103B6000D540CA51DA4F5881C65ED540B3010E9494
:103B70007E5DCA53DA4FF881C65CD540F1110C94D2
:103B80006A29BFEF6B1A7B0AE2E02E0E311CF4E0CB
:103B9000AF0EB11C22E0420E511C34E0C30ED11C0A
:103BA00042E0840E911C53E06516710411F40C94EC
:103BB000F025C853DA4FA881B981C85CD540ED9192
:103BC000C853DA4FB983A883C85CD540EE23C9F245
:103BD0003ECF243A3A41414B5C4609F06AC2D801D3
:103BE000CD907D01D12C0E9432B081019601A701B8
:103BF000BC01C5010E942E9BF10180819181892B1E
:103C000009F07BCB6201FFEFCF1ADF0A0E94AF4AB7
:103C10008091320290913302A0913402B09135022A
:103C200089839A83AB83BC839E012F5F3F4F5901E9
:103C3000390100E010E088248394912C62E0E62EA4
:103C4000F12C0E94DC5DB8010E94815A81309105FF
:103C500011F40C94F22814F40C946426823091052B
:103C600011F40C94ED28039729F424E030E0F301DB
:103C7000368325830F5F1F4F32E0630E711C0330C4
:103C80001105F9F683E08D830E94B3B03AC0283560
:103C9000354D43485D4B09F00CC2F801C1907F01DE
:103CA000D12C0E94EAAF81019601A701BC01C50198
:103CB0000E942E9BD1018D919C91892B09F01DCBE7
:103CC0006201BFEFCB1ADB0AF501418152816381AA
:103CD00074818081F40181110C94DD29EF5BFF4F29
:103CE000008111810E94AF4AB8010E94464AF40146
:103CF000ED5BFF4F1082CE0101965C0119820E949C
:103D00006BB07101820120E830E0A601BC01C50161
:103D10000E94EC9AF2CAD801CD907D01D12C0E946C
:103D2000D8AF81019601A701BC01C5010E942E9B5D
:103D3000F10180819181892B09F0DFCA0E948A7686
:103D40000E94E27569837A838B839C830E948A76C2
:103D50000E941A766D837E838F8398870E948A766D
:103D60000E94527669877A878B879C870E9459B018
:103D700089CAF801C1907F01D12C0E9456B08101FF
:103D80009601A701BC01C5010E942E9BD1018D9116
:103D90009C91892B09F0B1CA0E94FC5528E133E0BF
:103DA0003A8329839C838B830E94AF4A28EE33E0B9
:103DB00040E050E0BE016F5F7F4F0E94474B198289
:103DC0000E94D7B05FCAD801CD907D01D12C0E944E
:103DD00017B081019601A701BC01C5010E942E9B6D
:103DE000F10180819181892B09F087CA3201FFEFAF
:103DF0006F1A7F0A9E012D5D3C4FCC53DA4F3983F9
:103E00002883C45CD54085E8F501D90101900D9265
:103E10008A95E1F7D5018D909D90AD90BC90C12C15
:103E2000D12C00E010E0EE24E394F12CC454DA4FDE
:103E300079826882CC5BD540C054DA4F598248827F
:103E4000C05CD540C701002E02C0880F991F0A949C
:103E5000E2F7092E000CAA0BBB0B88219921AA219D
:103E6000BB21892B8A2B8B2B11F00C946C270F5FB5
:103E70001F4F0330110531F7C454DA4F6880798041
:103E8000CC5BD540C054DA4F48805980C05CD540E7
:103E900019820E9498B0B4C8D801CD907D01D12C70
:103EA0000E9435B081019601A701BC01C5010E94A5
:103EB0002E9BF10180819181892B09F01ECA198204
:103EC0001A821B821C820E94B6B0DCC9D801CD9038
:103ED0007D01D12C0E944AB081019601A701BC014D
:103EE000C5010E942E9BF10180819181892B09F0EF
:103EF00004CAD5011496DC90149715960C91159769
:103F0000ED90FC900E94AD37302F2D2DAE014E5F0D
:103F10005F4FB7010E947B36D9820E94CBB0B2C9F5
:103F2000D801CD907D01D12C0E94EDAF8101960189
:103F3000A701BC01C5010E942E9BF10180819181E6
:103F4000892B09F0DAC96201FFEFCF1ADF0AD50128
:103F50008C9181110C94B129D40114968D919C916E
:103F600015979A83898316968D919C9117979C83B8
:103F70008B830E949154FE0131965F01AF0160E096
:103F800070E00E94F353D40118968D919C9119977B
:103F90009A8389831A968D919C911B979C838B831E
:103FA0000E949154A50161E070E00E94F353F40176
:103FB000848595859A838983868597859C838B8361
:103FC0000E949154A50162E070E00E94F3531982AF
:103FD0000E946EB096CED801CD907D01D12C0E946A
:103FE000DBAF81019601A701BC01C5010E942E9B98
:103FF000F10180819181892B09F07FC96201FFEF76
:10400000CF1ADF0A7E0122E0E20EF11C00E010E090
:104010000E94D402B8010E94A002A0E0B0E0F70123
:1040200081939193A193B1937F010F5F1F4F08304C
:10403000110571F788E089830E945CB00C947417B5
:10404000F801C1907F01D12C0E9441B081019601FD
:10405000A701BC01C5010E942E9BD1018D919C91AD
:10406000892B09F04AC96201BFEFCB1ADB0A0E9413
:10407000AB527C0100E010E00E94DC5DB8010E94C0
:10408000385A0E94DC5D40E050E0B8010E94D759E8
:104090000F5F1F4F0330110579F7F701BD9686E0DA
:1040A000DF011D928A95E9F719820E94C2B00C9433
:1040B000741784E090E0F101918380831EC9D801D8
:1040C000CD907D01D12C0E9438B081019601A701CD
:1040D000BC01C5010E942E9BF10180819181892B39
:1040E00009F00BC98CE0EEECF4E0DE0111960190D2
:1040F0000D928A95E1F70E94B9B0C4C8D801CD905D
:104100007D01D12C0E9429B081019601A701BC013B
:10411000C5010E942E9BF10180819181892B09F0BC
:10412000ECC80E94FC550E94D40260E070E00E943E
:10413000AE0223ED38E44EE85EE30E94C4B5698325
:104140007A838B839C830E94AAB09CC8D801CD90AF
:104150007D01D12C0E942CB081019601A701BC01E8
:10416000C5010E942E9BF10180819181892B09F06C
:10417000C4C86201FFEFCF1ADF0A0E94AF4A8091E4
:10418000320290913302A0913402B09135028983BA
:104190009A83AB83BC837E0126E0E20EF11C00E033
:1041A00010E00E94AB52B8010E94FF4BD7016D9303
:1041B0007D938D939D937D010F5F1F4F03301105FC
:1041C00081F783E08D830E94ADB00C947417D80101
:1041D000CD907D01D12C0E9423B081019601A701D1
:1041E000BC01C5010E942E9BF10180819181892B28
:1041F00009F083C83201FFEF6F1A7F0A85E8F501E5
:10420000DE01A15FBE4F01900D928A95E1F7D501C5
:104210008D909D90AD90BC90C12CD12C00E010E011
:10422000EE24E394F12CC454DA4F79826882CC5B9B
:10423000D540C054DA4F59824882C05CD540C7018E
:10424000002E02C0880F991F0A94E2F7092E000C75
:10425000AA0BBB0B88219921AA21BB21892B8A2B70
:104260008B2B09F0E9C50F5F1F4F0330110539F79C
:10427000C454DA4F68807980CC5BD540C054DA4FA3
:1042800048805980C05CD54019820E94A4B00C942B
:104290000018F801C1907F01D12C0E944DB081011E
:1042A0009601A701BC01C5010E942E9BD1018D91F1
:1042B0009C91892B09F021C84201BFEF8B1A9B0A00
:1042C0006E01EAE8CE0ED11C85E8F501D601019019
:1042D0000D928A95E1F786010B5F1F4FD601149668
:1042E0002C9114976C91C851DA4F2883C85ED54041
:1042F000C951DA4F6883C75ED5400E949675C85190
:10430000DA4F2881C85ED540A801C951DA4F6881CB
:10431000C75ED5400E941675892B01F70E949675DD
:104320000E94827519820E94CEB07101820120E83C
:1043300030E0A401BC01CE0101960E94EC9A0C94DD
:104340007D19D801CD907D01D12C0E941DB0810135
:104350009601A701BC01C5010E942E9BF10180813D
:104360009181892B11F00C947D193201FFEF6F1AA6
:104370007F0A85E8F501DE01A75EBD4F01900D9231
:104380008A95E1F7D5018D909D90AD90BC90C12CA0
:10439000D12C00E010E0EE24E394F12CC454DA4F69
:1043A00079826882CC5BD540C054DA4F598248820A
:1043B000C05CD540C701002E02C0880F991F0A9427
:1043C000E2F7092E000CAA0BBB0B88219921AA2128
:1043D000BB21892B8A2B8B2B09F0A8C60F5F1F4F9F
:1043E0000330110539F7C454DA4F68807980CC5B0B
:1043F000D540C054DA4F48805980C05CD5401982FE
:104400000E949EB00C940018D801CD907D01D12C53
:104410000E940BB081019601A701BC01C5010E9459
:104420002E9BF10180819181892B11F00C947D19D3
:104430000E94607060E070E00E9408706A837B8375
:104440008C839D830E94607061E070E00E94087020
:104450006E837F83888799870E94607062E070E036
:104460000E9408706A877B878C879D8783E0898399
:104470000E948CB00C944219D801CD907D01D12CB2
:104480000E9414B081019601A701BC01C5010E94E0
:104490002E9BF10180819181892B11F00C947D1963
:1044A0003201FFEF6F1A7F0A9E0128553C4FC4541A
:1044B000DA4F39832883CC5BD54085E8F501D901F3
:1044C00001900D928A95E1F7D5018D909D90AD9068
:1044D000BC90C12CD12C00E010E0EE24E394F12C30
:1044E000C054DA4F79826882C05CD540CC53DA4F31
:1044F00059824882C45CD540C701002E02C0880F93
:10450000991F0A94E2F7092E000CAA0BBB0B882115
:104510009921AA21BB21892B8A2B8B2B09F07DC5E0
:104520000F5F1F4F0330110539F7C054DA4F688011
:104530007980C05CD540CC53DA4F48805980C45C48
:10454000D54019820E9495B00C940018D801CD90E6
:104550007D01D12C0E94F3AF81019601A701BC011E
:10456000C5010E942E9BF10180819181892B11F060
:104570000C947D196201FFEFCF1ADF0AD5018C91EF
:1045800081113CC71A8219821C821B820E94DC5D49
:104590009E012F5F3F4F5901B9010E943E5A198277
:1045A0000E9474B0AECBD801CD907D01D12C0E9479
:1045B000F6AF81019601A701BC01C5010E942E9BA7
:1045C000F10180819181892B11F00C947D190E9459
:1045D000607060E070E00E942A70092E000CAA0B47
:1045E000BB0B8A839B83AC83BD830E94607061E0B8
:1045F00070E00E942A70092E000CAA0BBB0B8E8360
:104600009F83A887B9870E94607062E070E00E9473
:104610002A70092E000CAA0BBB0B8A879B87AC87DC
:10462000BD8783E089830E9477B00C944219F8011A
:10463000C1907F01D12C0E9444B081019601A70155
:10464000BC01C5010E942E9BD1018D919C91892BAB
:1046500011F00C947D196201BFEFCB1ADB0AF50152
:10466000E1808081882309F4C4C5F12C00E010E0CA
:10467000C701002E02C0959587950A94E2F780FD48
:104680007EC30F5F1F4F0330110591F719820E94FF
:10469000C5B00C947417D801CD907D01D12C0E9427
:1046A00008B081019601A701BC01C5010E942E9BA3
:1046B000F10180819181892B11F00C947D190E9468
:1046C000607060E070E00E94E26F6A837B838C839D
:1046D0009D830E94607061E070E00E94E26F6E83D3
:1046E0007F83888799870E94607062E070E00E94F3
:1046F000E26F6A877B878C879D8783E089830E942E
:1047000089B00C944219D801CD907D01D12C0E9422
:10471000FCAF81019601A701BC01C5010E942E9B3F
:10472000F10180819181892B11F00C947D190E94F7
:10473000607060E070E00E94706F6A837B838C839E
:104740009D830E94607061E070E00E94706F6E83D4
:104750007F83888799870E94607062E070E00E9482
:10476000706F6A877B878C879D8783E089830E942F
:104770007DB00C944219D801CD907D01D12C0E94BE
:1047800047B081019601A701BC01C5010E942E9B83
:10479000F10180819181892B11F00C947D1985E8BC
:1047A000F501DE01A95CBA4F01900D928A95E1F7FF
:1047B000C55CDA4F0881CB53D54010E0C95CDA4FB5
:1047C000E880F980C753D5400E94AD3747E355E0F4
:1047D0004C0F5D1F4B5F5F4F9801B7010E944F3731
:1047E00019820E94C8B00C944219F801C1907F014F
:1047F000D12C0E94E1AF81019601A701BC01C50146
:104800000E942E9BD1018D919C91892B11F00C94CB
:104810007D19F501C080D180E280F380A701662771
:1048200077278D2C9E2CAF2CBB24CB51DA4F48839D
:10483000C55ED540CA51DA4F5883C65ED540C951CE
:10484000DA4F6883C75ED540CC51DA4F7883C45EB7
:10485000D5400E946136CB51DA4F4881C55ED540C4
:10486000582D6C2D0E94CC350E946136DC011C92C3
:1048700019820E9462B00C944219D801CD907D013A
:10488000D12C0E9453B081019601A701BC01C50142
:104890000E942E9BF10180819181892B11F00C9453
:1048A0007D194201FFEF8F1A9F0A89E8F501DE01A9
:1048B000119601900D928A95E1F79E0126573F4F80
:1048C000690159013FEFA31AB30AED802985698177
:1048D000C851DA4F2883C85ED540C951DA4F688382
:1048E000C75ED5400E9496758501C851DA4F288170
:1048F000C85ED540AE01465F5F4FC951DA4F68814F
:10490000C75ED5400E945375892BF9F60E949675B3
:104910000E9482758D81D6018C930E94D4B0710162
:10492000820120E830E0A401BC01C6010E94EC9A9B
:104930000C947D19D801CD907D01D12C0E941AB024
:1049400081019601A701BC01C5010E942E9BF101C6
:1049500080819181892B11F00C947D193201FFEF38
:104960006F1A7F0A9E0122563D4FC054DA4F398399
:104970002883C05CD54085E8F501D90101900D92EE
:104980008A95E1F7D5018D909D90AD90BC90C12C9A
:10499000D12C00E010E0EE24E394F12CC454DA4F63
:1049A00079826882CC5BD540CC53DA4F59824882F9
:1049B000C45CD540C701002E02C0880F991F0A941D
:1049C000E2F7092E000CAA0BBB0B88219921AA2122
:1049D000BB21892B8A2B8B2B09F081C10F5F1F4FC5
:1049E0000330110539F7C454DA4F68807980CC5B05
:1049F000D540CC53DA4F48805980C45CD5401982E9
:104A00000E949BB00C940018D801CD907D01D12C50
:104A10000E94F0AF81019601A701BC01C5010E946F
:104A20002E9BF10180819181892B11F00C947D19CD
:104A30006201FFEFCF1ADF0AD50111963C91119761
:104A400012968D919D910D90BC91A02DF50106813E
:104A5000E7804085518562857385C054DA4F48836D
:104A600059836A837B83C05CD5401485F584468571
:104A7000578560897189C454DA4F488359836A83A2
:104A80007B83CC5BD54020812111B7C39E012F5F72
:104A90003F4F5901002369F1D401EE2009F46CC5A0
:104AA00099961D921D921D921C929C97C054DA4FAC
:104AB000288139814A815B81C05CD5405D962D9308
:104AC0003D934D935C93909781E051968C9387ED45
:104AD00093E19A8389839C828B820E94AF4A28EC5F
:104AE00030E040E050E0B5010E94474BF401968B66
:104AF000858B112371F0D401F1104AC557960D91A1
:104B00001C9158970E94AF4AB8010E94464AF4018E
:104B1000128A19820E9471B0F4C8D801CD907D012B
:104B2000D12C0E9420B081019601A701BC01C501D2
:104B30000E942E9BF10180819181892B11F00C94B0
:104B40007D193201FFEF6F1A7F0A85E8F501DE015A
:104B5000AC56BE4F01900D928A95E1F7D5018D902C
:104B60009D90AD90BC90C12CD12C00E010E0EE24C3
:104B7000E394F12CC454DA4F79826882CC5BD5403F
:104B8000C054DA4F59824882C05CD540C701002E1C
:104B900002C0880F991F0A94E2F7092E000CAA0B95
:104BA000BB0B88219921AA21BB21892B8A2B8B2B16
:104BB00009F0E3C10F5F1F4F0330110539F7C454EB
:104BC000DA4F68807980CC5BD540C054DA4F48809A
:104BD0005980C05CD54019820E94A1B00C94001885
:104BE000C553DA4F48805980CB5CD540C353DA4F68
:104BF00028803980CD5CD540C153DA4FA880B98078
:104C0000CF5CD54019820E94BFB07101820120E8BB
:104C100030E0CB52DA4F48815981C55DD540BC01A7
:104C2000C5010E94EC9A0C947D193201FFEF6F1AB6
:104C30007F0A85E8F501DE01A35DBB4F01900D926F
:104C40008A95E1F7D5018D909D90AD90BC90C12CD7
:104C5000D12C00E010E0EE24E394F12CC454DA4FA0
:104C600079826882CC5BD540C054DA4F5982488241
:104C7000C05CD540C701002E02C0880F991F0A945E
:104C8000E2F7092E000CAA0BBB0B88219921AA215F
:104C9000BB21892B8A2B8B2B09F07EC00F5F1F4F06
:104CA0000330110539F7C454DA4F68807980CC5B42
:104CB000D540C054DA4F48805980C05CD540198235
:104CC0000E9492B00C940018892B11F00C943A1E9B
:104CD000D3011696FC92EE9215970C943A1EF601AB
:104CE000EE0FFF1FEE0FFF1FC054DA4F6880798070
:104CF000C05CD540E60DF71D458056806780708406
:104D00000E946070A3019201B8010E943D6F0E9451
:104D1000DC5D9801220F331F820F931FDC018D9100
:104D20009C91892B41F1C851DA4F2883C85ED54048
:104D3000CC51DA4F3883C45ED5400E94DC5DC85147
:104D4000DA4F2881C85ED540CC51DA4F3881C45E35
:104D5000D540820F931FFC0180819181DC01ED9190
:104D6000FC910484F585E02DB3E0E330FB0719F0F6
:104D7000B301A2010995EFEFCE1ADE0A2FCE0E94F1
:104D8000DC5DB8010E94385A0E94DC5D40E050E0D2
:104D9000B8010E94D75975CCF601EE0FFF1FEE0F38
:104DA000FF1F7DE2672E74E0772E6C0E7D1EE60DF0
:104DB000F71D45805680678070840E946070A30153
:104DC0009201B8010E943A700E94DC5D9801220FA6
:104DD000331F820F931FDC018D919C91892B41F130
:104DE000C851DA4F2883C85ED540CC51DA4F38839A
:104DF000C45ED5400E94DC5DC851DA4F2881C85E90
:104E0000D540CC51DA4F3881C45ED540820F931F14
:104E1000FC0180819181DC01ED91FC91028CF38D8C
:104E2000E02DB3E0EA30FB0719F0B301A2010995C8
:104E3000EFEFCE1ADE0A32CFF601EE0FFF1FEE0FB4
:104E4000FF1FBFE06B2E772473946C0E7D1EE60D62
:104E5000F71D45805680678070840E946070A301B2
:104E60009201B8010E94F76F0E94DC5D9801220F49
:104E7000331F820F931FDC018D919C91892B41F18F
:104E8000C851DA4F2883C85ED540CC51DA4F3883F9
:104E9000C45ED5400E94DC5DC851DA4F2881C85EEF
:104EA000D540CC51DA4F3881C45ED540820F931F74
:104EB000FC0180819181DC01ED91FC910688F789EC
:104EC000E02DB3E0E830FB0719F0B301A20109952A
:104ED000EFEFCE1ADE0AC7C9F601EE0FFF1FEE0F85
:104EE000FF1FCC53DA4F68807980C45CD540E60D53
:104EF000F71D45805680678070840E946070A30112
:104F00009201B8010E94856F0E94DC5D9801220F1A
:104F1000331F820F931FDC018D919C91892B41F1EE
:104F2000C851DA4F2883C85ED540CC51DA4F388358
:104F3000C45ED5400E94DC5DC851DA4F2881C85E4E
:104F4000D540CC51DA4F3881C45ED540820F931FD3
:104F5000FC0180819181DC01ED91FC910088F18957
:104F6000E02DB3E0E530FB0719F0B301A20109958C
:104F7000EFEFCE1ADE0A0C94371FF601EE0FFF1F7B
:104F8000EE0FFF1F74E9672E772473946C0E7D1E5D
:104F9000E60DF71D45805680678070840E94607022
:104FA000A3019201B8010E94D16F0E94DC5D9801BB
:104FB000220F331F820F931FDC018D919C91892B4F
:104FC00041F1C851DA4F2883C85ED540CC51DA4F41
:104FD0003883C45ED5400E94DC5DC851DA4F288119
:104FE000C85ED540CC51DA4F3881C45ED540820FBF
:104FF000931FFC0180819181DC01ED91FC9104887B
:10500000F589E02DB3E0E730FB0719F0B301A20109
:105010000995EFEFCE1ADE0ACDCDF601EE0FFF1F98
:10502000EE0FFF1FC454DA4F68807980CC5BD54007
:10503000E60DF71D45805680678070840E94607081
:10504000A3019201B8010E945F6F0E94DC5D98018C
:10505000220F331F820F931FDC018D919C91892BAE
:1050600041F1C851DA4F2883C85ED540CC51DA4FA0
:105070003883C45ED5400E94DC5DC851DA4F288178
:10508000C85ED540CC51DA4F3881C45ED540820F1E
:10509000931FFC0180819181DC01ED91FC910684DC
:1050A000F785E02DB3E0E430FB0719F0B301A2016E
:1050B0000995EFEFCE1ADE0A33CAF601EE0FFF1F95
:1050C000EE0FFF1FB2EBAB2EB4E0BB2EAC0EBD1E3D
:1050D000EA0DFB1D858096800E946070A401B801D6
:1050E0000E941D700E94DC5D5801AA0CBB1C8A0D39
:1050F0009B1DDC018D919C91892B99F00E94DC5DB8
:105100008A0D9B1DFC0180819181DC01ED91FC9158
:10511000008CF18DE02DB3E0E930FB0711F0B40114
:105120000995EFEFCE1ADE0A0C94F817F601EE0F90
:10513000FF1FEE0FFF1FB9E16B2EB2E07B2E6C0E4E
:105140007D1EE60DF71D45805680678070840E94A5
:105150006070A3019201B8010E94AB6F0E94DC5DF8
:105160009801220F331F820F931FDC018D919C91B8
:10517000892B41F1C851DA4F2883C85ED540CC5104
:10518000DA4F3883C45ED5400E94DC5DC851DA4FE7
:105190002881C85ED540CC51DA4F3881C45ED540F5
:1051A000820F931FFC0180819181DC01ED91FC91C4
:1051B0000288F389E02DB3E0E630FB0719F0B30174
:1051C000A2010995EFEFCE1ADE0A08C982E090E04D
:1051D000F401918380830C94371DF30196828582BC
:1051E0000C943A1ED30116961C921E9215970C949D
:1051F0003A1E87E0E82EF12C39CAF401332309F472
:10520000ADC115A216A217A210A6818F928FA38FEF
:10521000B48F81E0808B82E794E19A8389839C82BA
:105220008B820E94AF4A28EC30E040E050E0BE01A3
:105230006F5F7F4F5B010E94474BD40154969C9354
:105240008E93539727CC019711F00C94B91DD2017E
:105250008D919C918230910509F4FDC183309105B7
:1052600009F4C6C1019711F00C94B91DF601208113
:10527000318142815381C851DA4F2883C85ED540BD
:10528000CC51DA4F3883C45ED540CB51DA4F4883D6
:10529000C55ED540CA51DA4F5883C65ED5400E94DC
:1052A000DC5DC851DA4F2881C85ED540CC51DA4F59
:1052B0003881C45ED540CB51DA4F4881C55ED540B8
:1052C000CA51DA4F5881C65ED540B3010E94AA5A2E
:1052D0000C94B91D0E94DC5D9301220F331F820FD5
:1052E000931FDC010D911C910115110511F40C9413
:1052F000C11DF801E080F18020E030E04AE754E48D
:10530000D5016D917D918D919C910E9485B70E94F0
:105310003DB6AB01BC01D7019296ED91FC919397FC
:10532000C8010995C653DA4FB881CA5CD540BB2382
:1053300011F40C94C11DF10180819181D801ED918E
:10534000FC9104A0F5A1E02D8130910509F425C25E
:10535000029709F41CC261E070E0C80109950C9441
:10536000C11D8DE390E19A8389839C828B820E9488
:105370009154FE0131965F01AF0160E070E00E9440
:10538000F35386EC9EE09A8389839C828B820E94F1
:105390009154A50161E070E00E94F35385E89EE01E
:1053A0009A8389839C828B820E949154A50162E03A
:1053B00070E00E94F3530C94E71FFD9640835183E5
:1053C00062837383369681E0808385EC9CE09A83C8
:1053D00089839C828B820E94AF4A28EC30E040E0B7
:1053E00050E0BE016F5F7F4F5B010E94474BF401AD
:1053F000EF5BFF4F918380830C947E1E89E096E1E2
:105400009A8389839C828B820E94DC5DFE013196A7
:105410005F01BF010E943E5AC2C880E090E00C9438
:105420007017D2018D919C918230910509F47BC156
:105430008330910509F443C1019711F00C94B91D13
:10544000F6012081318142815381C851DA4F28838E
:10545000C85ED540CC51DA4F3883C45ED540CB51BD
:10546000DA4F4883C55ED540CA51DA4F5883C65ECD
:10547000D5400E94DC5DC851DA4F2881C85ED54016
:10548000CC51DA4F3881C45ED540CB51DA4F4881D8
:10549000C55ED540CA51DA4F5881C65ED540B301CA
:1054A0000E944D5B0C94B91DD2018D919C9181306D
:1054B000910509F497C0029711F00C94B91DD6011B
:1054C0002D913D914D915C91CF52DA4F28833983D4
:1054D0004A835B83C15DD5400E94AB52B3010E94F9
:1054E000FF4B9B01AC01CF52DA4F688179818A81F1
:1054F0009B81C15DD5400E9453B59B01AC01C85151
:10550000DA4F2883C85ED540CC51DA4F3883C45E69
:10551000D540CB51DA4F4883C55ED540CA51DA4FEA
:105520005883C65ED5400E94DC5DC851DA4F2881A1
:10553000C85ED540CC51DA4F3881C45ED540CB51DE
:10554000DA4F4881C55ED540CA51DA4F5881C65EF0
:10555000D540B3010E94395D0C94B91DA388B4886D
:105560000E94AF4AB5010E94464AD40150961C924F
:10557000FE0131965F018ECA55966D907C905697CC
:105580000E94AF4AB3010E94464AF401118AB1CA8F
:105590009D961D921D921D921C92D097C454DA4F75
:1055A000288139814A815B81CC5BD54091962D93CE
:1055B0003D934D935C93949781E052968C938CE34A
:1055C00093E19A8389839C828B820E94AF4A28EC64
:1055D00030E040E050E0B5010E94474BF401908F6D
:1055E000878B97CAF601208131814281538187CF11
:1055F0000E94DC5DB3010E94385AF601608171811E
:10560000828193810E9436B6AB01BC01CB51DA4F47
:105610004883C55ED540CA51DA4F5883C65ED5402F
:10562000C951DA4F6883C75ED540CC51DA4F7883D1
:10563000C45ED5400E94DC5DCB51DA4F4881C55E27
:10564000D540CA51DA4F5881C65ED540B3010E9499
:10565000AE590C94B91DD6012D913D914D915C919F
:10566000C851DA4F2883C85ED540CC51DA4F388311
:10567000C45ED540CB51DA4F4883C55ED540CA5190
:10568000DA4F5883C65ED5400E94DC5DC851DA4FC0
:105690002881C85ED540CC51DA4F3881C45ED540F0
:1056A000CB51DA4F4881C55ED540CA51DA4F588197
:1056B000C65ED540B3010E94225B0C94B91DF60171
:1056C0002081318142815381C851DA4F2883C85EDD
:1056D000D540CC51DA4F3883C45ED540CB51DA4F38
:1056E0004883C55ED540CA51DA4F5883C65ED5405F
:1056F0000E94DC5DC851DA4F2881C85ED540CC518C
:10570000DA4F3881C45ED540CB51DA4F4881C55E4F
:10571000D540CA51DA4F5881C65ED540B3010E94C8
:105720001B5C0C94B91DD6012D913D914D915C915E
:10573000C851DA4F2883C85ED540CC51DA4F388340
:10574000C45ED540CB51DA4F4883C55ED540CA51BF
:10575000DA4F5883C65ED5400E94DC5DC851DA4FEF
:105760002881C85ED540CC51DA4F3881C45ED5401F
:10577000CB51DA4F4881C55ED540CA51DA4F5881C6
:10578000C65ED540B3010E94F05B0C94B91D60E089
:1057900070E0C80109950C94C11D62E070E0C80179
:1057A00009950C94C11D2F923F924F925F926F9278
:1057B0007F928F929F92AF92BF92CF92DF92EF92A1
:1057C000FF920F931F93CF93DF93CDB7DEB7C452F1
:1057D000D4400FB6F894DEBF0FBECDBF3C018B01A5
:1057E000DB011A962C911A9727FD8EC1243009F4FB
:1057F00069C4FB01858987FD1AC0CC5DDB4F0FB6FC
:10580000F894DEBF0FBECDBFDF91CF911F910F91F6
:10581000FF90EF90DF90CF90BF90AF909F908F90D0
:105820007F906F905F904F903F902F9008957E01F2
:10583000F6EAEF1AFCEFFF0A86E8D7011D928A9577
:10584000E9F7FB0160817181918D292F30E0359559
:1058500027953595279523709295969596959370F3
:10586000223009F444C4233009F437C4923009F4D7
:105870003AC143E050E0933009F436C4E0E0F0E090
:1058800068507109641B750B6E1B7F0BA801435E8A
:105890005F4F223009F43AC4233009F03EC42AE0B5
:1058A00030E0923009F435C4933009F02DC4C901B9
:1058B0000896840F951F02960E94609EC25FDB4F80
:1058C0002883CE50D440C15FDB4F3883CF50D440C3
:1058D000C05FDB4F4883C051D440CF5EDB4F58835D
:1058E000C151D440CE5EDB4F6883C251D440CD5EFF
:1058F000DB4F7883C351D440CC5EDB4F8883C451E7
:10590000D440CB5EDB4F9883C551D440A70162E7FA
:1059100073E0CE01825F9B4F0E946EA5882309F43D
:10592000C9C3D70111964D915D916D917C911497EA
:105930008BE0F8013D96DE01A550BC4F01900D9221
:105940008A95E1F78BE0FE01E550FC4FDE01A052A5
:10595000BC4F01900D928A95E1F7DD24D394C55197
:10596000DC4FD882CB5ED340C451DC4F488359838F
:105970006A837B83CC5ED340F8018285882309F457
:10598000E6C3823009F039CFF3018081811153C51C
:105990008E010F5F1F4F8EE2D8011D928A95E9F7A5
:1059A000F701658170E0C70106960E94609ECA5F9C
:1059B000DB4F2883C650D440C95FDB4F3883C750C4
:1059C000D440C85FDB4F4883C850D440C75FDB4F2B
:1059D0005883C950D440C65FDB4F6883CA50D44057
:1059E000C55FDB4F7883CB50D440C45FDB4F8883E7
:1059F000CC50D440C35FDB4F9883CD50D440A80136
:105A000062EA73E0CE018A5F9B4F0E946EA58823F5
:105A100009F450C31981112309F467C58E010E5F83
:105A20001F4FE12CF12C0BC0FFEFEF1AFF0A0B5FA9
:105A30001F4F298130E0E216F3060CF0DECE0E9403
:105A4000F349BC016354764FC8010E943BBB892BCC
:105A500059F78AA58111BDC58BE0FE01E052FC4FCC
:105A6000DE01AD5CBE4F01900D928A95E1F70E9478
:105A7000F349CD5CDE4FC880C353D140CC5CDE4FD0
:105A8000D880C453D140CB5CDE4FE880C553D140B1
:105A9000CA5CDE4FF880C653D140C95CDE4F088136
:105AA000C753D140C85CDE4F1881C853D140C75C92
:105AB000DE4F2881C953D140C65CDE4F3881CA53BE
:105AC000D140C55CDE4F4881CB53D140C45CDE4F32
:105AD0005881CC53D140C35CDE4F6881CD53D14057
