:100000000C9472010C9491010C9491010C94910147
:100010000C9491010C9491010C9491010C94910118
:100020000C9491010C9491010C9491010C94910108
:100030000C9491010C9491010C9491010C949101F8
:100040000C9491010C9491010C9491010C949101E8
:100050000C9491010C9491010C9491010C949101D8
:100060000C9491010C94E1310C9491010C94910148
:100070000C9491010C947A020C9491010C949101CE
:100080000C9491010C9491010C9491010C949101A8
:100090000C9433320C9491010C9491010C940470E3
:1000A0000C9491010C9491010C9491010C94910188
:1000B0000C9491010C9491010C9491010C94454580
:1000C0000C9491010C9491010C9491010C94910168
:1000D0000C9491010C9491010C9491010C94910158
:1000E0000C9491010C9491010C9491010C94123692
:1000F0000C9481430C9491010C9491010C94D2378F
:100100000C9491010C9491010C9491010C94910127
:100110000C9491010C9491010C9491010C94910117
:1001200098255D252E25DB24A417A417A417A41752
:10013000A417A417A417A417A417A417A5246B2405
:100140002724F023E321BB216221F62092222822DA
:10015000FA22BB20B62082207D20782073203F2009
:10016000F01FA31F5A1F111FC71E821E3F1E3B1EDA
:10017000371E331EF81DB01AB9196419631AF31922
:100180000E19C9183918C417432E092EB22DA92DDE
:100190009E2D772D4F2E18851F8526852D8534851C
:1001A0003B85408545854C8555855C85FB8402856E
:1001B000419F419F419F3F9F209F3D9F3D9F3D9F6E
:1001C0000C9F3D9F05A84CCDB2D44EB93836A9023C
:1001D0000C50B9918688083CA6AAAA2ABE00000045
:1001E000803F6E616E00696E660000407A10F35ABF
:1001F00000A0724E18090010A5D4E80000E8764867
:10020000170000E40B54020000CA9A3B000000E112
:10021000F505000080969800000040420F000000A5
:10022000A08601000000102700000000E803000085
:1002300000006400000000000A000000000001004F
:10024000000000002C76D888DC674F0823DFC1DF70
:10025000AE59E1B1B796E5E3E453C63AE651997673
:1002600096E8E6C28426EB898C9B62ED407C6FFCAD
:10027000EFBC9C9F40F2BAA56FA5F490055A2AF7EF
:100280005C936B6CF9676DC11BFCE0E40D47FEF5F8
:1002900020E6B500D0ED902E030094357705008060
:1002A000841E080000204E0A000000C80C333333BF
:1002B000330F986E12831141EF8D2114893BE6555F
:1002C00016CFFEE6DB18D1844B381BF77C1D901D42
:1002D000A4BBE424203284725E228100C9F124ECA4
:1002E000A1E53D2711241FBECFEFD1E4DEBFCDBF76
:1002F00013E1A0E0B2E0E0E6FEE501E00BBF02C0E2
:1003000007900D92A832B107D9F722E2A8E2B3E133
:1003100001C01D92A332B207E1F70E9486100C942F
:100320002EAF0C94000008950895E82FF0E0E05CF3
:10033000FE4F60830895E82FF0E0E05CFE4F80817F
:100340000895E82FF0E0E05CFE4F80816823862F5F
:1003500090E002C0959587954A95E2F70895922F0F
:10036000E82FF0E0E05CFE4F262F2095808182236D
:10037000292F01C0220F4A95EAF72623282B208334
:10038000089587FD8FE780938001482F50E081E832
:1003900091E00C94F6ADEF92FF921F93CF93DF9311
:1003A0007A0110917B01161708F4612FC62FD0E057
:1003B000AE0160E871E00E94F6ADC058DE4F888162
:1003C000F7018083812FDF91CF911F91FF90EF90F4
:1003D0000895FF920F931F93CF93DF938C01F62E16
:1003E000EA01209751F047E060E886E00E94A10111
:1003F00091E0813009F090E0988340E050E06F2D6B
:10040000C801DF91CF911F910F91FF900C94CB0108
:10041000CF92DF92FF920F931F93CF93DF938C01C4
:10042000F62E6A01E901209751F047E060E886E086
:100430000E94A10191E0813009F090E09883A6012B
:100440006F2DC801DF91CF911F910F91FF90DF9029
:10045000CF900C94CB0180917B010895FA01282F55
:1004600030E0A901460F511D403851051CF09FE7AF
:10047000692F681B462F50E0BF01C90180589E4F6D
:100480000C94F6ADFA01282F30E0A901460F511D5A
:100490004038510514F06FE7681B462F50E0B90152
:1004A00060587E4FCF010C94F6AD0E9499350E94A2
:1004B000E234FC0180818230C1F08DEC9CECACEC2C
:1004C000BFE320EC20937C0010927B002FEE209362
:1004D0007A008093381390933913A0933A13B09312
:1004E0003B1381E080933C13089580E090E0A0EA04
:1004F000BFE3E7CF1F920F920FB60F9211240BB6F6
:100500000F921F932F933F934F935F936F937F931C
:100510008F939F93AF93BF93CF93DF93EF93FF930B
:1005200080910B028F5F80930B02833008F442C0EE
:1005300010920B02D091780010917900C0910A02BC
:1005400080913C138823E1F18C2FC83060F4EC2FAC
:10055000F0E0EE0FFF1FE85DFC4E13702D2F30E032
:10056000312B318320838F5F883038F580930A02E6
:1005700080917C00807E80937C0090917C008091B3
:100580000A02892B80937C00FF91EF91DF91CF913C
:10059000BF91AF919F918F917F916F915F914F919B
:1005A0003F912F911F910F900BBE0F900FBE0F9098
:1005B0001F9018958111E8CFBDCF10920A02D8CFB5
:1005C0000E94550280910A02C0CF6830710540F444
:1005D000660F771FFC01E60FF71F80819181089558
:1005E00080E090E00895CF93DF9368307105D8F4F0
:1005F000FB01EC01EE0FFF1FEC0FFD1F608171810D
:1006000080E090E00E9437A9288939894A895B896E
:100610000E9450AA20E030E040E85AE30E9450AA2D
:10062000DF91CF91089560E070E0CB01DF91CF9131
:10063000089580913C13811102C00E94550288E206
:1006400093E10895DA011496ED91FC911597309796
:1006500039F0AB01BC0116968D919C9117970994C6
:1006600008956115710529F021E030E0DB012D933B
:100670003C93DA01ED91FC911197309731F0682F9E
:1006800012968D919C911397099580E090E00895C2
:100690000895089508950895089508950895089572
:1006A000DC01ED91FC910480F581E02D09940C941E
:1006B00063500C94BE4F0C9484572F923F924F92EC
:1006C0005F926F927F928F929F92AF92BF92CF92E2
:1006D000DF92EF92FF920F931F93CF93DF93CDB7EB
:1006E000DEB7C55AD1090FB6F894DEBF0FBECDBF35
:1006F0008C010E94A8710E940071C256DF4F68836E
:10070000CE59D040C156DF4F7883CF59D040C05624
:10071000DF4F8883C05AD040CF55DF4F9883C15AEE
:10072000D040CB01C056DF4FA881C05AD040CF5532
:10073000DF4FB881C15AD040C257DF4F88839983B9
:10074000AA83BB83CE58D0400E94A8710E94387102
:10075000CE55DF4F688379838A839B83C25AD0400A
:10076000CE56DF4F688379838A839B83C259D040FA
:100770000E94A8710E9470712B013C01CA56DF4F84
:10078000688379838A839B83C659D040D801D796E2
:100790008D909D90AD90BC90DA971801BBE22B0E26
:1007A000311CEEE8F0E0EC0FFD1F3496C656DF4F2B
:1007B000F983E883CA59D040C801C796C456DF4FB1
:1007C00099838883CC59D040C256DF4F8881CE5957
:1007D000D040C156DF4F9881CF59D040C056DF4F2F
:1007E000A881C05AD040CF55DF4FB881C15AD04000
:1007F000BC01CD01D1012D913D914D915D911D0126
:100800000E941DA86B017C0120E030E0A9010E943C
:100810008AA887FDB8C0A5019401C701B6010E944E
:100820004BAA1816DCF0C456DF4FE881F981CC5989
:10083000D0402E163F0609F48AC0C656DF4FA88165
:10084000B981CA59D0406D917D918D919D91C656C7
:10085000DF4FB983A883CA59D040CCCF0E94D3457B
:100860008091320290913302A0913402B09135020E
:10087000BE016F5F7F4F2DE8FB0111922A95E9F7CA
:1008800022E0298321E02A838B839C83AD83BE836E
:100890002F83C256DF4F8881CE59D040C156DF4FDB
:1008A0009881CF59D040C056DF4FA881C05AD04060
:1008B000CF55DF4FB881C15AD04088879987AA8722
:1008C000BB872C87CE55DF4F88819981AA81BB8158
:1008D000C25AD0408D879E87AF87B88B298B4A8AB2
:1008E0005B8A6C8A7D8AD801ED91FC9111973097D3
:1008F00029F012968D919C9113970995C256DF4F5E
:100900008881CE59D040C156DF4F9881CF59D04011
:10091000C056DF4FA881C05AD040CF55DF4FB881B5
:10092000C15AD040F80183A794A7A5A7B6A7CE5572
:10093000DF4F88819981AA81BB81C25AD04087A7A5
:1009400090ABA1ABB2AB43AA54AA65AA76AAF801B0
:1009500085ADCB55DF4F0FB6F894DEBF0FBECDBFD0
:10096000DF91CF911F910F91FF90EF90DF90CF908B
:10097000BF90AF909F908F907F906F905F904F90BF
:100980003F902F900895F7FAF094F7F8F09443CF42
:100990002F923F924F925F926F927F928F929F928F
:1009A000AF92BF92CF92DF92EF92FF920F931F937D
:1009B000CF93DF93CDB7DEB7C45BD1090FB6F89400
:1009C000DEBF0FBECDBF1C019E0122573F4FC75552
:1009D000DF4F39832883C95AD0408BE1D9011D925A
:1009E0008A95E9F70E94D345209132023091330273
:1009F0004091340250913502CF54DF4F2883398320
:100A00004A835B83C15BD0404EE850E04C0F5D1FD2
:100A1000455F5F4FC555DF4F59834883CB5AD04060
:100A2000710100E010E0C355DF4F188219821A826D
:100A30001B82CD5AD040C02E0E94CF4DB8010E94DB
:100A400023474B015C01C555DF4FA881B981CB5AC3
:100A5000D0406D937D938D939D93C555DF4FB983A2
:100A6000A883CB5AD040F101D0888D2D90E0002E84
:100A700002C0959587950A94E2F780FF45C0D7019B
:100A80005F962D913D914D915C919297C501B40176
:100A90000E941DA82B013C0120E030E0A9010E942A
:100AA0008AA887FD64C0A3019201F7016389748954
:100AB000858996890E948AA887FF26C081E090E0F8
:100AC00002C0880F991FCA94E2F7092E000CAA0BE6
:100AD000BB0BC355DF4F288139814A815B81CD5AD9
:100AE000D040282B392B4A2B5B2BC355DF4F288353
:100AF00039834A835B83CD5AD040D7015F968D926C
:100B00009D92AD92BC9292970F5F1F4FB4E0EB0E97
:100B1000F11C0330110509F08ECFC355DF4F28813A
:100B200039814A815B81CD5AD040232B242B252B40
:100B300019F581E0D11001C080E0CC54DF4F0FB631
:100B4000F894DEBF0FBECDBFDF91CF911F910F9103
:100B5000FF90EF90DF90CF90BF90AF909F908F90DD
:100B60007F906F905F904F903F902F90089577FA0D
:100B7000709477F8709497CF81E090E09093310271
:100B800080933002BE016F5F7F4F8DE8DB011D92C5
:100B90008A95E9F784E0898381E0C257DF4F888333
:100BA000CE58D040CF54DF4F288139814A815B81B4
:100BB000C15BD040C157DF4F288339834A835B83B1
:100BC000CF58D040CD56DF4F8883C359D040C3554E
:100BD000DF4F88819981AA81BB81CD5AD040CC5604
:100BE000DF4F88839983AA83BB83C459D04083E0B5
:100BF000C856DF4F8883C859D0408BE1FE01E257C9
:100C0000FF4FDE01129601900D928A95E1F7D10116
:100C1000ED91FC91309741F0D10112968D919C910C
:100C200013970995F101D088109231021092300289
:100C300080CF8F929F92AF92BF92CF92DF92EF922E
:100C4000FF920F931F93CF93DF93CDB7DEB7CD58AD
:100C5000D1090FB6F894DEBF0FBECDBF7C018B016A
:100C60006A0183E090E090933102809330020E9409
:100C7000D3458090320290903302A0903402B0901D
:100C800035020E94CF4DB8010E942347DE01119624
:100C90002DE8FD0111922A95E9F725E0298341E02D
:100CA0004A838B829C82AD82BE824F83012E000CD0
:100CB000220B330B088719872A873B874C87DE86F0
:100CC000CD864F87688B798B8A8B9B8BF701208130
:100CD00031812115310531F0BD01F7018281938108
:100CE000F90109951092310210923002C357DF4F7B
:100CF0000FB6F894DEBF0FBECDBFDF91CF911F912D
:100D00000F91FF90EF90DF90CF90BF90AF909F90AA
:100D10008F9008950C94B7530F931F9300E010E049
:100D200020E030E040E050E008960E941A8B1F91CE
:100D30000F9108950F931F93CF93DF9300D000D0AE
:100D4000CDB7DEB78C0188EC94E09A8389831C834D
:100D50000B830E94D34528EC30E040E050E0BE0118
:100D60006F5F7F4F0E946B46F801928B818B0F90D3
:100D70000F900F900F90DF91CF911F910F910895D9
:100D80008F929F92AF92BF92EF92FF921F93CF9359
:100D9000DF93CDB7DEB7CD58D1090FB6F894DEBFDB
:100DA0000FBECDBF7C01162F0E94D345809032022A
:100DB00090903302A0903402B0903502BE016F5F74
:100DC0007F4F8DE8DB011D928A95E9F783E08983E7
:100DD00091E09A838B829C82AD82BE829F8322E0C7
:100DE00030E0398728879A87212F30E03C872B878E
:100DF000D701ED91FC911197309729F012968D91C2
:100E00009C9113970995C357DF4F0FB6F894DEBF37
:100E10000FBECDBFDF91CF911F91FF90EF90BF909C
:100E2000AF909F908F9008958F929F92AF92BF92B4
:100E3000EF92FF921F93CF93DF93CDB7DEB7CD58DC
:100E4000D1090FB6F894DEBF0FBECDBF7C01162FBF
:100E50000E94D3458090320290903302A0903402D9
:100E6000B0903502BE016F5F7F4F8DE8DB011D92B0
:100E70008A95E9F783E0898391E09A838B829C824B
:100E8000AD82BE829F8321E030E0398728879A8730
:100E9000212F30E03C872B87D701ED91FC911197F2
:100EA000309729F012968D919C9113970995C3570D
:100EB000DF4F0FB6F894DEBF0FBECDBFDF91CF91ED
:100EC0001F91FF90EF90BF90AF909F908F900895EB
:100ED0008F929F92AF92BF92CF92DF92EF92FF924A
:100EE0000F931F93CF93DF93CDB7DEB7CE57D34089
:100EF0000FB6F894DEBF0FBECDBF41155105A1F46A
:100F0000C258DC4F0FB6F894DEBF0FBECDBFDF91E5
:100F1000CF911F910F91FF90EF90DF90CF90BF90F6
:100F2000AF909F908F9008959B018C01BA01C901E9
:100F30000E944392CF58DC4F2883C157D340CE58EC
:100F4000DC4F3883C257D340CD58DC4F4883C3575A
:100F5000D340CC58DC4F5883C457D340CB58DC4FD8
:100F60006883C557D340CA58DC4F7883C657D340EF
:100F7000C958DC4F8883C757D340C858DC4F988383
:100F8000C857D3407E0121E0E20EF21E81EDF70149
:100F900011928A95E9F7A7016AE575E0CE018F58AD
:100FA0009C4F0E948B99882349F0F80180819181A0
:100FB000C280D380F7011081113041F00E944D347E
:100FC0004FEF50E060E00E94B8339ACF06810430C2
:100FD00009F464C008F0A7C0023009F422C103304C
:100FE00069F75E01FEE2AF1AFEEFBF0A8BECF50176
:100FF00011928A95E9F70E9420512AE836E03A8357
:1010000029839C838B830E94D34528EE33E040E004
:1010100050E0BE016F5F7F4F0E946B46F501068373
:101020001782119387E8DF0101900D928A95E1F70D
:10103000F7018181F5018183F70182819381A48188
:10104000B581F50182839383A483B58340E051E0A9
:10105000BE016F5F7F4FCE0183569D4F0E94239C40
:10106000A5016AE375E0CE0183569D4F0E9450A111
:10107000882309F4A3CFCD55DD4F48815981C35A48
:10108000D240F601848995899E0129593C4FBE01C1
:101090006F5F7F4F08960E94A48E32CF8E010E5252
:1010A0001E4F8BECF80111928A95E9F7F7018085C4
:1010B00091852781222351F08130910509F493C154
:1010C0008230910509F488C1892B31F184E0F8015F
:1010D0008683178281E0819387E8DF0101900D927A
:1010E0008A95E1F7F7018181F8018183F701828117
:1010F0009381A481B581F80182839383A483B5830E
:1011000040E051E0BE016F5F7F4FCE0183569D4F9F
:101110000E94239CA801A5CF0E94174560E070E0C3
:101120000E940445D3CF053009F49BC0063009F076
:1011300045CF8E010E521E4F2BECF80111922A95CD
:10114000E9F72AECF7013796DE01A356BD4F01906F
:101150000D922A95E1F7CD55DD4F2881C35AD24033
:101160002111C3C09E012F5F3F4F59010E941745B7
:10117000FC01EA52FB4F808191812281338148E05A
:1011800084278217930709F422C1828193812081E9
:101190003181821B930B87709927A0E0B0E026E095
:1011A000F801268321E0278380879187A287B38770
:1011B000219387E8DF0101900D928A95E1F7F7010D
:1011C0008181F8018183F70182819381A481B581B6
:1011D000F80182839383A483B58340E051E0B50195
:1011E000CE0189599C4F0E94239CA8016AE375E0B7
:1011F000CE0189599C4F0E9450A1882309F4DECE6C
:10120000C359DC4F48815981CD56D340F6018489BA
:1012100095899E0127583C4FB50108960E94A48EDF
:101220006FCE5E01FEE2AF1AFEEFBF0A8BECF50156
:1012300011928A95E9F781E8ECE5F2E0DE0111967A
:1012400001900D928A95E1F7F501068381E8E15D51
:10125000F140D501179601900D928A95E1F7F501BD
:10126000E0CE8E010E521E4F8BECF80111928A9542
:10127000E9F7F70140855185628573858781882369
:1012800021F080911C02811102C085E020CFC55859
:10129000DC4F4883CB57D340C458DC4F5883CC57DE
:1012A000D340C358DC4F6883CD57D340C258DC4F7E
:1012B0007883CE57D3400E941745C558DC4F4881EC
:1012C000CB57D340C458DC4F5881CC57D340C35878
:1012D000DC4F6881CD57D340C258DC4F7881CE5760
:1012E000D3400E94804285E0F2CE20911C0222234E
:1012F00009F44AC0C353DD4F2881CD5CD24022237C
:1013000009F442C0C253DD4F488159816A817B8113
:10131000CE5CD240FC0184809580A680B7804815C1
:1013200059056A057B0581F144835583668377837C
:10133000C558DC4F4883CB57D340C458DC4F588343
:10134000CC57D340C358DC4F6883CD57D340C258E5
:10135000DC4F7883CE57D3400E941745C558DC4FE9
:101360004881CB57D340C458DC4F5881CC57D34029
:10137000C358DC4F6881CD57D340C258DC4F7881C9
:10138000CE57D3400E948042C356DD4F8881CD594D
:10139000D24081112FC088E0EDEDF2E09E012F5F79
:1013A0003F4F5901D90101900D928A95E1F782E0F2
:1013B00090E09A8789870E9417454DE952E04C0FCB
:1013C0005D1F495F5F4FB5010E943238CFCE88E084
:1013D00090E0A0E0B0E0E3CE0E94174562E070E04C
:1013E0000E94044573CE0E94174561E070E00E94A0
:1013F00004456CCE83E090E09A87898748E050E00E
:101400006DE972E06C0F7D1F6F5F7F4F9E012F5F54
:101410003F4F5901C9010E941BAE1886CCCFCF9215
:10142000DF92EF92FF920F931F93CF93DF93CDB78D
:10143000DEB7CD58D1090FB6F894DEBF0FBECDBFD1
:10144000FC012081211111C080E0C357DF4F0FB68E
:10145000F894DEBF0FBECDBFDF91CF911F910F91EA
:10146000FF90EF90DF90CF9008958C010E94D345BC
:10147000C0903202D0903302E0903402F0903502F6
:10148000F801A089B189BE016F5F7F4F8DE8FB0134
:1014900011928A95E9F788E0898381E08A83CB827B
:1014A000DC82ED82FE82ED91FC911197309729F05C
:1014B00012968D919C9113970995F8011082809155
:1014C0001C02882309F451C08091180280FD3CC0A1
:1014D00081FD29C082FD16C083FD0AC084FFB4CF00
:1014E0000E94416D40E050E0BA010E94496CACCFCF
:1014F0000E944D3440E05FEF6FEF0E94B83380915F
:101500001802ECCF0E94FA588C0162E070E00E9451
:101510005C5540E050E062E070E0C8010E94FB547E
:1015200080911802D9CF0E94FA588C0161E070E0D6
:101530000E945C5540E050E061E070E0C8010E940C
:10154000FB5480911802C6CF0E94FA588C0160E0CB
:1015500070E00E945C5540E050E060E070E0C8013F
:101560000E94FB5480911802B3CF0E944D34FC01BD
:101570008081882309F4A8CF0E944D3440E05FEFBA
:101580006FEF0E94B833A0CFCF92DF92EF92FF921D
:101590000F931F93CF93DF93CDB7DEB7CD58D1090B
:1015A0000FB6F894DEBF0FBECDBF8C016623D9F114
:1015B0000E94D3458091320290913302A09134026F
:1015C000B091350240910C0250910D0260910E02D3
:1015D00070910F02841B950BA60BB70B843F9140B3
:1015E000A105B10508F45AC00E94D345809132028A
:1015F00090913302A0913402B091350280930C0295
:1016000090930D02A0930E02B0930F020E94D34557
:10161000C0903202D0903302E0903402F090350254
:1016200021E030E00CC00E94D345C0903202D0903F
:101630003302E0903402F090350220E030E0BE0149
:101640006F5F7F4F8DE8DB011D928A95E9F783E09C
:10165000898391E09A83CB82DC82ED82FE829F8334
:101660009A873C872B87D801ED91FC91309731F018
:10167000D80112968D919C9113970995C357DF4F0E
:101680000FB6F894DEBF0FBECDBFDF91CF911F9193
:101690000F91FF90EF90DF90CF9008950E94D34577
:1016A0008091320290913302A0913402B0913502C0
:1016B000BE016F5F7F4F2DE8FB0111922A95E9F77C
:1016C00028E0298321E02A838B839C83AD83BE831A
:1016D000D801ED91FC91309731F0D80112968D919F
:1016E0009C9113970995E0914613F091471310824E
:1016F00080911C028823A1F08091180280FD4AC0CD
:1017000081FD37C082FD24C083FD18C084FFB6CFA1
:101710000E94416D40E050E0BA010E94496CAECF9A
:101720000E944D34FC018081882331F30E944D34A6
:1017300040E05FEF6FEF0E94B833DECF0E944D3480
:1017400040E05FEF6FEF0E94B83380911802DECF68
:101750000E94FA588C0162E070E00E945C5540E003
:1017600050E062E070E0C8010E94FB5480911802D2
:10177000CBCF0E94FA588C0161E070E00E945C556A
:1017800040E050E061E070E0C8010E94FB548091AD
:101790001802B8CF0E94FA588C0160E070E00E94F5
:1017A0005C5540E050E060E070E0C8010E94FB54EE
:1017B00080911802A5CF8091160280FD12C00E9470
:1017C0004D3440E050E060E00E94B8338091160252
:1017D000909117020196909317028093160281E070
:1017E00008950E944D344FEF50E060E00E94B833FE
:1017F000EDCF0C94DB0BE1E6F0E080E88083108213
:1018000078940E944D3440E050E86FEF0E94B83366
:101810000895CF92DF92EF92FF92CF93DF9300D0A3
:1018200000D000D0CDB7DEB71E821D820E94993550
:101830000E940E35FC01C080D180E280F380F1E08F
:10184000CF16D104F2E0EF06F10408F06EC0C11427
:10185000D104E104F10409F42DC08D819E8140E0A2
:1018600050E0BA016BBFFA0127919227092E02942A
:10187000202D2F702927392F3025330F307E232735
:10188000302D3927307F3695092E000C331F969561
:10189000969596959F7193279827822F4F5F5F4F5C
:1018A0006F4F7F4F4C155D056E057F0509F0DACF50
:1018B0009E838D830E9499350E940335FC0120810F
:1018C00031818D819E812817390719F10E944D348D
:1018D0004FEF50E060E00E94B8330E94993522E05B
:1018E00030E0AE014B5F5F4F66E274E00E943B3533
:1018F00080911C02811129C026960FB6F894DEBF94
:101900000FBECDBFDF91CF91FF90EF90DF90CF90D2
:10191000089580911C02882381F00E944D344FEF7E
:101920005FEF6FEF0E94B833E7CF0E944D344FEF67
:1019300050E060E00E94B833DFCF0E944D3440E0B9
:101940005FEF6FEF0E94B833D7CF89EF9BE09A83A8
:1019500089831C821B820E94D3452AEF30E040E03D
:1019600050E0BE016F5F7F4F0E946B46C5CFCF92A4
:10197000DF92EF92FF920F931F93CF93DF93CDB738
:10198000DEB7CD5CD1090FB6F894DEBF0FBECDBF78
:101990008E010F5F1F4F23ECF80111922A95E9F792
:1019A000FC0122852AA7C384D484E584F684CBA6CF
:1019B000DCA6EDA6FEA621E02FA723E028AB2DE8AC
:1019C000FB01DE01D19601900D922A95E1F72AE004
:1019D000FC01DE01AC53BF4F01900D922A95E1F757
:1019E0000E941745A801BE016C537F4F0E943238F8
:1019F000C353DF4F0FB6F894DEBF0FBECDBFDF91EC
:101A0000CF911F910F91FF90EF90DF90CF900895AD
:101A100001960C94B70CAF92BF92CF92DF92EF92E7
:101A2000FF920F931F93CF93DF93CDB7DEB7CD58BF
:101A3000D1090FB6F894DEBF0FBECDBF7C0166237F
:101A400009F449C00E9416860E94F3740E94D3458F
:101A5000409132025091330260913402709135020C
:101A60008091120290911302A0911402B09115027C
:101A7000481B590B6A0B7B0B443F514061057105B4
:101A800008F452C0FE0131965F010E94D345809157
:101A9000320290913302A0913402B09135028093CA
:101AA000120290931302A0931402B09315028FE0D8
:101AB0009AE09A838983FC82EB820E94D34528E0D6
:101AC00037E040E050E0B5010E946B46909345132B
:101AD0008093441317C00E9416860E9407750091D8
:101AE0004413109145130E94D345B8010E946A45E2
:101AF0000E94416D24E630E040E050E06CE573E484
:101B00000E94F96CC357DF4F0FB6F894DEBF0FBECB
:101B1000CDBFDF91CF911F910F91FF90EF90DF909C
:101B2000CF90BF90AF9008950E944D3411E0FC011A
:101B30001083F7018081811118C0CE0101965C01EC
:101B40000E94FA586C0100E010E0B801C6010E9442
:101B50005C5540E050E0B801C6010E94FB540F5FA5
:101B60001F4F0330110589F790CF0E94D345809114
:101B7000320290913302A0913402B091350228E0F4
:101B800029831A838B839C83AD83BE83FE013196A8
:101B90005F01BF01C70101960E94B70CF7011082D7
:101BA00080911C02882309F451C08091180280FDA5
:101BB0003CC081FD29C082FD16C083FD0AC084FFA0
:101BC000BFCF0E94416D40E050E0BA010E94496CD5
:101BD000B7CF0E944D3440E05FEF6FEF0E94B83303
:101BE00080911802ECCF0E94FA588C0162E070E0FC
:101BF0000E945C5540E050E062E070E0C8010E9445
:101C0000FB5480911802D9CF0E94FA588C0161E0F0
:101C100070E00E945C5540E050E061E070E0C80177
:101C20000E94FB5480911802C6CF0E94FA588C0182
:101C300060E070E00E945C5540E050E060E070E0E1
:101C4000C8010E94FB5480911802B3CF0E944D340A
:101C5000FC018081882309F4A8CF0E944D3440E024
:101C60005FEF6FEF0E94B833A0CF2F923F924F9259
:101C70005F926F927F928F929F92AF92BF92CF921C
:101C8000DF92EF92FF920F931F93CF93DF93CDB725
:101C9000DEB7CD59D1090FB6F894DEBF0FBECDBF68
:101CA0004C01FC01A081B1818C91811152C011E0E5
:101CB0001C930E944D34DC011C930E9416860E94E6
:101CC0000C8680911C02882309F46EC0F4012081E7
:101CD00031810280F381E02D8FE0D90111960190CE
:101CE0000D928A95E1F70E94D3458091320290913E
:101CF0003302A0913402B091350227E0298321E01C
:101D00002A838B839C83AD83BE83BE016F5F7F4F2D
:101D1000D40112968D919C9113970E94B70CC356D3
:101D2000DF4F0FB6F894DEBF0FBECDBFDF91CF916E
:101D30001F910F91FF90EF90DF90CF90BF90AF90E9
:101D40009F908F907F906F905F904F903F902F90DB
:101D50000895F4010280F381E02DC456DF4FF9832A
:101D6000E883CC59D0401B968C911B97928589179C
:101D700019F10E94D3458091320290913302A091D3
:101D80003402B091350228E0298321E02A838B8335
:101D90009C83AD83BE83BE016F5F7F4FF401828160
:101DA00093810E94B70CBBCF0E944D3440E050E0BD
:101DB0006FEF0E94B8338ACF8823B1F01C960D9143
:101DC0001D912D913C911F9743855485658576859E
:101DD000041715072607370761F68AE01196019068
:101DE0000D928A95E1F77FCF1196FC911197C2571A
:101DF000DF4FF883CE58D0401396EC911397CE5610
:101E0000DF4FE883C259D0401496FC911497CD5609
:101E1000DF4FF883C359D04012968C911297E82F68
:101E2000F0E0C157DF4FF983E883CF58D040C45664
:101E3000DF4FE881F981CC59D040F081CF56DF4F98
:101E4000F883C159D040C456DF4FE881F981CC599D
:101E5000D040F281CC56DF4FF883C459D040C456ED
:101E6000DF4FE881F981CC59D040F381CB56DF4F69
:101E7000F883C559D040C456DF4FE881F981CC5969
:101E8000D0408181282E312CCD56DF4F2881C35977
:101E9000D04030E040E050E060E070E080E090E072
:101EA00008E10E94BDA7C32ED42EE52EF62EC25700
:101EB000DF4F4880CE58D040422A172F12648265E7
:101EC000582E9264692ECE56DF4F2881C259D040D9
:101ED00030E040E050E060E070E080E090E000E161
:101EE0000E94BDA77C2C732AFD2DF42BE52AC95630
:101EF000DF4FE882C759D040F62AC856DF4FF88234
:101F0000C859D040172BC756DF4F1883C959D04046
:101F1000582A692AC157DF4F48815981CF58D0408C
:101F2000942F88275C01422A7B28CB56DF4F2881DB
:101F3000C559D04030E040E050E060E070E080E023
:101F400090E008E10E94BDA7B32E6A01E62ECF56AD
:101F5000DF4FE881C159D040E22BC656DF4FE883FE
:101F6000CA59D0407264F72EE82FE265192F126427
:101F7000CC56DF4F2881C459D04030E040E050E0DB
:101F800060E070E080E090E000E10E94BDA7A22E3A
:101F9000B32AC42AD52AE62AF72A0E2F082B192B92
:101FA000522D44279A01C656DF4FE881CA59D040C6
:101FB000AE2AB32A242D372D4F2FC956DF4F588113
:101FC000C759D040C856DF4F6881C859D040C7565E
:101FD000DF4F7881C959D040852D962D0E94F4A7F6
:101FE00009F481CEC157DF4F28813981CF58D040C5
:101FF000C257DF4FF881CE58D0403F2BC101CF569A
:10200000DF4FE881C159D0409E2B2817390789F04E
:10201000BD016F5F7F4F44E050E0C456DF4F8881C1
:102020009981CC59D0400E940DAE892B09F0A1CEE8
:102030005ACECD56DF4FF881C359D0402F2F30E014
:10204000CE56DF4FE881C259D0403E2BCB56DF4FF2
:10205000F881C559D0408F2F90E0CC56DF4FE881F2
:10206000C459D0409E2B2817390791F63CCEEF92E9
:10207000FF920F931F93CF93DF93CDB7DEB7CC5072
:10208000D1400FB6F894DEBF0FBECDBF7C018B01EF
:1020900040E051E0BE016F5F7F4FCE018F5F9E4FEA
:1020A0000E94239CA8016AE375E0CE018F5F9E4FDA
:1020B0000E9450A1811115C00E944D344FEF50E095
:1020C00060E00E94B833C45FDE4F0FB6F894DEBF05
:1020D0000FBECDBFDF91CF911F910F91FF90EF9079
:1020E0000895C95FDE4F48815981C750D140F7013B
:1020F000848995899E01255F3E4FBE016F5F7F4FAA
:1021000008960E94A48EDFCF0C943710CF93DF93F4
:10211000CDB7DEB7CC5BDD400FB6F894DEBF0FBEA7
:10212000CDBF0E94FB0B0E9417450E9419030E941D
:10213000B4700E94416D0E94A8710E94090C20E0B9
:1021400034E843E050E061E070E0CE018E5B944FF4
:102150000E948532CE018E5B944F0E94FE321A821D
:1021600019821C821B821E821D8218861F821D8678
:102170001C861F861E86CE0109960E94D58ACE0136
:1021800001966C01AC0162E273E008960E94938AAA
:10219000960141E353E060E070E0CE0109960E94B1
:1021A0009C8AC45BD24FD982C882CC54DD408CE873
:1021B00096E0C65BD24F99838883CA54DD40E2E43F
:1021C000FBE0EC0FFD1FFC83EB8380E593E09A833B
:1021D0008983F0934F14E0934E14D0924D13C09224
:1021E0004C137E01F3E5EF1AF2EFFF0AF7011182BB
:1021F0001082138212821482158216821782C75AA5
:10220000D24F19821882C955DD40C55AD24F198262
:102210001882CB55DD40C35AD24F19821882CD5552
:10222000DD40C15AD24F19821882CF55DD40CF59B7
:10223000D24F19821882C156DD40CD59D24F198232
:102240001882C356DD40CB59D24F19821882C55629
:10225000DD40C959D24F19821882C756DD40C7598F
:10226000D24F1882C956DD40C659D24F1982188202
:10227000CA56DD40CA56D24F1882C659DD408E017B
:102280000956124FD8011D9288E0EDEDF2E0019061
:102290000D928A95E1F782E090E0F80192878187BC
:1022A000138689E59DE08C0F9D1F918B808BF38AAF
:1022B000E28AD58AC48A90934B1380934A13F09292
:1022C0004913E09248131093471300934613B296B4
:1022D000F182E08213830283F887EF8388E697E038
:1022E0009E838D8383EB91E3CB54D24F9983888374
:1022F000C55BDD40C954D24F19830883C75BDD40FD
:102300000E941745BE016B54724F0E948A3DF7012F
:102310001383028384E890E191838083C55AD24F6E
:1023200019830883CB55DD4088E09DE0C75AD24F22
:1023300099838883C955DD400E9491507C010E9499
:102340006050C15AD24F19830883CF55DD402BE02E
:102350003DE0C35AD24F39832883CD55DD40CD5956
:10236000D24F99838883C356DD4089E593E0CF59E6
:10237000D24F99838883C156DD40C959D24FF98223
:10238000E882C756DD4087E593E0CB59D24F998369
:102390008883C556DD40CB54D24F39832883C55B33
:1023A000DD40C954D24F19830883C75BDD400E94CA
:1023B000B54FAE014B54524F60E070E00E94174F92
:1023C000CF59D24F88819981C156DD40CB54D24F2D
:1023D00099838883C55BDD40CD59D24F888199812F
:1023E000C356DD40C954D24F99838883C75BDD4013
:1023F0000E94B54FAE014B54524F61E070E00E9415
:10240000174FCB59D24F88819981C556DD40CB54A7
:10241000D24F99838883C55BDD40C959D24F8881EB
:102420009981C756DD40C954D24F99838883C75BD1
:10243000DD400E94B54FAE014B54524F62E070E058
:102440000E94174F80911C0281111BC00E94FA58F4
:102450002BE533E0CB54D24F39832883C55BDD4075
:10246000C954D24F99838883C75BDD400E94D3450E
:102470002AE030E040E050E0BE016B54724F0E9411
:102480006B46CA5BD44F28813981C654DB40C85B98
:10249000D44F88819981C854DB402817390709F443
:1024A00042C02FB7F894CA5BD44F48815981C654B3
:1024B000DB40C85BD44F88819981C854DB40481702
:1024C000590779F1CA5BD44FE881F981C654DB40E2
:1024D000F17082E49BE08C0F9D1FE80FF91F34968A
:1024E0006481CA5BD44F88819981C654DB400196D0
:1024F0009370CA5BD44F99838883C654DB402FBF47
:10250000C65BD24FE881F981CA54DD40309709F4A7
:10251000B8CFC45BD24F88819981CC54DD400995F6
:10252000B0CF6FEFECCF0E9417450E945C3F8091C7
:102530001C02882369F00E94D3450E94B74680910F
:102540001C0281119ECF0E94B54F0E94474F99CF28
:102550000E94CF4D0E945B49EECF4F925F926F92E7
:102560007F928F929F92AF92BF92CF92DF92FF9213
:102570000F931F93CF93DF93CDB7DEB72A970FB694
:10258000F894DEBF0FBECDBF8C01DC01ED91FC9154
:102590001197FF24F394F1AA2D913C911197129673
:1025A0000D90BC91A02D11968D919D910D90BC9197
:1025B000A02DF90182AB93ABA4ABB5AB0E947E6BAF
:1025C00060E070E00E946A6A2B013C010E947E6B11
:1025D00061E070E00E946A6A4B015C010E947E6BC0
:1025E00062E070E00E946A6AD801ED91FC91119757
:1025F0002CE126AB23E027AB40AE51AE62AE73AE0A
:1026000084AE95AEA6AEB7AEE05CFF4F608371833B
:1026100082839383ED91FC911197F0AAED91FC9147
:10262000119727A7CD90DC901197F601F6A6169684
:10263000ED91FC9117978AE0DE01119601900D92C1
:102640008A95E1F70E941745A601BE016F5F7F4F93
:102650000E9432382A960FB6F894DEBF0FBECDBF67
:10266000DF91CF911F910F91FF90DF90CF90BF909E
:10267000AF909F908F907F906F905F904F90089554
:102680004F925F926F927F928F929F92AF92BF9282
:10269000CF92DF92FF920F931F93CF93DF93CDB72B
:1026A000DEB72A970FB6F894DEBF0FBECDBF8C0100
:1026B000DC01ED91FC911197FF24F394F1AA2D9187
:1026C0003C91119712960D90BC91A02D11968D9171
:1026D0009D910D90BC91A02DF90182AB93ABA4AB61
:1026E000B5AB0E947E6B60E070E00E94B46A2B0183
:1026F0003C010E947E6B61E070E00E94B46A4B0175
:102700005C010E947E6B62E070E00E94B46AD801B6
:10271000ED91FC9111972EE126AB23E027AB40AE63
:1027200051AE62AE73AE84AE95AEA6AEB7AEE05C0F
:10273000FF4F6083718382839383ED91FC911197A6
:10274000F0AAED91FC91119727A7CD90DC901197FD
:10275000F601F6A61696ED91FC9117978AE0DE0138
:10276000119601900D928A95E1F70E941745A601F6
:10277000BE016F5F7F4F0E9432382A960FB6F894E1
:10278000DEBF0FBECDBFDF91CF911F910F91FF90A4
:10279000DF90CF90BF90AF909F908F907F906F9081
:1027A0005F904F9008954F925F926F927F928F92B9
:1027B0009F92AF92BF92CF92DF92FF920F931F939F
:1027C000CF93DF93CDB7DEB72A970FB6F894DEBF6D
:1027D0000FBECDBF8C01DC01ED91FC911197FF2460
:1027E000F394F1AA2D913C91119712960D90BC9102
:1027F000A02D11968D919D910D90BC91A02DF90168
:1028000082AB93ABA4ABB5AB0E947E6B60E070E093
:102810000E94DA6A2B013C010E947E6B61E070E04D
:102820000E94DA6A4B015C010E947E6B62E070E0FC
:102830000E94DA6AD801ED91FC9111972FE126AB45
:1028400023E027AB40AE51AE62AE73AE84AE95AE20
:10285000A6AEB7AEE05CFF4F608371838283938343
:10286000ED91FC911197F0AAED91FC91119727A79A
:10287000CD90DC901197F601F6A61696ED91FC919D
:1028800017978AE0DE01119601900D928A95E1F783
:102890000E941745A601BE016F5F7F4F0E9432382C
:1028A0002A960FB6F894DEBF0FBECDBFDF91CF9151
:1028B0001F910F91FF90DF90CF90BF90AF909F90AE
:1028C0008F907F906F905F904F9008954F925F929E
:1028D0006F927F928F929F92AF92BF92CF92DF9230
:1028E000FF920F931F93CF93DF93CDB7DEB72A9755
:1028F0000FB6F894DEBF0FBECDBF8C01DC01ED91A9
:10290000FC911197FF24F394F1AA2D913C9111971A
:1029100012960D90BC91A02D11968D919D910D90C8
:10292000BC91A02DF90182AB93ABA4ABB5AB0E94D7
:102930007E6B60E070E00E94006B2B013C010E9406
:102940007E6B61E070E00E94006B4B015C010E94B5
:102950007E6B62E070E00E94006BD801ED91FC910B
:10296000119720E226AB23E027AB40AE51AE62AE1A
:1029700073AE84AE95AEA6AEB7AEE05CFF4F60839B
:10298000718382839383ED91FC911197F0AAED916D
:10299000FC91119727A7CD90DC901197F601F6A630
:1029A0001696ED91FC9117978AE0DE011196019041
:1029B0000D928A95E1F70E941745A601BE016F5F4F
:1029C0007F4F0E9432382A960FB6F894DEBF0FBEB2
:1029D000CDBFDF91CF911F910F91FF90DF90CF90EE
:1029E000BF90AF909F908F907F906F905F904F902F
:1029F00008954F925F926F927F928F929F92AF92C3
:102A0000BF92CF92DF92EF92FF920F931F93CF93DB
:102A1000DF93CDB7DEB7C059D1090FB6F894DEBF4A
:102A20000FBECDBF7C01DC01ED91FC91119781E0DF
:102A300081AB2D913C91119712960D90BC91A02DD8
:102A400011968D919D910D90BC91A02DF90182ABB5
:102A500093ABA4ABB5AB86E8FB01DE011196019008
:102A60000D928A95E1F7DB011196CC9011978C912C
:102A7000882309F48CC0D12CA12CB12C00E010E0EB
:102A8000C601002E02C0959587950A94E2F780FD55
:102A900047C00F5F1F4F0330110591F7D701ED912C
:102AA000FC91119789E286AB17AAED91FC911197E1
:102AB00081E080ABED91FC91119793E097A70D9188
:102AC0001C911197F80186A71696ED91FC91179726
:102AD0008AE0DE01A957BF4F01900D928A95E1F778
:102AE0000E941745A801BE0169577F4F0E943238E6
:102AF000C057DF4F0FB6F894DEBF0FBECDBFDF91DA
:102B0000CF911F910F91FF90EF90DF90CF90BF90EA
:102B1000AF909F908F907F906F905F904F900895AF
:102B2000F501EE0FFF1FEE0FFF1F81E090E08C0F0D
:102B30009D1FE80FF91F46805780608471840E94B2
:102B40007E6BA3019201B8010E94156B0E94FA5896
:102B50004801880C991C880D991DDC018D919C9170
:102B6000892B89F00E94FA58880D991DFC01A081DB
:102B7000B181ED91FC9111970688F789E02D83E0F2
:102B8000ED34F80741F49FEFA91AB90A82CF37E074
:102B9000C32ED12C71CFB301A201CD0109959FEFB6
:102BA000A91AB90A76CF6F927F928F929F92AF92B5
:102BB000BF92CF92DF92EF92FF920F931F93CF932A
:102BC000DF93CDB7DEB7C059D1090FB6F894DEBF99
:102BD0000FBECDBF7C01DC01ED91FC91119781E02E
:102BE00081AB2D913C91119712960D90BC91A02D27
:102BF00011968D919D910D90BC91A02DF90182AB04
:102C000093ABA4ABB5AB86E8FB01DE011196019056
:102C10000D928A95E1F7DB011196CC9011978C917A
:102C2000882309F487C0D12CA12CB12C00E010E03E
:102C3000C601002E02C0959587950A94E2F780FDA3
:102C400045C00F5F1F4F0330110591F7D701ED917C
:102C5000FC9111978AE286AB17AAED91FC9111972E
:102C600081E080ABED91FC91119793E097A70D91D6
:102C70001C911197F80186A71696ED91FC91179774
:102C80008AE0DE01A957BF4F01900D928A95E1F7C6
:102C90000E941745A801BE0169577F4F0E94323834
:102CA000C057DF4F0FB6F894DEBF0FBECDBFDF9128
:102CB000CF911F910F91FF90EF90DF90CF90BF9039
:102CC000AF909F908F907F906F900895F501EE0FD9
:102CD000FF1FEE0FFF1F81E090E08C0F9D1FE80F9C
:102CE000F91F868097800E947E6BA401B8010E9424
:102CF0003B6B0E94FA583801660C771C860D971DB5
:102D0000DC018D919C91892B89F00E94FA58860DE7
:102D1000971DFC01A081B181ED91FC911197008C70
:102D2000F18DE02D83E0EE34F80741F49FEFA91A0E
:102D3000B90A87CF37E0C32ED12C76CFB401CD01AD
:102D400009959FEFA91AB90A7CCF4F925F926F92B3
:102D50007F928F929F92AF92BF92CF92DF92EF922B
:102D6000FF920F931F93CF93DF93CDB7DEB7C05978
:102D7000D1090FB6F894DEBF0FBECDBF7C01DC01D8
:102D8000ED91FC91119781E081AB2D913C911197D0
:102D900012960D90BC91A02D11968D919D910D9044
:102DA000BC91A02DF90182AB93ABA4ABB5AB86E887
:102DB000FB01DE01119601900D928A95E1F7DB018E
:102DC0001196CC9011978C91882309F48CC0D12C4A
:102DD000A12CB12C00E010E0C601002E02C0959598
:102DE00087950A94E2F780FD47C00F5F1F4F0330BD
:102DF000110591F7D701ED91FC9111978BE286AB0C
:102E000017AAED91FC91119781E080ABED91FC91B7
:102E1000119793E097A70D911C911197F80186A740
:102E20001696ED91FC9117978AE0DE01A957BF4FE6
:102E300001900D928A95E1F70E941745A801BE0105
:102E400069577F4F0E943238C057DF4F0FB6F89452
:102E5000DEBF0FBECDBFDF91CF911F910F91FF90CD
:102E6000EF90DF90CF90BF90AF909F908F907F902A
:102E70006F905F904F900895F501EE0FFF1FEE0FDA
:102E8000FF1F81E090E08C0F9D1FE80FF91F468027
:102E90005780608471840E947E6BA3019201B80107
:102EA0000E94586B0E94FA584801880C991C880DA2
:102EB000991DDC018D919C91892B89F00E94FA5813
:102EC000880D991DFC01A081B181ED91FC911197B4
:102ED000028CF38DE02D83E0EF34F80741F49FEF8F
:102EE000A91AB90A82CF37E0C32ED12C71CFB30112
:102EF000A201CD0109959FEFA91AB90A76CF2F92A9
:102F00003F924F925F926F927F928F929F92AF9279
:102F1000BF92CF92DF92EF92FF920F931F93CF93C6
:102F2000DF93CDB7DEB7C157D4400FB6F894DEBFFC
:102F30000FBECDBFFB013197E0814E2F50E0FA016B
:102F40003297E433F105D8F080E0CF58DB4F0FB66D
:102F5000F894DEBF0FBECDBFDF91CF911F910F91CF
:102F6000FF90EF90DF90CF90BF90AF909F908F90A9
:102F70007F906F905F904F903F902F9008952C011D
:102F8000E057FF4F0C94B4A7DC01ED91FC91119731
:102F900081E081AB2D913C91119712960D90BC91DF
:102FA000A02D11968D919D910D90BC91A02DF901B0
:102FB00082AB93ABA4ABB5ABDB0111960D911D9128
:102FC0002D913C91149715965C91159716968D91BD
:102FD0009D910D90BC91A02DFB0140814423F1F007
:102FE0005523E1F0009510952095309540911802F9
:102FF0005091190260911A0270911B02042315234B
:1030000026233723802B912BA22BB32B80931802DE
:1030100090931902A0931A02B0931B02D201ED9172
:10302000FC91119785E386AB17AAED91FC9111975E
:1030300081E080ABED91FC91119793E097A70D9102
:103040001C911197F80186A71696ED91FC911797A0
:103050008AE0DE01119601900D928A95E1F70E94B7
:103060001745A801BE016F5F7F4F0E94323881E093
:103070006CCFDC01ED91FC91119781E081AB2D913A
:103080003C91119712960D90BC91A02D11968D91A7
:103090009D910D90BC91A02DF90182AB93ABA4AB97
:1030A000B5AB8CE8FB01DE01119601900D928A957B
:1030B000E1F76E01FDE8CF0ED11C82E8D6011D922A
:1030C0008A95E9F789818823A1F18E81882389F186
:1030D0008B85882371F15601B2E0AB0EB11CEF80F5
:1030E0002C856A81C159DB4F2883CF56D440C25901
:1030F000DB4F6883CE56D4400E94B4708501C1591D
:10310000DB4F2881CF56D440AE01435F5F4FC25999
:10311000DB4F6881CE56D4400E947170892BF9F63E
:103120000E94B4700E94A0708F81F601818381E0BB
:103130008083F201A081B18184E3D6968C93D697E7
:1031400082E8F601D79601900D928A95E1F7D201B7
:10315000ED91FC91119781E080ABED91FC9111977D
:1031600093E097A70D911C911197F80186A71696E9
:10317000ED91FC9117978AE0D60101900D928A9506
:10318000E1F70E941745A801B6010E94323881E09C
:10319000DCCEDC01ED91FC91119781E081AB2D91AA
:1031A0003C91119712960D90BC91A02D11968D9186
:1031B0009D910D90BC91A02DF90182AB93ABA4AB76
:1031C000B5ABDB018C9111960C91119715962C9152
:1031D000159716961C91FE0131961F0192E8DF01AA
:1031E0001D929A95E9F78823A1F0222391F00E947D
:1031F000B470212FAE014D5F5F4F602F0E94517060
:10320000892BA9F70E94B4700E94A0701A8381E0F4
:103210008983F201A081B18183E329C1DC01ED91B1
:10322000FC91119781E081AB2D913C911197129601
:103230000D90BC91A02D11968D919D910D90BC91FA
:10324000A02DF90182AB93ABA4ABB5AB6E01FDE849
:10325000CF0ED11C87E8FB01D60101900D928A9513
:10326000E1F7D6018C91882349F115968C9188233A
:1032700029F18601095F1F4FF60126816181C1593D
:10328000DB4F2883CF56D440C259DB4F6883CE56DC
:10329000D4400E94B470C159DB4F2881CF56D4402E
:1032A000A801C259DB4F6881CE56D4400E943470C9
:1032B000892B11F70E94B4700E94A070D201ED9189
:1032C000FC91119782E3AFCEDC01ED91FC91119757
:1032D00011E011AB2D913C91119712960D90BC917C
:1032E000A02D11968D919D910D90BC91A02DF9016D
:1032F00082AB93ABA4ABB5AB0E9420512AE836E079
:103300003A8329839C838B830E94D34528EE33E044
:1033100040E050E0BE016F5F7F4F0E946B46D201DC
:10332000ED91FC9111978FE286AB17AAED91FC917C
:10333000119710ABED91FC91119783E087A7ED9069
:10334000FC901197F70116A71696ED91FC9117972F
:103350008AE0DE01119601900D928A95E1F70E94B4
:103360001745A701BE016F5F7F4F0E94323881E091
:10337000ECCDDC01ED91FC91119781E081AB2D91B9
:103380003C91119712960D90BC91A02D11968D91A4
:103390009D910D90BC91A02DF90182AB93ABA4AB94
:1033A000B5ABDB011196EC9011978C91882311F449
:1033B0000C942C27F12C00E010E0C701002E02C075
:1033C000959587950A94E2F780FF02C00C94E62554
:1033D0000F5F1F4F0330110581F7D201ED91FC9172
:1033E00011978EE220CEDC01ED91FC91119711E056
:1033F00011AB2D913C91119712960D90BC91A02D7F
:1034000011968D919D910D90BC91A02DF90182ABEB
:1034100093ABA4ABB5ABDB018C911196CD90DD9055
:10342000ED90FC90149715962C9115971696BC90DC
:10343000169717960C91FE0131961F0192E8DF0155
:103440001D929A95E9F7882371F0222361F00E947A
:103450009935302F2B2DAE014D5F5F4FB6010E9485
:103460006734BA821983F201A081B18181E3D696D3
:103470008C93D69782E8F101D79601900D928A95A8
:10348000E1F7D201ED91FC91119781E080ABED91D4
:10349000FC91119793E097A70D911C911197F8015A
:1034A00086A71696ED91FC9117978AE0D1010190BD
:1034B0000D928A95E1F70E941745A801B1010E947B
:1034C000323881E042CDDC01ED91FC91119781E031
:1034D00081AB2D913C91119712960D90BC91A02D2E
:1034E00011968D919D910D90BC91A02DF90182AB0B
:1034F00093ABA4ABB5AB87E8FB01DE01AC5EBE4F7E
:1035000001900D928A95E1F7CC5EDE4F8881C4511F
:10351000D1408823F9F0C75EDE4F8881C951D14080
:103520008823C1F0C65EDE4F0881CA51D14010E049
:10353000CB5EDE4FE880F980C551D1400E949935BD
:1035400044E151E04C0F5D1F495F5F4F9801B701A7
:103550000E943B35D201ED91FC91119780E363CD40
:10356000DC01ED91FC91119781E081AB2D913C91B3
:10357000119712960D90BC91A02D11968D919D9151
:103580000D90BC91A02DF90182AB93ABA4ABB5AB70
:10359000DB011196BC91C059DB4FB883C057D440B2
:1035A000FB010280F381E02DCE5BDB4FF983E883E2
:1035B000C254D440DB0114963C90149715960D919B
:1035C0001D912D913C911897CC5BDB4F088319839B
:1035D0002A833B83C454D4401996BC91C45BDB4F0F
:1035E000B883CC54D440FB010284F385E02DC65B44
:1035F000DB4FF983E883CA54D440DB011C96BC91AD
:10360000C85BDB4FB883C854D440DB011D960D91D5
:103610001D912D913C915097CF5ADB4F0883198310
:103620002A833B83C155D4405196BC91C05BDB4F8C
:10363000B883C055D440FB010288F389E02DC25BFA
:10364000DB4FF983E883CE54D440DB0154965C9180
:1036500054975596BC91CF58DB4FB883C157D4408F
:10366000FB010688F789E02DC25ADB4FF983E88316
:10367000CE55D440DB0158962C90589759960D9111
:103680001D912D913C915C97C65ADB4F088319839D
:103690002A833B83CA55D4405D96BC91C75ADB4F01
:1036A000B883C955D440FB01068CF78DE02DCB5A69
:1036B000DB4FF983E883C555D440DB019096BC917C
:1036C000CD59DB4FB883C356D440FB01C1A0D2A073
:1036D000E3A0F4A0F5A1CE59DB4FF883C256D44045
:1036E000DB0196960D90BC91A02DC05ADB4FB9839B
:1036F000A883C056D440FB0140A591A502A4F3A520
:10370000E02DDB019C96BC91CC59DB4FB883C456AD
:10371000D440DB019D968D909D90AD90BC90D0974C
:10372000D196BC91C959DB4FB883C756D440DB0151
:10373000D2960D90BC91A02DCB59DB4FB983A883B5
:10374000C556D440DB01D496BC91C759DB4FB88332
:10375000C956D440DB01D5960D911D912D913C9118
:10376000D897D996BC91C859DB4FB883C856D44076
:10377000DB01DA966D907C90DB978C91C15CDB4F1E
:103780008883CF53D440C05CDB4F5883C054D440AF
:10379000CF5BDB4F4883C154D440C059DB4FB88165
:1037A000C057D440C45CDB4FB883CC53D440CF580F
:1037B000DB4F4881C157D440C35CDB4F4883CD53B6
:1037C000D440C25CDB4F9883CE53D440CE5BDB4FFA
:1037D00068817981C254D440CF5DDD4F798368839D
:1037E000C152D240C25ADB4FA881B981CE55D440D4
:1037F000CD5DDD4FB983A883C352D240CB5DDD4F91
:10380000F983E883C552D240C75CDB4F3882C95385
:10381000D440C65CDB4F2882CA53D440CC59DB4F1E
:10382000B881C456D440C55CDB4FB883CB53D44079
:10383000CC5BDB4F488159816A817B81C454D44081
:10384000C357DF4F488359836A837B83CD58D04069
:10385000C65ADB4F488159816A817B81CA55D44061
:10386000CF56DF4F488359836A837B83C159D04049
:10387000CB56DF4F88829982AA82BB82C559D0403D
:10388000BE016D547C4FCC5BDB4F79836883C4549D
:10389000D440C45BDB4FE881CC54D440DB01EC93D3
:1038A000C75ADB4FF881C955D4401196FC93119744
:1038B000C959DB4F4881C756D44012964C93C65B1A
:1038C000DB4F68817981CA54D440C556DE4F798375
:1038D0006883CB59D140CB5ADB4FA881B981C555FC
:1038E000D440C356DE4FB983A883CD59D140CB59BC
:1038F000DB4FE881F981C556D440C156DE4FF983CC
:10390000E883CF59D140AE01435D5C4FCE5BDB4FC6
:1039100059834883C254D440C85BDB4FE881C85404
:10392000D440DA01EC93CD59DB4FF881C356D44033
:103930001196FC931197C759DB4F4881C956D44063
:1039400012964C93CF5ADB4F488159816A817B8113
:10395000C155D44049835A836B837C83CD82DE82F8
:10396000EF82F88609871A872B873C87BE01695545
:103970007D4FC85BDB4F79836883C854D440C05BFC
:10398000DB4FE881C055D440DB01EC93CE59DB4FCF
:10399000F881C256D4401196FC931197C859DB4F59
:1039A0000881C856D44012960C931297C25BDB4F25
:1039B00028813981CE54D440CC5EDE4F39832883B0
:1039C000C451D140C05ADB4F48815981C056D440C0
:1039D000CA5EDE4F59834883C651D140C85EDE4F70
:1039E00079826882C851D1406FE374E06C0F7D1F0B
:1039F0006F5F7F4FC65BDB4F79836883CA54D440C7
:103A0000A359B140FE0131965F018E010F5D1D4F3C
:103A10009E0123573F4F4901AE0145565E4F3A0183
:103A2000C12CD12CC45BDB4FF983E883CC54D44048
:103A30001801C25BDB4F59824882CE54D4402D011D
:103A4000882309F4AEC0ECE3F4E0EC0FFD1FEC0DAD
:103A5000FD1D8081882309F4A4C0E9E3F4E0EC0FA4
:103A6000FD1FEC0DFD1D8081882309F49AC0CC5BFD
:103A7000DB4FE881F981C454D440EC0DFD1D8081F9
:103A8000882311F40C94AF27D3018D919C91CE5BC8
:103A9000DB4FE881F981C254D440EC0DFD1D00815B
:103AA000C05BDB4F0883C055D440011106C0D5016F
:103AB0001D921D921D921C921397C85BDB4FE881EB
:103AC000F981C854D440EC0DFD1DB081CF5ADB4FB5
:103AD000B883C155D440B11105C021E030E0F201F6
:103AE000318320838230910511F40C94E42814F47E
:103AF0000C94F7278330910511F40C948A280497CD
:103B000009F047C0D5012D913D914D915C91CB5A63
:103B1000DB4F288339834A835B83C555D440F40146
:103B20002081318142815381C159DB4F2883CF5697
:103B3000D440C559DB4F3883CB56D440C459DB4FF2
:103B40004883CC56D440C359DB4F5883CD56D4401C
:103B50000E94FA58CB5ADB4FE880F9800A811B811A
:103B6000C555D440C159DB4F2881CF56D440C559E3
:103B7000DB4F3881CB56D440C459DB4F4881CC56FB
:103B8000D440C359DB4F5881CD56D440B6010E9472
:103B90009C58C05BDB4FF881C055D440F1110C94A8
:103BA0003E28BFEFCB1ADB0AE2E04E0E511CF4E0D8
:103BB000AF0EB11C02E0200E311C14E0810E911CEE
:103BC00022E0620E711C33E0C316D10409F4DEC793
:103BD000C65BDB4FA881B981CA54D4408D91C65BC6
:103BE000DB4FB983A883CA54D4408823D1F22BCFAA
:103BF000DC01ED91FC91119781E081AB2D913C911D
:103C0000119712960D90BC91A02D11968D919D91BA
:103C10000D90BC91A02DF90182AB93ABA4ABB5ABD9
:103C20000E94CF4D7C0100E010E00E94FA58B801DC
:103C30000E945C550E94FA5840E050E0B8010E9492
:103C4000FB540F5F1F4F0330110579F7F701BD9645
:103C500086E0DF011D928A95E9F7D201ED91FC9192
:103C600011978CE2E0C90E94A51681E06EC90E94FE
:103C7000D31581E06AC90E94F91481E066C9DC01AC
:103C8000ED91FC91119781E081AB2D913C911197C1
:103C900012960D90BC91A02D11968D919D910D9035
:103CA000BC91A02DF90182AB93ABA4ABB5AB86E878
:103CB000FB01DE01A556BE4F01900D928A95E1F7FA
:103CC000DB011196EC9011978C91882311F40C94E0
:103CD0003127F12CC12CD12C00E010E0C701002EBF
:103CE00002C0959587950A94E2F780FD7DC70F5F26
:103CF0001F4F0330110591F7D201ED91FC911197FF
:103D000088E291C9DC01ED91FC91119781E081ABD2
:103D10002D913C91119712960D90BC91A02D11966A
:103D20008D919D910D90BC91A02DF90182AB93AB2B
:103D3000A4ABB5AB86E8FB01DE01AF5DBD4F0190E2
:103D40000D928A95E1F7DB011196EC9011978C9119
:103D5000882311F40C944327F12CC12CD12C00E0C2
:103D600010E0C701002E02C0959587950A94E2F7EE
:103D700080FF02C00C94DA260F5F1F4F033011053D
:103D800081F7D201ED91FC91119787E24CC9DC01DA
:103D9000ED91FC91119781E081AB2D913C911197B0
:103DA00012960D90BC91A02D11968D919D910D9024
:103DB000BC91A02DF90182AB93ABA4ABB5AB8E0146
:103DC00009551D4FC85BDB4F19830883C854D44085
:103DD00086E8FB01D80101900D928A95E1F7DB019D
:103DE0001196EC9011978C91882311F40C943E2736
:103DF000F12CC12CD12C00E010E0C701002E02C034
:103E0000959587950A94E2F780FD60C70F5F1F4F75
:103E10000330110591F7D201ED91FC91119786E2E3
:103E200002C9DC01ED91FC91119781E081AB2D91EC
:103E30003C91119712960D90BC91A02D11968D91E9
:103E40009D910D90BC91A02DF90182AB93ABA4ABD9
:103E5000B5AB8E01035D1C4FCE5BDB4F198308832E
:103E6000C254D44086E8FB01D80101900D928A9596
:103E7000E1F7DB011196EC9011978C91882309F4FE
:103E8000F9C7F12CC12CD12C00E010E0C701002EA5
:103E900002C0959587950A94E2F780FD51C70F5FA0
:103EA0001F4F0330110591F7D201ED91FC9111974D
:103EB00085E2B9C8DC01ED91FC91119781E081ABFD
:103EC0002D913C91119712960D90BC91A02D1196B9
:103ED0008D919D910D90BC91A02DF90182AB93AB7A
:103EE000A4ABB5AB8E010D541C4FCC5BDB4F1983DB
:103EF0000883C454D44086E8FB01D80101900D9298
:103F00008A95E1F7DB011196EC9011978C9188234B
:103F100009F4ACC7F12CC12CD12C00E010E0C70192
:103F2000002E02C0959587950A94E2F780FD94C60D
:103F30000F5F1F4F0330110591F7D201ED91FC91F6
:103F4000119784E270C8DC01ED91FC91119711E0AA
:103F500011AB2D913C91119712960D90BC91A02D13
:103F600011968D919D910D90BC91A02DF90182AB80
:103F700093ABA4ABB5AB0E947E6B60E070E00E9497
:103F8000696B4B015C010E947E6B61E070E00E94F6
:103F9000696B6B017C010E947E6B62E070E00E94A5
:103FA000696BD201ED91FC91119723E226AB23E0DE
:103FB00027AB80AE91AEA2AEB3AEC4AED5AEE6AE88
:103FC000F7AEE05CFF4F6083718382839383ED9152
:103FD000FC91119710ABED91FC91119727A7AFC9F8
:103FE000DC01ED91FC91119711E011AB2D913C9109
:103FF000119712960D90BC91A02D11968D919D91C7
:104000000D90BC91A02DF90182AB93ABA4ABB5ABE5
:104010000E947E6B60E070E00E94486B6C010E9421
:104020007E6B61E070E00E94486B5C010E947E6BD9
:1040300062E070E00E94486BD201ED91FC9122E2B7
:1040400026AB23E027AB0D2C000CEE08FF08C0AE1A
:10405000D1AEE2AEF3AEA501BB0C660B770B44AF5D
:1040600055AF66AF77AFE05CFF4F092E000CAA0B8F
:10407000BB0B80839183A283B383D201A8CFDC01E1
:10408000ED91FC91119711E011AB2D913C9111979D
:1040900012960D90BC91A02D11968D919D910D9031
:1040A000BC91A02DF90182AB93ABA4ABB5AB0E9440
:1040B0007E6B60E070E00E94266B4B015C010E9409
:1040C0007E6B61E070E00E94266B6B017C010E94B8
:1040D0007E6B62E070E00E94266BD201ED91FC9154
:1040E000119721E263CF0E94661481E00C94A5171A
:1040F0000E94D31381E00C94A5170E94401381E025
:104100000C94A517DC01ED91FC91119711E011AB16
:104110002D913C91119712960D90BC91A02D119666
:104120008D919D910D90BC91A02DF90182AB93AB27
:10413000A4ABB5AB0E947E6B60E070E00E948E6A1B
:104140004B015C010E947E6B61E070E00E948E6A10
:104150006B017C010E947E6B62E070E00E948E6ABF
:10416000D201ED91FC9111972DE120CF0E94AD126B
:1041700081E00C94A517DC01ED91FC91119781E091
:1041800081AB2D913C91119712960D90BC91A02D71
:1041900011968D919D910D90BC91A02DF90182AB4E
:1041A00093ABA4ABB5ABD2011496ED91FC911597EE
:1041B00020893189FB0191818081882311F091113F
:1041C000D5C61A8219821C821B820E94FA589E014F
:1041D0002F5F3F4F1901B9010E946255D201ED9145
:1041E000FC9111978BE186AB17AA4CC9DC01ED91CC
:1041F000FC91119781E081AB2D913C911197129622
:104200000D90BC91A02D11968D919D910D90BC911A
:10421000A02DF90182AB93ABA4ABB5AB0E94D34503
:104220006090320270903302809034029090350298
:104230008E010F5F1F4F1801780100E010E0AA24E3
:10424000A394B12CB4E0CB2ED12C0E94FA58B80123
:104250000E94A5558130910509F4F4C50CF4ABC456
:104260008230910509F4F4C5039729F4D701179614
:10427000DC92CE9216970F5F1F4FB2E0EB0EF11C4F
:104280000330110511F7F201A081B18187E1D696C3
:104290008C93D69781E089836A827B828C829D820F
:1042A00093E09E8326E4F101D79601900D922A9522
:1042B000E1F7D201ED91FC91119780ABED91FC916A
:1042C0001197E9C8DC01ED91FC91119781E081AB78
:1042D0002D913C91119712960D90BC91A02D1196A5
:1042E0008D919D910D90BC91A02DF90182AB93AB66
:1042F000A4ABB5AB0E94D3458090320290903302BC
:10430000A0903402B09035027E01F7E0EF0EF11C70
:1043100000E010E00E94CF4DB8010E942347D70172
:104320006D937D938D939D937D010F5F1F4F0330A0
:10433000110581F7F201A081B18186E1D6968C93B7
:10434000D69781E089838A829B82AC82BD8293E08A
:104350009E8326E8FE013196D79601900D922A950C
:10436000E1F7D201ED91FC91119780ABED91FC91B9
:1043700011970C941E18DC01ED91FC91119781E0CE
:1043800081AB2D913C91119712960D90BC91A02D6F
:1043900011964D915D916D917C911497F90142AB0D
:1043A00053AB64AB75ABD201ED91FC91119795E1E4
:1043B00096AB87AB10AE11AE12AE13AEED91FC9181
:1043C00011970C941918DC01ED91FC91119711E0F3
:1043D00011AB2D913C91119712960D90BC91A02D8F
:1043E00011968D919D910D90BC91A02DF90182ABFC
:1043F00093ABA4ABB5AB0E94A8710E9400714B01B6
:104400005C010E94A8710E9438716B017C010E94BE
:10441000A8710E947071D201ED91FC9124E126AB4C
:1044200017AB80AE91AEA2AEB3AE14AFDF01DD9696
:10443000CD92DD92ED92FC92139714961C93EE5B55
:10444000FF4F6083718382839383D2010C9496190A
:10445000DC01ED91FC91119781E081AB2D913C91B4
:10446000119712960D90BC91A02D11968D919D9152
:104470000D90BC91A02DF90182AB93ABA4ABB5AB71
:10448000D2011496ED91FC91159700891189FB01D9
:1044900091818081882311F0911178C5D8011496FB
:1044A0008D919C9115979A83898316968D919C91F5
:1044B00017979C838B830E94B54FFE0131961F0195
:1044C000AF0160E070E00E94174FD80118968D91FF
:1044D0009C9119979A8389831A968D919C911B9729
:1044E0009C838B830E94B54FA10161E070E00E9424
:1044F000174FF801848595859A83898386859785EA
:104500009C838B830E94B54FA10162E070E00E9402
:10451000174FD201ED91FC91119789E186AB17AA53
:104520000C94421ADC01ED91FC91119781E081AB72
:104530002D913C91119712960D90BC91A02D119642
:104540008D919D910D90BC91A02DF90182AB93AB03
:10455000A4ABB5ABD2011496ED91FC9115970089EF
:104560001189FB015181E281DB0113964C91139774
:1045700014963C91149715962C91159716969C912C
:1045800016978C91882309F44EC4552309F44BC423
:10459000EE2309F427C5542F432F322F292F852FBF
:1045A000942FA32FB22FF80187AB90AFA1AFB2AF7A
:1045B00081E085AF8DE593E09A8389831C830B832B
:1045C0000E94D34528EC30E040E050E0BE016F5F30
:1045D0007F4F1B010E946B46D801DC969C938E9303
:1045E000DB97D201ED91FC91119788E186AB17AA78
:1045F0000C94421ADC01ED91FC91119781E081ABA2
:104600002D913C91119712960D90BC91A02D119671
:104610008D919D910D90BC91A02DF90182AB93AB32
:10462000A4ABB5ABD2011496ED91FC91159700891E
:104630001189FB018181F281DB011396BC91C85B7A
:10464000DB4FB883C854D440DB011496EC91149727
:1046500015965C91159716964C91169717969C9106
:1046600017971896EC9018971996CC9019971A9658
:104670002C901A971B963C911B971C963C901C976C
:104680001D962C911D97CC5BDB4F2883C454D440DE
:104690001E962C911E971F966C901F975096FC901B
:1046A00050975196DC9051975296BC9052975396E2
:1046B000AC91CE5BDB4FA883C254D440DB0154964F
:1046C0007C90549755968C90559756969C905697FB
:1046D0005796AC9057976C91662321F1882309F483
:1046E00004C4FF2309F401C4C85BDB4FB881C8547C
:1046F000D440BB2309F4ABC5692F8E2F952FA42F6F
:10470000B62FF801838B948BA58BB68B8089816043
:10471000808B178E10A211A212A281899289892BF7
:1047200009F4A7C5EE2031F1CC2009F4CBC3222037
:1047300009F4C8C3332309F48FC5E32DCC5BDB4FE9
:104740003881C454D440922F862D4E2F532F692F79
:10475000782FF801478B508F618F728F808982602C
:10476000808B13A214A215A216A281899289892B8B
:1047700009F47BC5FF2069F1DD2009F489C3BB2062
:1047800009F486C3CE5BDB4F2881C254D440222378
:1047900009F4BBC4372D282D992D8A2D432F522F74
:1047A000692F782FD8015B964D935D936D937C9321
:1047B0005E9750968C915097846050968C93F80138
:1047C00017A210A611A612A681899289892B09F435
:1047D00048C5D201ED91FC9111978AE10C94131810
:1047E000DC01ED91FC91119711E011AB2D913C9101
:1047F000119712960D90BC91A02D11968D919D91BF
:104800000D90BC91A02DF90182AB93ABA4ABB5ABDD
:104810000E9420510E94190360E070E00E94F302A0
:10482000D201ED90FC9023E1F70126AB17AB23ED0D
:1048300038E44EE85EE30E948FA8D701D8966D93C6
:104840007D938D939C93DB97D2010C949619DC0198
:10485000ED91FC91119781E081AB2D913C911197E5
:1048600012960D90BC91A02D11968D919D910D9059
:10487000BC91A02DF90182AB93ABA4ABB5AB7E018B
:10488000F2E0EF0EF11C00E010E00E941903B80105
:104890000E94E502A0E0B0E0F70181939193A1931B
:1048A000B1937F010F5F1F4F0830110571F7F201BF
:1048B000A081B18182E1D6968C93D69788E08983D6
:1048C00081E8FE013196D79601900D928A95E1F725
:1048D000D2010C941518DC01ED91FC91119781E047
:1048E00081AB2D913C91119712960D90BC91A02D0A
:1048F00011968D919D910D90BC91A02DF90182ABE7
:1049000093ABA4ABB5AB0E942051DC0119968D91FD
:104910009C911A9703978330910508F0D0C2880FB5
:10492000991FFC01E950FC4F20813181D201ED91AA
:10493000FC91119781E186AB81E087AB31AF20AF6D
:10494000ED91FC9111970C941918DC01ED91FC91FB
:10495000119781E081AB2D913C91119712960D90AA
:10496000BC91A02D11964D915D916D917C91149704
:10497000F90142AB53AB64AB75AB91E8E5EEF2E005
:10498000DE01119601900D929A95E1F7F201A08156
:10499000B18190E1D6969C93D69791E8FE0131962D
:1049A000D79601900D929A95E1F7D201ED91FC9185
:1049B00011970C941918DC01ED91FC91119781E08D
:1049C00081AB2D913C91119712960D90BC91A02D29
:1049D00011968D919D910D90BC91A02DF90182AB06
:1049E00093ABA4ABB5ABDB011196CD90DD90ED9010
:1049F000FC9014978C91882351F1A70166277727A3
:104A00008D2C9E2CAF2CBB24C459DB4F4883CC5635
:104A1000D440C359DB4F5883CD56D440C259DB4FE5
:104A20006883CE56D440C659DB4F7883CA56D440EB
:104A30000E944D34C459DB4F4881CC56D440582D88
:104A40006C2D0E94B8330E944D34FC011082D201BB
:104A5000ED91FC91119785E00C941318DC01ED9118
:104A6000FC91119781E081AB2D913C9111971296A9
:104A70000D90BC91A02D11968D919D910D90BC91A2
:104A8000A02DF90182AB93ABA4ABB5ABDB011196C2
:104A9000CD90DD90ED90FC9014978C91882331F0AF
:104AA0000E94416DB701A6010E94496CD201ED91AF
:104AB000FC91119784E00C941318DC01ED91FC91AA
:104AC000119711E011AB2D913C91119712960D9019
:104AD000BC91A02D11968D919D910D90BC91A02D12
:104AE000F90182AB93ABA4ABB5AB0E944D34DC01B2
:104AF00011964C91119712962C91129713963C9106
:104B0000822F90E0A0E0B0E0BA2FA92F982F88273D
:104B1000A42BAC01BD01432BD201ED91FC91119767
:104B200023E026AB17AB40AF51AF62AF73AF4FCAB4
:104B3000DC01ED91FC91119711E011AB2D913C91AD
:104B4000119712960D90BC91A02D11968D919D916B
:104B50000D90BC91A02DF90182AB93ABA4ABB5AB8A
:104B60000E94416DDC0111964D915D916D917C919A
:104B70001497D201ED91FC91119722E026AB17AB6F
:104B800040AF51AF62AF73AF0C949619C45BDB4F6B
:104B900028803980CC54D440C25BDB4F4880598098
:104BA000CE54D440D201ED91FC9111978DE286ABA9
:104BB00017AA0C94421A892B09F05DCBE2E0F0E0D1
:104BC000D7011796FC93EE93169755CB0E94FA588F
:104BD000B8010E945C550E94FA5840E050E0B801CC
:104BE0000E94FB540C94E819F601EE0FFF1FEE0F24
:104BF000FF1F2BE931E02C0F3D1FE20FF31F6680F2
:104C00007780808491840E947E6BA4019301B80117
:104C10000E94EF6A0E94FA585801AA0CBB1C8A0D28
:104C20009B1DDC018D919C91892B91F00E94FA587B
:104C30008A0D9B1DFC01A081B181ED91FC91119722
:104C40000488F589E02D23E0EC34F20709F019C45B
:104C50003FEFC31AD30A4BC8F601EE0FFF1FEE0F4A
:104C6000FF1FCC5BDB4F28813981C454D440E20F55
:104C7000F31F66807780808491840E947E6BA401FC
:104C80009301B8010E945B6A0E94FA585801AA0C6D
:104C9000BB1C8A0D9B1DDC018D919C91892B91F091
:104CA0000E94FA588A0D9B1DFC01A081B181ED91F3
:104CB000FC9111970484F585E02D23E0E834F20798
:104CC00009F0E4C33FEFC31AD30A32C9F601EE0F6D
:104CD000FF1FEE0FFF1FC85BDB4F28813981C854CF
:104CE000D440E20FF31F66807780808491840E9415
:104CF0007E6BA4019301B8010E94A36A0E94FA5836
:104D00005801AA0CBB1C8A0D9B1DDC018D919C9146
:104D1000892B91F00E94FA588A0D9B1DFC01A081FD
:104D2000B181ED91FC9111970088F189E02D23E08C
:104D3000EA34F20709F0A0C33FEFC31AD30A66C8EA
:104D4000F601EE0FFF1FEE0FFF1FCE5BDB4F28813A
:104D50003981C254D440E20FF31F6680778080848B
:104D600091840E947E6BA4019301B8010E947D6A28
:104D70000E94FA585801AA0CBB1C8A0D9B1DDC012D
:104D80008D919C91892B91F00E94FA588A0D9B1D60
:104D9000FC01A081B181ED91FC9111970684F7850A
:104DA000E02D23E0E934F20709F061C33FEFC31AB5
:104DB000D30A75C8F601EE0FFF1FEE0FFF1F21E2A9
:104DC00032E02C0F3D1FE20FF31F66807780808456
:104DD00091840E947E6BA4019301B8010E94C96A6C
:104DE0000E94FA585801AA0CBB1C8A0D9B1DDC01BD
:104DF0008D919C91892B91F00E94FA588A0D9B1DF0
:104E0000FC01A081B181ED91FC9111970288F38999
:104E1000E02D23E0EB34F20709F024C33FEFC31A7F
:104E2000D30A0C94BC1EF801E3ACF4AC0E94D34549
:104E3000B7010E946A45D801DD961C92FE013196A9
:104E40001F01CFCBD70117961C921E92169713CA3B
:104E5000F701B782A6820FCA87E0E82EF12C0C94E6
:104E6000DB1977E0E72EF12C0C946A1EF7E0EF2EA9
:104E7000F12C51C867E0E62EF12C04C837E0E32E90
:104E8000F12C0C94F91E17E0E12EF12C0C94AD1EC0
:104E9000D80150968C9150978B7F50968C93509759
:104EA000811197CC5196ED90FC9052970E94D3457A
:104EB000B7010E946A45F801128A118A8ACC20E063
:104EC00030E034CDF80180898D7F808B811152CC08
:104ED000218832880E94D345B1010E946A45D801D9
:104EE00052961C921E92519745CCF80180898E7F74
:104EF000808B811117CC61897289C159DB4F28835E
:104F0000CF56D440C559DB4F3883CB56D440C25915
:104F1000DB4F6883CE56D440C659DB4F7883CA56E0
:104F2000D4400E94D345C259DB4F6881CE56D4404D
:104F3000C659DB4F7881CA56D4400E946A45D801D1
:104F400052961C921E925197C559DB4F3881CB5611
:104F5000D440C159DB4F2881CF56D440E3CB82E007
:104F600090E0F301918380830C94471D89E196E0E2
:104F70009A8389833C832B830E94FA588E010F5FAA
:104F80001F4F1801B8010E94625528C984EC9AE0AD
:104F90009A8389831C830B830E94B54F9E012F5FE8
:104FA0003F4F1901A90160E070E00E94174F84E1B2
:104FB00097E09A8389831C830B830E94B54FA101DC
:104FC00061E070E00E94174F80EC96E09A8389833D
:104FD0001C830B830E94B54FA10162E070E00E9428
:104FE000174F97CA5DEC4CEC3CE42DE3D8CA01970F
:104FF00011F00C94C91DD1018D919C9182309105C5
:1050000009F4F0C18330910509F4B9C1019711F099
:105010000C94C91DF4012081318142815381C15911
:10502000DB4F2883CF56D440C559DB4F3883CB564E
:10503000D440C459DB4F4883CC56D440C359DB4FCE
:105040005883CD56D4400E94FA58C159DB4F28816D
:10505000CF56D440C559DB4F3881CB56D440C459C4
:10506000DB4F4881CC56D440C359DB4F5881CD56D5
:10507000D440B6010E94CE550C94C91D0E94FA5826
:105080009601220F331F820F931FDC010D911C919B
:105090000115110511F40C94D11DF801E080F18087
:1050A00020E030E04AE754E4D5016D917D918D9187
:1050B0009C910E9450AA0E9408A9AB01BC01D70193
:1050C0009296ED91FC919397C8010995CF5ADB4FC9
:1050D000B881C155D440BB2311F40C94D11DF20109
:1050E00080819181D801ED91FC9104A0F5A1E02D82
:1050F0008130910509F4B0C1029709F4A7C161E0BC
:1051000070E0C80109950C94D11D35E32AEF9EE0AB
:105110008DE344CBD1018D919C918130910509F4AF
:10512000C0C0029711F00C94C91DD4010D911D91BE
:105130002D913C91CB5ADB4F088319832A833B8303
:10514000C555D4400E94CF4DB6010E9423479B0114
:10515000AC01CB5ADB4F688179818A819B81C5552F
:10516000D4400E941EA89B01AC01C159DB4F28838B
:10517000CF56D440C559DB4F3883CB56D440C459A1
:10518000DB4F4883CC56D440C359DB4F5883CD56B0
:10519000D4400E94FA58C159DB4F2881CF56D440E1
:1051A000C559DB4F3881CB56D440C459DB4F4881B9
:1051B000CC56D440C359DB4F5881CD56D440B601AC
:1051C0000E9457580C94C91DD1018D919C91823039
:1051D000910509F4A0C08330910509F468C00197D6
:1051E00011F00C94C91DF401208131814281538159
:1051F000C159DB4F2883CF56D440C559DB4F388384
:10520000CB56D440C459DB4F4883CC56D440C35905
:10521000DB4F5883CD56D4400E94FA58C159DB4F1A
:105220002881CF56D440C559DB4F3881CB56D44066
:10523000C459DB4F4881CC56D440C359DB4F588109
:10524000CD56D440B6010E9471560C94C91DE5E3B9
:105250005AEF4EE06DE351CAE5E33AEF9EE08DE38D
:1052600074CAC8010E949A06B4CAC8010E949A066C
:1052700081CAC801C159DB4F2883CF56D440C559D4
:10528000DB4F3883CB56D4400E949A06C159DB4F7E
:105290002881CF56D440C559DB4F3881CB56D440F6
:1052A00041CAF40120813181428153815ECFF401F2
:1052B0002081318142815381C159DB4F2883CF56F0
:1052C000D440C559DB4F3883CB56D440C459DB4F4B
:1052D0004883CC56D440C359DB4F5883CD56D44075
:1052E0000E94FA58C159DB4F2881CF56D440C55986
:1052F000DB4F3881CB56D440C459DB4F4881CC5664
:10530000D440C359DB4F5881CD56D440B6010E94DA
:105310003F570C94C91DD4012D913D914D915C9145
:10532000C159DB4F2883CF56D440C559DB4F388352
:10533000CB56D440C459DB4F4883CC56D440C359D4
:10534000DB4F5883CD56D4400E94FA58C159DB4FE9
:105350002881CF56D440C559DB4F3881CB56D44035
:10536000C459DB4F4881CC56D440C359DB4F5881D8
:10537000CD56D440B6010E9414570C94C91D0E940A
:10538000FA58B6010E945C55F401608171818281F6
:1053900093810E9401A9AB01BC01C459DB4F488332
:1053A000CC56D440C359DB4F5883CD56D440C25954
:1053B000DB4F6883CE56D440C659DB4F7883CA563C
:1053C000D4400E94FA58C459DB4F4881CC56D4408F
:1053D000C359DB4F5881CD56D440B6010E94D254F8
:1053E0000C94C91DD4012D913D914D915C91C159F1
:1053F000DB4F2883CF56D440C559DB4F3883CB567B
:10540000D440C459DB4F4883CC56D440C359DB4FFA
:105410005883CD56D4400E94FA58C159DB4F288199
:10542000CF56D440C559DB4F3881CB56D440C459F0
:10543000DB4F4881CC56D440C359DB4F5881CD5601
:10544000D440B6010E9446560C94C91D60E070E03D
:10545000C80109950C94D11D62E070E0C80109955E
:105460000C94D11DB401A301CD010995D7CCB40191
:10547000A301CD0109959ACCB401A301CD010995F1
:105480005BCCB401A301CD010995E2CBB401A3012A
:10549000CD01099517CC2F923F924F925F926F9258
:1054A0007F928F929F92AF92BF92CF92DF92EF92B4
:1054B000FF920F931F93CF93DF93CDB7DEB7CC5DF1
:1054C000D1090FB6F894DEBF0FBECDBFDC01FB01E2
:1054D000319790819130D9F080E0C452DF4F0FB600
:1054E000F894DEBF0FBECDBFDF91CF911F910F911A
:1054F000FF90EF90DF90CF90BF90AF909F908F90F4
:105500007F906F905F904F903F902F9008951296EC
:105510008D909C9013976D907C909E012F5F3F4FD4
:10552000190183ECF90111928A95E9F7F40182855A
:105530008AA703851485258536850BA71CA72DA76B
:105540003EA7F3019385891711F081E0C6CF2B01A7
:10555000882309F456C084859585A685B7850817E4
:1055600019072A073B0789F78AE0F401D30111964E
:1055700001900D928A95E1F7F2018081882329F349
:10558000F201418152816381748180911002909176
:105590001102092E000CAA0BBB0B481759076A070A
:1055A0007B0799F25093110240931002CC53DF4FC6
:1055B00039822882C45CD040CA53DF4F5982488266
:1055C000C65CD040C853DF4F79826882C85CD04047
:1055D000C653DF4F99828882CA5CD040B2016A5FAD
:1055E0007F4FCE018C539F4F0E947F178111ADCF0B
:1055F0000E944D344FEF50E060E00E94B83381E0EC
:105600006CCFF301F181C353DF4FF883CD5CD04001
:10561000F301F381CD52DF4FF883C35DD040F30136
:10562000F481CC52DF4FF883C45DD040F301828116
:10563000E82FF0E0C253DF4FF983E883CE5CD0401F
:10564000F401F081C053DF4FF883C05DD040F40116
:10565000F281CB52DF4FF883C55DD040F401F38176
:10566000CA52DF4FF883C65DD040F4018181E82F34
:10567000F0E0CF52DF4FF983E883C15DD040CC52D8
:10568000DF4F2881C45DD04030E040E050E060E072
:1056900070E080E090E008E10E94BDA7E32FF42EC7
:1056A000B52FE62EC353DF4FF881CD5CD040F22BEF
:1056B000C453DF4FF883CC5CD040172F1264A82F5F
:1056C000A265F92FF264CD52DF4F2881C35DD0402F
:1056D00030E040E050E060E070E080E090E000E129
:1056E0000E94BDA7E32BF42AC952DF4FF882C75DA1
:1056F000D040B52BE62AC852DF4FE882C85DD040C3
:10570000172BC752DF4F1883C95DD040A82BF92B48
:10571000C253DF4F48815981CE5CD040942F8827F7
:105720005C01C453DF4F5881CC5CD040522BC45332
:10573000DF4F5883CC5CD040EB29CA52DF4F288121
:10574000C65DD04030E040E050E060E070E080E0D6
:1057500090E008E10E94BDA7B32E6A01E62EC05377
:10576000DF4F3881C05DD040322BC652DF4F3883C7
:10577000CA5DD0407264F72E8265C552DF4F8883C0
:10578000CB5DD040192F1264CB52DF4F2881C55D0D
:10579000D04030E040E050E060E070E080E090E039
:1057A00000E10E94BDA7A22EB32AC452DF4FB882E7
:1057B000CC5DD040C42AD52AE62AF72AC552DF4F4D
:1057C0000881CB5DD040082B192BCF52DF4F488189
:1057D0005981C15DD040942F88279C01C652DF4F6C
:1057E000B880CA5DD040AB28C452DF4FB880CC5DD2
:1057F000D040B32AC453DF4F2881CC5CD0403E2F29
:10580000C952DF4F4881C75DD0405B2FC852DF4F80
:105810006881C85DD040C752DF4F7881C95DD040F4
:105820008A2F9F2F0E94F4A709F4A6CEC253DF4F00
:1058300028813981CE5CD040C353DF4FE881CD5CF5
:10584000D0403E2BCF52DF4F88819981C15DD0403F
:10585000C053DF4FF881C05DD0409F2B2817390718
:1058600061F044E050E0B3016F5F7F4FC4010E94DC
:105870000DAE892B09F480CE68CECC52DF4FE88183
:10588000C45DD0402E2F30E0CD52DF4FF881C35D94
:10589000D0403F2BCA52DF4FE881C65DD0408E2FEB
:1058A00090E0CB52DF4FF881C55DD0409F2B281789
:1058B0003907B9F661CE2F923F924F925F926F9265
:1058C0007F928F929F92AF92BF92CF92DF92EF9290
:1058D000FF920F931F93CF93DF93CDB7DEB7CE5ECA
:1058E000D1400FB6F894DEBF0FBECDBF3C016B01B7
:1058F0004A01DA018C918823F1F190E07C01EE0CF1
:10590000FF1CEE0CFF1CE80EF91EBFEFEB1AFB0AA2
:10591000E40EF51E8A010F5F1F4FE016F106F9F441
:10592000C251DE4F0FB6F894DEBF0FBECDBFDF9180
:10593000CF911F910F91FF90EF90DF90CF90BF908C
:10594000AF909F908F907F906F905F904F903F901F
:105950002F9008950B5F1F4F0E151F0509F30E942E
:105960001745BC016C5F7F4F44E050E0C8010E94C6
:105970000DAE892B79F7F40181A581118FC08AE0E2
:10598000F601DE01AB53BE4F01900D928A95E1F70F
:105990002E01FAE44F1AFEEF5F0A8AE0FE01EB5394
:1059A000FE4FD20101900D928A95E1F7D2011A962D
:1059B0001C92CA56DE4F79826882C659D140C856B9
:1059C000DE4F59824882C859D140C656DE4F79828F
:1059D0006882CA59D140C456DE4F59824882CC5998
:1059E000D140C256DE4F79826882CE59D140C0562E
:1059F000DE4FD982C882C05AD140CE55DE4F99823F
:105A00008882C25AD140CC55DE4F79826882C45A0E
:105A1000D140CA55DE4FD982C882C65AD140C85536
:105A2000DE4F79826882C85AD140C655DE4F59820E
:105A30004882CA5AD140C455DE4F79826882CC5A16
:105A4000D140C255DE4F59824882CE5AD140C0550E
:105A5000DE4F79826882C05BD140CE54DE4FD9825E
:105A6000C882C25BD140CC54DE4F99828882C45B2D
:105A7000D140F40186A5882309F452CFE7A58E2FE3
:105A800090E0FC013197E730F10568F10E944D3458
:105A90004FEF50E060E00E94B83342CF42A553A5DB
:105AA00064A575A58AE0F601DE01A153BE4F019001
:105AB0000D928A95E1F72E01FAE44F1AFEEF5F0A84
:105AC0008AE0FE01E153FE4FD20101900D928A95CA
:105AD000E1F781E0D2011A968C93F2014387548753
